Archive member included to satisfy reference by file (symbol)

c:/diasemi/smartsnippetsstudio2.0.10/gcc/7-2018-q2/bin/../lib/gcc/arm-none-eabi/7.3.1/thumb/v8-m.main/fpv5-sp/hard\libgcc.a(_aeabi_uldivmod.o)
                              ./sdk/sys_man/sys_clock_mgr_da1469x.o (__aeabi_uldivmod)
c:/diasemi/smartsnippetsstudio2.0.10/gcc/7-2018-q2/bin/../lib/gcc/arm-none-eabi/7.3.1/thumb/v8-m.main/fpv5-sp/hard\libgcc.a(_udivmoddi4.o)
                              c:/diasemi/smartsnippetsstudio2.0.10/gcc/7-2018-q2/bin/../lib/gcc/arm-none-eabi/7.3.1/thumb/v8-m.main/fpv5-sp/hard\libgcc.a(_aeabi_uldivmod.o) (__udivmoddi4)
c:/diasemi/smartsnippetsstudio2.0.10/gcc/7-2018-q2/bin/../lib/gcc/arm-none-eabi/7.3.1/thumb/v8-m.main/fpv5-sp/hard\libgcc.a(_dvmd_tls.o)
                              c:/diasemi/smartsnippetsstudio2.0.10/gcc/7-2018-q2/bin/../lib/gcc/arm-none-eabi/7.3.1/thumb/v8-m.main/fpv5-sp/hard\libgcc.a(_aeabi_uldivmod.o) (__aeabi_ldiv0)
c:/diasemi/smartsnippetsstudio2.0.10/gcc/7-2018-q2/bin/../lib/gcc/arm-none-eabi/7.3.1/../../../../arm-none-eabi/lib/thumb/v8-m.main/fpv5-sp/hard\libg_nano.a(lib_a-exit.o)
                              c:/diasemi/smartsnippetsstudio2.0.10/gcc/7-2018-q2/bin/../lib/gcc/arm-none-eabi/7.3.1/../../../../arm-none-eabi/lib/thumb/v8-m.main/fpv5-sp/hard/crt0.o (exit)
c:/diasemi/smartsnippetsstudio2.0.10/gcc/7-2018-q2/bin/../lib/gcc/arm-none-eabi/7.3.1/../../../../arm-none-eabi/lib/thumb/v8-m.main/fpv5-sp/hard\libg_nano.a(lib_a-fflush.o)
                              ./main.o (fflush)
c:/diasemi/smartsnippetsstudio2.0.10/gcc/7-2018-q2/bin/../lib/gcc/arm-none-eabi/7.3.1/../../../../arm-none-eabi/lib/thumb/v8-m.main/fpv5-sp/hard\libg_nano.a(lib_a-findfp.o)
                              c:/diasemi/smartsnippetsstudio2.0.10/gcc/7-2018-q2/bin/../lib/gcc/arm-none-eabi/7.3.1/../../../../arm-none-eabi/lib/thumb/v8-m.main/fpv5-sp/hard\libg_nano.a(lib_a-fflush.o) (__sinit)
c:/diasemi/smartsnippetsstudio2.0.10/gcc/7-2018-q2/bin/../lib/gcc/arm-none-eabi/7.3.1/../../../../arm-none-eabi/lib/thumb/v8-m.main/fpv5-sp/hard\libg_nano.a(lib_a-fwalk.o)
                              c:/diasemi/smartsnippetsstudio2.0.10/gcc/7-2018-q2/bin/../lib/gcc/arm-none-eabi/7.3.1/../../../../arm-none-eabi/lib/thumb/v8-m.main/fpv5-sp/hard\libg_nano.a(lib_a-findfp.o) (_fwalk)
c:/diasemi/smartsnippetsstudio2.0.10/gcc/7-2018-q2/bin/../lib/gcc/arm-none-eabi/7.3.1/../../../../arm-none-eabi/lib/thumb/v8-m.main/fpv5-sp/hard\libg_nano.a(lib_a-impure.o)
                              c:/diasemi/smartsnippetsstudio2.0.10/gcc/7-2018-q2/bin/../lib/gcc/arm-none-eabi/7.3.1/../../../../arm-none-eabi/lib/thumb/v8-m.main/fpv5-sp/hard\libg_nano.a(lib_a-exit.o) (_global_impure_ptr)
c:/diasemi/smartsnippetsstudio2.0.10/gcc/7-2018-q2/bin/../lib/gcc/arm-none-eabi/7.3.1/../../../../arm-none-eabi/lib/thumb/v8-m.main/fpv5-sp/hard\libg_nano.a(lib_a-init.o)
                              c:/diasemi/smartsnippetsstudio2.0.10/gcc/7-2018-q2/bin/../lib/gcc/arm-none-eabi/7.3.1/../../../../arm-none-eabi/lib/thumb/v8-m.main/fpv5-sp/hard/crt0.o (__libc_init_array)
c:/diasemi/smartsnippetsstudio2.0.10/gcc/7-2018-q2/bin/../lib/gcc/arm-none-eabi/7.3.1/../../../../arm-none-eabi/lib/thumb/v8-m.main/fpv5-sp/hard\libg_nano.a(lib_a-memcpy-stub.o)
                              ./sdk/sys_man/sys_trng.o (memcpy)
c:/diasemi/smartsnippetsstudio2.0.10/gcc/7-2018-q2/bin/../lib/gcc/arm-none-eabi/7.3.1/../../../../arm-none-eabi/lib/thumb/v8-m.main/fpv5-sp/hard\libg_nano.a(lib_a-memset.o)
                              c:/diasemi/smartsnippetsstudio2.0.10/gcc/7-2018-q2/bin/../lib/gcc/arm-none-eabi/7.3.1/../../../../arm-none-eabi/lib/thumb/v8-m.main/fpv5-sp/hard/crt0.o (memset)
c:/diasemi/smartsnippetsstudio2.0.10/gcc/7-2018-q2/bin/../lib/gcc/arm-none-eabi/7.3.1/../../../../arm-none-eabi/lib/thumb/v8-m.main/fpv5-sp/hard\libg_nano.a(lib_a-nano-freer.o)
                              c:/diasemi/smartsnippetsstudio2.0.10/gcc/7-2018-q2/bin/../lib/gcc/arm-none-eabi/7.3.1/../../../../arm-none-eabi/lib/thumb/v8-m.main/fpv5-sp/hard\libg_nano.a(lib_a-fflush.o) (_free_r)
c:/diasemi/smartsnippetsstudio2.0.10/gcc/7-2018-q2/bin/../lib/gcc/arm-none-eabi/7.3.1/../../../../arm-none-eabi/lib/thumb/v8-m.main/fpv5-sp/hard\libg_nano.a(lib_a-nano-mallocr.o)
                              c:/diasemi/smartsnippetsstudio2.0.10/gcc/7-2018-q2/bin/../lib/gcc/arm-none-eabi/7.3.1/../../../../arm-none-eabi/lib/thumb/v8-m.main/fpv5-sp/hard\libg_nano.a(lib_a-findfp.o) (_malloc_r)
c:/diasemi/smartsnippetsstudio2.0.10/gcc/7-2018-q2/bin/../lib/gcc/arm-none-eabi/7.3.1/../../../../arm-none-eabi/lib/thumb/v8-m.main/fpv5-sp/hard\libg_nano.a(lib_a-printf.o)
                              ./ADC_Interface/ADCAdapter.o (printf)
c:/diasemi/smartsnippetsstudio2.0.10/gcc/7-2018-q2/bin/../lib/gcc/arm-none-eabi/7.3.1/../../../../arm-none-eabi/lib/thumb/v8-m.main/fpv5-sp/hard\libg_nano.a(lib_a-sbrkr.o)
                              c:/diasemi/smartsnippetsstudio2.0.10/gcc/7-2018-q2/bin/../lib/gcc/arm-none-eabi/7.3.1/../../../../arm-none-eabi/lib/thumb/v8-m.main/fpv5-sp/hard\libg_nano.a(lib_a-nano-mallocr.o) (_sbrk_r)
c:/diasemi/smartsnippetsstudio2.0.10/gcc/7-2018-q2/bin/../lib/gcc/arm-none-eabi/7.3.1/../../../../arm-none-eabi/lib/thumb/v8-m.main/fpv5-sp/hard\libg_nano.a(lib_a-setvbuf.o)
                              ./startup/DA1469x/init_da1469x.o (setvbuf)
c:/diasemi/smartsnippetsstudio2.0.10/gcc/7-2018-q2/bin/../lib/gcc/arm-none-eabi/7.3.1/../../../../arm-none-eabi/lib/thumb/v8-m.main/fpv5-sp/hard\libg_nano.a(lib_a-stdio.o)
                              c:/diasemi/smartsnippetsstudio2.0.10/gcc/7-2018-q2/bin/../lib/gcc/arm-none-eabi/7.3.1/../../../../arm-none-eabi/lib/thumb/v8-m.main/fpv5-sp/hard\libg_nano.a(lib_a-findfp.o) (__sread)
c:/diasemi/smartsnippetsstudio2.0.10/gcc/7-2018-q2/bin/../lib/gcc/arm-none-eabi/7.3.1/../../../../arm-none-eabi/lib/thumb/v8-m.main/fpv5-sp/hard\libg_nano.a(lib_a-writer.o)
                              c:/diasemi/smartsnippetsstudio2.0.10/gcc/7-2018-q2/bin/../lib/gcc/arm-none-eabi/7.3.1/../../../../arm-none-eabi/lib/thumb/v8-m.main/fpv5-sp/hard\libg_nano.a(lib_a-stdio.o) (_write_r)
c:/diasemi/smartsnippetsstudio2.0.10/gcc/7-2018-q2/bin/../lib/gcc/arm-none-eabi/7.3.1/../../../../arm-none-eabi/lib/thumb/v8-m.main/fpv5-sp/hard\libg_nano.a(lib_a-closer.o)
                              c:/diasemi/smartsnippetsstudio2.0.10/gcc/7-2018-q2/bin/../lib/gcc/arm-none-eabi/7.3.1/../../../../arm-none-eabi/lib/thumb/v8-m.main/fpv5-sp/hard\libg_nano.a(lib_a-stdio.o) (_close_r)
c:/diasemi/smartsnippetsstudio2.0.10/gcc/7-2018-q2/bin/../lib/gcc/arm-none-eabi/7.3.1/../../../../arm-none-eabi/lib/thumb/v8-m.main/fpv5-sp/hard\libg_nano.a(lib_a-lseekr.o)
                              c:/diasemi/smartsnippetsstudio2.0.10/gcc/7-2018-q2/bin/../lib/gcc/arm-none-eabi/7.3.1/../../../../arm-none-eabi/lib/thumb/v8-m.main/fpv5-sp/hard\libg_nano.a(lib_a-stdio.o) (_lseek_r)
c:/diasemi/smartsnippetsstudio2.0.10/gcc/7-2018-q2/bin/../lib/gcc/arm-none-eabi/7.3.1/../../../../arm-none-eabi/lib/thumb/v8-m.main/fpv5-sp/hard\libg_nano.a(lib_a-makebuf.o)
                              c:/diasemi/smartsnippetsstudio2.0.10/gcc/7-2018-q2/bin/../lib/gcc/arm-none-eabi/7.3.1/../../../../arm-none-eabi/lib/thumb/v8-m.main/fpv5-sp/hard\libg_nano.a(lib_a-setvbuf.o) (__swhatbuf_r)
c:/diasemi/smartsnippetsstudio2.0.10/gcc/7-2018-q2/bin/../lib/gcc/arm-none-eabi/7.3.1/../../../../arm-none-eabi/lib/thumb/v8-m.main/fpv5-sp/hard\libg_nano.a(lib_a-malloc.o)
                              c:/diasemi/smartsnippetsstudio2.0.10/gcc/7-2018-q2/bin/../lib/gcc/arm-none-eabi/7.3.1/../../../../arm-none-eabi/lib/thumb/v8-m.main/fpv5-sp/hard\libg_nano.a(lib_a-setvbuf.o) (malloc)
c:/diasemi/smartsnippetsstudio2.0.10/gcc/7-2018-q2/bin/../lib/gcc/arm-none-eabi/7.3.1/../../../../arm-none-eabi/lib/thumb/v8-m.main/fpv5-sp/hard\libg_nano.a(lib_a-mlock.o)
                              c:/diasemi/smartsnippetsstudio2.0.10/gcc/7-2018-q2/bin/../lib/gcc/arm-none-eabi/7.3.1/../../../../arm-none-eabi/lib/thumb/v8-m.main/fpv5-sp/hard\libg_nano.a(lib_a-nano-freer.o) (__malloc_lock)
c:/diasemi/smartsnippetsstudio2.0.10/gcc/7-2018-q2/bin/../lib/gcc/arm-none-eabi/7.3.1/../../../../arm-none-eabi/lib/thumb/v8-m.main/fpv5-sp/hard\libg_nano.a(lib_a-nano-vfprintf.o)
                              c:/diasemi/smartsnippetsstudio2.0.10/gcc/7-2018-q2/bin/../lib/gcc/arm-none-eabi/7.3.1/../../../../arm-none-eabi/lib/thumb/v8-m.main/fpv5-sp/hard\libg_nano.a(lib_a-printf.o) (_vfprintf_r)
c:/diasemi/smartsnippetsstudio2.0.10/gcc/7-2018-q2/bin/../lib/gcc/arm-none-eabi/7.3.1/../../../../arm-none-eabi/lib/thumb/v8-m.main/fpv5-sp/hard\libg_nano.a(lib_a-nano-vfprintf_i.o)
                              c:/diasemi/smartsnippetsstudio2.0.10/gcc/7-2018-q2/bin/../lib/gcc/arm-none-eabi/7.3.1/../../../../arm-none-eabi/lib/thumb/v8-m.main/fpv5-sp/hard\libg_nano.a(lib_a-nano-vfprintf.o) (_printf_i)
c:/diasemi/smartsnippetsstudio2.0.10/gcc/7-2018-q2/bin/../lib/gcc/arm-none-eabi/7.3.1/../../../../arm-none-eabi/lib/thumb/v8-m.main/fpv5-sp/hard\libg_nano.a(lib_a-readr.o)
                              c:/diasemi/smartsnippetsstudio2.0.10/gcc/7-2018-q2/bin/../lib/gcc/arm-none-eabi/7.3.1/../../../../arm-none-eabi/lib/thumb/v8-m.main/fpv5-sp/hard\libg_nano.a(lib_a-stdio.o) (_read_r)
c:/diasemi/smartsnippetsstudio2.0.10/gcc/7-2018-q2/bin/../lib/gcc/arm-none-eabi/7.3.1/../../../../arm-none-eabi/lib/thumb/v8-m.main/fpv5-sp/hard\libg_nano.a(lib_a-reent.o)
                              c:/diasemi/smartsnippetsstudio2.0.10/gcc/7-2018-q2/bin/../lib/gcc/arm-none-eabi/7.3.1/../../../../arm-none-eabi/lib/thumb/v8-m.main/fpv5-sp/hard\libg_nano.a(lib_a-sbrkr.o) (errno)
c:/diasemi/smartsnippetsstudio2.0.10/gcc/7-2018-q2/bin/../lib/gcc/arm-none-eabi/7.3.1/../../../../arm-none-eabi/lib/thumb/v8-m.main/fpv5-sp/hard\libg_nano.a(lib_a-wbuf.o)
                              c:/diasemi/smartsnippetsstudio2.0.10/gcc/7-2018-q2/bin/../lib/gcc/arm-none-eabi/7.3.1/../../../../arm-none-eabi/lib/thumb/v8-m.main/fpv5-sp/hard\libg_nano.a(lib_a-nano-vfprintf.o) (__swbuf_r)
c:/diasemi/smartsnippetsstudio2.0.10/gcc/7-2018-q2/bin/../lib/gcc/arm-none-eabi/7.3.1/../../../../arm-none-eabi/lib/thumb/v8-m.main/fpv5-sp/hard\libg_nano.a(lib_a-wsetup.o)
                              c:/diasemi/smartsnippetsstudio2.0.10/gcc/7-2018-q2/bin/../lib/gcc/arm-none-eabi/7.3.1/../../../../arm-none-eabi/lib/thumb/v8-m.main/fpv5-sp/hard\libg_nano.a(lib_a-nano-vfprintf.o) (__swsetup_r)
c:/diasemi/smartsnippetsstudio2.0.10/gcc/7-2018-q2/bin/../lib/gcc/arm-none-eabi/7.3.1/../../../../arm-none-eabi/lib/thumb/v8-m.main/fpv5-sp/hard\libg_nano.a(lib_a-fstatr.o)
                              c:/diasemi/smartsnippetsstudio2.0.10/gcc/7-2018-q2/bin/../lib/gcc/arm-none-eabi/7.3.1/../../../../arm-none-eabi/lib/thumb/v8-m.main/fpv5-sp/hard\libg_nano.a(lib_a-makebuf.o) (_fstat_r)
c:/diasemi/smartsnippetsstudio2.0.10/gcc/7-2018-q2/bin/../lib/gcc/arm-none-eabi/7.3.1/../../../../arm-none-eabi/lib/thumb/v8-m.main/fpv5-sp/hard\libg_nano.a(lib_a-fvwrite.o)
                              c:/diasemi/smartsnippetsstudio2.0.10/gcc/7-2018-q2/bin/../lib/gcc/arm-none-eabi/7.3.1/../../../../arm-none-eabi/lib/thumb/v8-m.main/fpv5-sp/hard\libg_nano.a(lib_a-nano-vfprintf.o) (__sfvwrite_r)
c:/diasemi/smartsnippetsstudio2.0.10/gcc/7-2018-q2/bin/../lib/gcc/arm-none-eabi/7.3.1/../../../../arm-none-eabi/lib/thumb/v8-m.main/fpv5-sp/hard\libg_nano.a(lib_a-isattyr.o)
                              c:/diasemi/smartsnippetsstudio2.0.10/gcc/7-2018-q2/bin/../lib/gcc/arm-none-eabi/7.3.1/../../../../arm-none-eabi/lib/thumb/v8-m.main/fpv5-sp/hard\libg_nano.a(lib_a-makebuf.o) (_isatty_r)
c:/diasemi/smartsnippetsstudio2.0.10/gcc/7-2018-q2/bin/../lib/gcc/arm-none-eabi/7.3.1/../../../../arm-none-eabi/lib/thumb/v8-m.main/fpv5-sp/hard\libg_nano.a(lib_a-memchr-stub.o)
                              c:/diasemi/smartsnippetsstudio2.0.10/gcc/7-2018-q2/bin/../lib/gcc/arm-none-eabi/7.3.1/../../../../arm-none-eabi/lib/thumb/v8-m.main/fpv5-sp/hard\libg_nano.a(lib_a-nano-vfprintf.o) (memchr)
c:/diasemi/smartsnippetsstudio2.0.10/gcc/7-2018-q2/bin/../lib/gcc/arm-none-eabi/7.3.1/../../../../arm-none-eabi/lib/thumb/v8-m.main/fpv5-sp/hard\libg_nano.a(lib_a-memmove.o)
                              c:/diasemi/smartsnippetsstudio2.0.10/gcc/7-2018-q2/bin/../lib/gcc/arm-none-eabi/7.3.1/../../../../arm-none-eabi/lib/thumb/v8-m.main/fpv5-sp/hard\libg_nano.a(lib_a-fvwrite.o) (memmove)
c:/diasemi/smartsnippetsstudio2.0.10/gcc/7-2018-q2/bin/../lib/gcc/arm-none-eabi/7.3.1/../../../../arm-none-eabi/lib/thumb/v8-m.main/fpv5-sp/hard\libg_nano.a(lib_a-nano-reallocr.o)
                              c:/diasemi/smartsnippetsstudio2.0.10/gcc/7-2018-q2/bin/../lib/gcc/arm-none-eabi/7.3.1/../../../../arm-none-eabi/lib/thumb/v8-m.main/fpv5-sp/hard\libg_nano.a(lib_a-fvwrite.o) (_realloc_r)
c:/diasemi/smartsnippetsstudio2.0.10/gcc/7-2018-q2/bin/../lib/gcc/arm-none-eabi/7.3.1/../../../../arm-none-eabi/lib/thumb/v8-m.main/fpv5-sp/hard\libg_nano.a(lib_a-nano-msizer.o)
                              c:/diasemi/smartsnippetsstudio2.0.10/gcc/7-2018-q2/bin/../lib/gcc/arm-none-eabi/7.3.1/../../../../arm-none-eabi/lib/thumb/v8-m.main/fpv5-sp/hard\libg_nano.a(lib_a-nano-reallocr.o) (_malloc_usable_size_r)
c:/diasemi/smartsnippetsstudio2.0.10/gcc/7-2018-q2/bin/../lib/gcc/arm-none-eabi/7.3.1/../../../../arm-none-eabi/lib/thumb/v8-m.main/fpv5-sp/hard\libnosys.a(close.o)
                              c:/diasemi/smartsnippetsstudio2.0.10/gcc/7-2018-q2/bin/../lib/gcc/arm-none-eabi/7.3.1/../../../../arm-none-eabi/lib/thumb/v8-m.main/fpv5-sp/hard\libg_nano.a(lib_a-closer.o) (_close)
c:/diasemi/smartsnippetsstudio2.0.10/gcc/7-2018-q2/bin/../lib/gcc/arm-none-eabi/7.3.1/../../../../arm-none-eabi/lib/thumb/v8-m.main/fpv5-sp/hard\libnosys.a(fstat.o)
                              c:/diasemi/smartsnippetsstudio2.0.10/gcc/7-2018-q2/bin/../lib/gcc/arm-none-eabi/7.3.1/../../../../arm-none-eabi/lib/thumb/v8-m.main/fpv5-sp/hard\libg_nano.a(lib_a-fstatr.o) (_fstat)
c:/diasemi/smartsnippetsstudio2.0.10/gcc/7-2018-q2/bin/../lib/gcc/arm-none-eabi/7.3.1/../../../../arm-none-eabi/lib/thumb/v8-m.main/fpv5-sp/hard\libnosys.a(isatty.o)
                              c:/diasemi/smartsnippetsstudio2.0.10/gcc/7-2018-q2/bin/../lib/gcc/arm-none-eabi/7.3.1/../../../../arm-none-eabi/lib/thumb/v8-m.main/fpv5-sp/hard\libg_nano.a(lib_a-isattyr.o) (_isatty)
c:/diasemi/smartsnippetsstudio2.0.10/gcc/7-2018-q2/bin/../lib/gcc/arm-none-eabi/7.3.1/../../../../arm-none-eabi/lib/thumb/v8-m.main/fpv5-sp/hard\libnosys.a(lseek.o)
                              c:/diasemi/smartsnippetsstudio2.0.10/gcc/7-2018-q2/bin/../lib/gcc/arm-none-eabi/7.3.1/../../../../arm-none-eabi/lib/thumb/v8-m.main/fpv5-sp/hard\libg_nano.a(lib_a-lseekr.o) (_lseek)
c:/diasemi/smartsnippetsstudio2.0.10/gcc/7-2018-q2/bin/../lib/gcc/arm-none-eabi/7.3.1/../../../../arm-none-eabi/lib/thumb/v8-m.main/fpv5-sp/hard\libnosys.a(_exit.o)
                              c:/diasemi/smartsnippetsstudio2.0.10/gcc/7-2018-q2/bin/../lib/gcc/arm-none-eabi/7.3.1/../../../../arm-none-eabi/lib/thumb/v8-m.main/fpv5-sp/hard\libg_nano.a(lib_a-exit.o) (_exit)

Allocating common symbols
Common symbol       size              file

errno               0x4               c:/diasemi/smartsnippetsstudio2.0.10/gcc/7-2018-q2/bin/../lib/gcc/arm-none-eabi/7.3.1/../../../../arm-none-eabi/lib/thumb/v8-m.main/fpv5-sp/hard\libg_nano.a(lib_a-reent.o)
TxBufferSent        0x3               ./UART/UARTAdapter.o
Countdown_RxReady   0xc               ./UART/UARTAdapter.o
RxExpected          0xc               ./UART/UARTAdapter.o
SD_Loacl_callback   0x4               ./ADC_Interface/ADCAdapter.o
Int_Status4         0x1               ./I2C_Interface/Accelerometer.o
Local_ADC_Config    0x48              ./main.o
GP_Loacl_callback   0x4               ./ADC_Interface/ADCAdapter.o
RxReady             0x3               ./UART/UARTAdapter.o
RxBuffer            0x2b2             ./UART/UARTAdapter.o
Int_Status1         0x1               ./I2C_Interface/Accelerometer.o
Int_Status3         0x1               ./I2C_Interface/Accelerometer.o
TxBuffer            0x2b2             ./UART/UARTAdapter.o
Local_GP_ADC_Config
                    0x22              ./ADC_Interface/ADCAdapter.o
InterByteRxTimeout  0xc               ./UART/UARTAdapter.o
Int_Status2         0x1               ./I2C_Interface/Accelerometer.o
OffsetToLengthByte  0xc               ./UART/UARTAdapter.o
RxBufferCounter     0x3               ./UART/UARTAdapter.o
TxBufferCounter     0x3               ./UART/UARTAdapter.o
Local_SD_ADC_Config
                    0x24              ./ADC_Interface/ADCAdapter.o

Discarded input sections

 .text          0x00000000        0x0 c:/diasemi/smartsnippetsstudio2.0.10/gcc/7-2018-q2/bin/../lib/gcc/arm-none-eabi/7.3.1/thumb/v8-m.main/fpv5-sp/hard/crti.o
 .data          0x00000000        0x0 c:/diasemi/smartsnippetsstudio2.0.10/gcc/7-2018-q2/bin/../lib/gcc/arm-none-eabi/7.3.1/thumb/v8-m.main/fpv5-sp/hard/crti.o
 .bss           0x00000000        0x0 c:/diasemi/smartsnippetsstudio2.0.10/gcc/7-2018-q2/bin/../lib/gcc/arm-none-eabi/7.3.1/thumb/v8-m.main/fpv5-sp/hard/crti.o
 .data          0x00000000        0x4 c:/diasemi/smartsnippetsstudio2.0.10/gcc/7-2018-q2/bin/../lib/gcc/arm-none-eabi/7.3.1/thumb/v8-m.main/fpv5-sp/hard/crtbegin.o
 .data          0x00000000        0x0 c:/diasemi/smartsnippetsstudio2.0.10/gcc/7-2018-q2/bin/../lib/gcc/arm-none-eabi/7.3.1/../../../../arm-none-eabi/lib/thumb/v8-m.main/fpv5-sp/hard/crt0.o
 .bss           0x00000000        0x0 c:/diasemi/smartsnippetsstudio2.0.10/gcc/7-2018-q2/bin/../lib/gcc/arm-none-eabi/7.3.1/../../../../arm-none-eabi/lib/thumb/v8-m.main/fpv5-sp/hard/crt0.o
 .ARM.extab     0x00000000        0x0 c:/diasemi/smartsnippetsstudio2.0.10/gcc/7-2018-q2/bin/../lib/gcc/arm-none-eabi/7.3.1/../../../../arm-none-eabi/lib/thumb/v8-m.main/fpv5-sp/hard/crt0.o
 .data          0x00000000        0x0 ./startup/DA1469x/GCC/deepsleep.o
 .bss           0x00000000        0x0 ./startup/DA1469x/GCC/deepsleep.o
 .data          0x00000000        0x0 ./startup/DA1469x/GCC/exception_handlers.o
 .bss           0x00000000        0x0 ./startup/DA1469x/GCC/exception_handlers.o
 .data          0x00000000        0x0 ./startup/DA1469x/GCC/startup_da1469x.o
 .bss           0x00000000        0x0 ./startup/DA1469x/GCC/startup_da1469x.o
 .text          0x00000000        0x0 ./startup/DA1469x/GCC/vector_table_da1469x.o
 .data          0x00000000        0x0 ./startup/DA1469x/GCC/vector_table_da1469x.o
 .bss           0x00000000        0x0 ./startup/DA1469x/GCC/vector_table_da1469x.o
 .patch_table   0x00000000       0x40 ./startup/DA1469x/GCC/vector_table_da1469x.o
 .default_patch_code_handler_section
Memory Configuration

Name             Origin             Length             Attributes
RAM              0x00000000         0x00080000         xr
*default*        0x00000000         0xffffffff

Linker script and memory map

LOAD c:/diasemi/smartsnippetsstudio2.0.10/gcc/7-2018-q2/bin/../lib/gcc/arm-none-eabi/7.3.1/thumb/v8-m.main/fpv5-sp/hard/crti.o
LOAD c:/diasemi/smartsnippetsstudio2.0.10/gcc/7-2018-q2/bin/../lib/gcc/arm-none-eabi/7.3.1/thumb/v8-m.main/fpv5-sp/hard/crtbegin.o
LOAD c:/diasemi/smartsnippetsstudio2.0.10/gcc/7-2018-q2/bin/../lib/gcc/arm-none-eabi/7.3.1/../../../../arm-none-eabi/lib/thumb/v8-m.main/fpv5-sp/hard/crt0.o
LOAD ./startup/DA1469x/GCC/deepsleep.o
LOAD ./startup/DA1469x/GCC/exception_handlers.o
LOAD ./startup/DA1469x/GCC/startup_da1469x.o
LOAD ./startup/DA1469x/GCC/vector_table_da1469x.o
LOAD ./startup/DA1469x/init_da1469x.o
LOAD ./startup/DA1469x/system_da1469x.o
LOAD ./startup/config.o
LOAD ./sdk/util/src/sdk_list.o
LOAD ./sdk/util/src/sdk_queue.o
LOAD ./sdk/util/crc/sdk_crc16.o
LOAD ./sdk/sys_man/sys_adc.o
LOAD ./sdk/sys_man/sys_bsr.o
LOAD ./sdk/sys_man/sys_charger_da1469x.o
LOAD ./sdk/sys_man/sys_clock_mgr_da1469x.o
LOAD ./sdk/sys_man/sys_power_mgr_da1469x.o
LOAD ./sdk/sys_man/sys_rcx_calibrate.o
LOAD ./sdk/sys_man/sys_tcs_da1469x.o
LOAD ./sdk/sys_man/sys_timer.o
LOAD ./sdk/sys_man/sys_trng.o
LOAD ./sdk/sys_man/sys_usb_da1468x.o
LOAD ./sdk/sys_man/sys_usb_da1469x.o
LOAD ./sdk/sys_man/sys_watchdog.o
LOAD ./sdk/snc/src/SeNIS.o
LOAD ./sdk/snc/src/snc_debug.o
LOAD ./sdk/snc/src/snc_defs.o
LOAD ./sdk/snc/src/snc_emu.o
LOAD ./sdk/snc/src/snc_hw_gpadc.o
LOAD ./sdk/snc/src/snc_hw_gpio.o
LOAD ./sdk/snc/src/snc_hw_i2c.o
LOAD ./sdk/snc/src/snc_hw_spi.o
LOAD ./sdk/snc/src/snc_hw_sys.o
LOAD ./sdk/snc/src/snc_hw_uart.o
LOAD ./sdk/snc/src/snc_main.o
LOAD ./sdk/snc/src/snc_queues.o
LOAD ./sdk/peripherals/src/hw_aes_hash.o
LOAD ./sdk/peripherals/src/hw_bod_da1469x.o
LOAD ./sdk/peripherals/src/hw_cache.o
LOAD ./sdk/peripherals/src/hw_charger_da1469x.o
LOAD ./sdk/peripherals/src/hw_clk_da1469x.o
LOAD ./sdk/peripherals/src/hw_cpm_da1469x.o
LOAD ./sdk/peripherals/src/hw_crypto.o
LOAD ./sdk/peripherals/src/hw_dma.o
LOAD ./sdk/peripherals/src/hw_gpadc.o
LOAD ./sdk/peripherals/src/hw_gpio.o
LOAD ./sdk/peripherals/src/hw_haptic.o
LOAD ./sdk/peripherals/src/hw_hard_fault.o
LOAD ./sdk/peripherals/src/hw_i2c.o
LOAD ./sdk/peripherals/src/hw_iso7816.o
LOAD ./sdk/peripherals/src/hw_lcdc.o
LOAD ./sdk/peripherals/src/hw_memctrl.o
LOAD ./sdk/peripherals/src/hw_otpc_da1469x.o
LOAD ./sdk/peripherals/src/hw_pdc.o
LOAD ./sdk/peripherals/src/hw_pmu_da1469x.o
LOAD ./sdk/peripherals/src/hw_qspi.o
LOAD ./sdk/peripherals/src/hw_rtc.o
LOAD ./sdk/peripherals/src/hw_sdadc.o
LOAD ./sdk/peripherals/src/hw_smotor.o
LOAD ./sdk/peripherals/src/hw_snc.o
LOAD ./sdk/peripherals/src/hw_spi.o
LOAD ./sdk/peripherals/src/hw_sys_da1469x.o
LOAD ./sdk/peripherals/src/hw_timer.o
LOAD ./sdk/peripherals/src/hw_trng.o
LOAD ./sdk/peripherals/src/hw_uart.o
LOAD ./sdk/peripherals/src/hw_usb_da1469x.o
LOAD ./sdk/peripherals/src/hw_watchdog.o
LOAD ./sdk/peripherals/src/hw_wkup_da1469x.o
LOAD ./sdk/osal/msg_queues.o
LOAD ./sdk/osal/resmgmt.o
LOAD ./sdk/osal/usb_osal_wrapper.o
LOAD ./sdk/memory/src/qspi_automode.o
LOAD ./sdk/adapters/src/ad_crypto.o
LOAD ./sdk/adapters/src/ad_flash.o
LOAD ./sdk/adapters/src/ad_gpadc.o
LOAD ./sdk/adapters/src/ad_i2c.o
LOAD ./sdk/adapters/src/ad_iso7816.o
LOAD ./sdk/adapters/src/ad_keyboard_scanner.o
LOAD ./sdk/adapters/src/ad_lcdc.o
LOAD ./sdk/adapters/src/ad_nvms.o
LOAD ./sdk/adapters/src/ad_nvms_direct.o
LOAD ./sdk/adapters/src/ad_nvms_ves.o
LOAD ./sdk/adapters/src/ad_nvparam.o
LOAD ./sdk/adapters/src/ad_pmu.o
LOAD ./sdk/adapters/src/ad_sdadc.o
LOAD ./sdk/adapters/src/ad_snc.o
LOAD ./sdk/adapters/src/ad_spi.o
LOAD ./sdk/adapters/src/ad_template.o
LOAD ./sdk/adapters/src/ad_uart.o
LOAD ./sdk/adapters/src/sys_platform_devices_internal.o
LOAD ./sdk/FreeRTOS/portable/MemMang/heap_4.o
LOAD ./sdk/FreeRTOS/portable/GCC/DA1469x/port.o
LOAD ./sdk/FreeRTOS/portable/Common/mpu_wrappers.o
LOAD ./sdk/FreeRTOS/croutine.o
LOAD ./sdk/FreeRTOS/event_groups.o
LOAD ./sdk/FreeRTOS/list.o
LOAD ./sdk/FreeRTOS/queue.o
LOAD ./sdk/FreeRTOS/stream_buffer.o
LOAD ./sdk/FreeRTOS/tasks.o
LOAD ./sdk/FreeRTOS/timers.o
LOAD ./UART/UARTAdapter.o
LOAD ./SPI_Interface/Accelerometer.o
LOAD ./SPI_Interface/SPIAdapter.o
LOAD ./I2C_Interface/Accelerometer.o
LOAD ./I2C_Interface/I2CAdapter.o
LOAD ./I2C_Interface/Pressure.o
LOAD ./ADC_Interface/ADCAdapter.o
LOAD ./ADC_Interface/GPADCAdapter.o
LOAD ./ADC_Interface/SDADCAdapter.o
LOAD ./main.o
START GROUP
LOAD c:/diasemi/smartsnippetsstudio2.0.10/gcc/7-2018-q2/bin/../lib/gcc/arm-none-eabi/7.3.1/thumb/v8-m.main/fpv5-sp/hard\libgcc.a
LOAD c:/diasemi/smartsnippetsstudio2.0.10/gcc/7-2018-q2/bin/../lib/gcc/arm-none-eabi/7.3.1/../../../../arm-none-eabi/lib/thumb/v8-m.main/fpv5-sp/hard\libg_nano.a
LOAD c:/diasemi/smartsnippetsstudio2.0.10/gcc/7-2018-q2/bin/../lib/gcc/arm-none-eabi/7.3.1/../../../../arm-none-eabi/lib/thumb/v8-m.main/fpv5-sp/hard\libc_nano.a
END GROUP
START GROUP
LOAD c:/diasemi/smartsnippetsstudio2.0.10/gcc/7-2018-q2/bin/../lib/gcc/arm-none-eabi/7.3.1/thumb/v8-m.main/fpv5-sp/hard\libgcc.a
LOAD c:/diasemi/smartsnippetsstudio2.0.10/gcc/7-2018-q2/bin/../lib/gcc/arm-none-eabi/7.3.1/../../../../arm-none-eabi/lib/thumb/v8-m.main/fpv5-sp/hard\libc_nano.a
LOAD c:/diasemi/smartsnippetsstudio2.0.10/gcc/7-2018-q2/bin/../lib/gcc/arm-none-eabi/7.3.1/../../../../arm-none-eabi/lib/thumb/v8-m.main/fpv5-sp/hard\libnosys.a
END GROUP
START GROUP
LOAD c:/diasemi/smartsnippetsstudio2.0.10/gcc/7-2018-q2/bin/../lib/gcc/arm-none-eabi/7.3.1/thumb/v8-m.main/fpv5-sp/hard\libgcc.a
LOAD c:/diasemi/smartsnippetsstudio2.0.10/gcc/7-2018-q2/bin/../lib/gcc/arm-none-eabi/7.3.1/../../../../arm-none-eabi/lib/thumb/v8-m.main/fpv5-sp/hard\libc_nano.a
LOAD c:/diasemi/smartsnippetsstudio2.0.10/gcc/7-2018-q2/bin/../lib/gcc/arm-none-eabi/7.3.1/../../../../arm-none-eabi/lib/thumb/v8-m.main/fpv5-sp/hard\libnosys.a
END GROUP
LOAD c:/diasemi/smartsnippetsstudio2.0.10/gcc/7-2018-q2/bin/../lib/gcc/arm-none-eabi/7.3.1/thumb/v8-m.main/fpv5-sp/hard/crtend.o
LOAD c:/diasemi/smartsnippetsstudio2.0.10/gcc/7-2018-q2/bin/../lib/gcc/arm-none-eabi/7.3.1/thumb/v8-m.main/fpv5-sp/hard/crtn.o
START GROUP
LOAD c:/diasemi/smartsnippetsstudio2.0.10/gcc/7-2018-q2/bin/../lib/gcc/arm-none-eabi/7.3.1/thumb/v8-m.main/fpv5-sp/hard\libgcc.a
LOAD c:/diasemi/smartsnippetsstudio2.0.10/gcc/7-2018-q2/bin/../lib/gcc/arm-none-eabi/7.3.1/../../../../arm-none-eabi/lib/thumb/v8-m.main/fpv5-sp/hard\libc.a
LOAD c:/diasemi/smartsnippetsstudio2.0.10/gcc/7-2018-q2/bin/../lib/gcc/arm-none-eabi/7.3.1/../../../../arm-none-eabi/lib/thumb/v8-m.main/fpv5-sp/hard\libm.a
LOAD c:/diasemi/smartsnippetsstudio2.0.10/gcc/7-2018-q2/bin/../lib/gcc/arm-none-eabi/7.3.1/../../../../arm-none-eabi/lib/thumb/v8-m.main/fpv5-sp/hard\libnosys.a
END GROUP

.init_text      0x00000000      0x55c
 *(.isr_vector)
 .isr_vector    0x00000000       0xe0 ./startup/DA1469x/GCC/vector_table_da1469x.o
                0x00000000                __isr_vector
                0x000000e0                __isr_vector_end
                0x00000200                . = 0x200
 *fill*         0x000000e0      0x120 
                0x00000200                __Vectors_End = .
                0x00000200                __Vectors_Size = (__Vectors_End - __isr_vector)
 *(text_reset*)
 text_reset     0x00000200      0x198 ./startup/DA1469x/GCC/exception_handlers.o
                0x00000200                Reset_Handler
                0x000002f8                NMI_Handler
                0x00000310                HardFault_Handler
 text_reset     0x00000398        0x0 ./startup/DA1469x/GCC/startup_da1469x.o
 text_reset     0x00000398      0x1c4 ./startup/DA1469x/init_da1469x.o
                0x00000398                SystemInitPre

.text           0x00000560     0xbe10
 *(EXCLUDE_FILE(*libgcc.a:_clzsi2.o *libgcc.a:_clzdi2.o *libgcc.a:_udivdi3.o *libgcc.a:bpabi.o *libgcc.a:_dvmd_tls.o *libgcc.a:_muldi3.o *libgcc.a:_aeabi_uldivmod.o *libnosys.a:sbrk.o) .text*)
 .text          0x00000560       0x40 c:/diasemi/smartsnippetsstudio2.0.10/gcc/7-2018-q2/bin/../lib/gcc/arm-none-eabi/7.3.1/thumb/v8-m.main/fpv5-sp/hard/crtbegin.o
 .text          0x000005a0       0x74 c:/diasemi/smartsnippetsstudio2.0.10/gcc/7-2018-q2/bin/../lib/gcc/arm-none-eabi/7.3.1/../../../../arm-none-eabi/lib/thumb/v8-m.main/fpv5-sp/hard/crt0.o
                0x000005a0                _start
                0x000005a0                _mainCRTStartup
 .text          0x00000614      0x148 ./startup/DA1469x/GCC/deepsleep.o
                0x00000614                goto_deepsleep
                0x000006c8                wakeup_from_deepsleep
 .text          0x0000075c       0x1c ./startup/DA1469x/GCC/exception_handlers.o
                0x0000075c                Wakeup_Reset_Handler
 .text          0x00000778       0x14 ./startup/DA1469x/GCC/startup_da1469x.o
                0x00000778                RESERVED43_Handler
                0x00000778                SysTick_Handler
                0x00000778                RESERVED46_Handler
                0x00000778                DCDC_Handler
                0x00000778                LCD_Controller_Handler
                0x00000778                CMAC2SYS_Handler
                0x00000778                PDC_Handler
                0x00000778                RESERVED45_Handler
                0x00000778                SRC_Out_Handler
                0x00000778                RESERVED42_Handler
                0x00000778                RTC_Event_Handler
                0x00000778                Sensor_Node_Handler
                0x00000778                SRC_In_Handler
                0x00000778                Charger_State_Handler
                0x00000778                Crypto_Handler
                0x00000778                LRA_Handler
                0x00000778                PCM_Handler
                0x00000778                SecureFault_Handler
                0x00000778                RFDIAG_Handler
                0x00000778                Default_Handler
                0x00000778                Motor_Controller_Handler
                0x00000778                RESERVED40_Handler
                0x00000778                RESERVED41_Handler
                0x00000778                RESERVED44_Handler
                0x00000778                RESERVED47_Handler
                0x00000778                Charger_Error_Handler
 .text.is_compatible_chip_version
                0x0000078c       0x20 ./startup/DA1469x/init_da1469x.o
 .text.configure_pdc
                0x000007ac       0xc8 ./startup/DA1469x/init_da1469x.o
 .text._sbrk    0x00000874       0x34 ./startup/DA1469x/init_da1469x.o
                0x00000874                _sbrk
 .text.set_interrupt_priorities
                0x000008a8       0x94 ./startup/DA1469x/init_da1469x.o
                0x000008a8                set_interrupt_priorities
 .text.da1469x_SystemInit
                0x0000093c      0x210 ./startup/DA1469x/init_da1469x.o
                0x0000093c                da1469x_SystemInit
 .text.black_orca_phy_addr
                0x00000b4c       0xa0 ./startup/DA1469x/init_da1469x.o
                0x00000b4c                black_orca_phy_addr
 .text.SystemInit
                0x00000bec       0x18 ./startup/DA1469x/system_da1469x.o
                0x00000bec                SystemInit
 .text.retarget_reinit
                0x00000c04       0x30 ./startup/config.o
 .text.retarget_init
                0x00000c34        0x2 ./startup/config.o
                0x00000c34                retarget_init
 *fill*         0x00000c36        0x2 
 .text._write   0x00000c38       0x80 ./startup/config.o
                0x00000c38                _write
 .text._read    0x00000cb8       0x90 ./startup/config.o
                0x00000cb8                _read
 .text.sys_sw_bsr_init
                0x00000d48       0x14 ./sdk/sys_man/sys_bsr.o
                0x00000d48                sys_sw_bsr_init
 .text.get_clk_freq
                0x00000d5c       0x10 ./sdk/sys_man/sys_clock_mgr_da1469x.o
 .text.apb_set_clock_divider
                0x00000d6c       0x90 ./sdk/sys_man/sys_clock_mgr_da1469x.o
 .text.find_pdc_entry
                0x00000dfc       0x3c ./sdk/sys_man/sys_clock_mgr_da1469x.o
 .text.get_pdc_xtal32m_entry
                0x00000e38       0x26 ./sdk/sys_man/sys_clock_mgr_da1469x.o
 *fill*         0x00000e5e        0x2 
 .text.hw_clk_set_sysclk
                0x00000e60      0x15c ./sdk/sys_man/sys_clock_mgr_da1469x.o
 .text.hw_clk_disable_sysclk
                0x00000fbc       0x90 ./sdk/sys_man/sys_clock_mgr_da1469x.o
 .text.adjust_otp_access_timings
                0x0000104c       0x30 ./sdk/sys_man/sys_clock_mgr_da1469x.o
 .text.switch_to_xtal32m
                0x0000107c       0x90 ./sdk/sys_man/sys_clock_mgr_da1469x.o
 .text.switch_to_pll
                0x0000110c       0x78 ./sdk/sys_man/sys_clock_mgr_da1469x.o
 .text.ahb_set_clock_divider
                0x00001184      0x180 ./sdk/sys_man/sys_clock_mgr_da1469x.o
 .text.xtal32m_is_ready
                0x00001304       0x3c ./sdk/sys_man/sys_clock_mgr_da1469x.o
 .text.pll_is_locked
                0x00001340       0x20 ./sdk/sys_man/sys_clock_mgr_da1469x.o
 .text.lp_clk_timer_start
                0x00001360       0x40 ./sdk/sys_man/sys_clock_mgr_da1469x.o
 .text.switch_to_rc32
                0x000013a0       0x34 ./sdk/sys_man/sys_clock_mgr_da1469x.o
 .text.vLPTimerCallback
                0x000013d4       0xd8 ./sdk/sys_man/sys_clock_mgr_da1469x.o
 .text.enable_pll
                0x000014ac       0xc4 ./sdk/sys_man/sys_clock_mgr_da1469x.o
 .text.disable_pll
                0x00001570       0x78 ./sdk/sys_man/sys_clock_mgr_da1469x.o
 .text.apply_lowered_clocks
                0x000015e8      0x1c0 ./sdk/sys_man/sys_clock_mgr_da1469x.o
 .text.cm_get_xtalm_settling_lpcycles
                0x000017a8       0x3c ./sdk/sys_man/sys_clock_mgr_da1469x.o
                0x000017a8                cm_get_xtalm_settling_lpcycles
 .text.cm_enable_xtalm
                0x000017e4      0x118 ./sdk/sys_man/sys_clock_mgr_da1469x.o
                0x000017e4                cm_enable_xtalm
 .text.cm_enable_xtalm_if_required
                0x000018fc       0x14 ./sdk/sys_man/sys_clock_mgr_da1469x.o
                0x000018fc                cm_enable_xtalm_if_required
 .text.cm_clk_init_low_level_internal
                0x00001910       0xe0 ./sdk/sys_man/sys_clock_mgr_da1469x.o
                0x00001910                cm_clk_init_low_level_internal
 .text.cm_apb_set_clock_divider
                0x000019f0       0x40 ./sdk/sys_man/sys_clock_mgr_da1469x.o
                0x000019f0                cm_apb_set_clock_divider
 .text.cm_ahb_set_clock_divider
                0x00001a30       0x44 ./sdk/sys_man/sys_clock_mgr_da1469x.o
                0x00001a30                cm_ahb_set_clock_divider
 .text.cm_sys_clk_get_fromISR
                0x00001a74       0x60 ./sdk/sys_man/sys_clock_mgr_da1469x.o
                0x00001a74                cm_sys_clk_get_fromISR
 .text.cm_apb_get_clock_divider
                0x00001ad4       0x44 ./sdk/sys_man/sys_clock_mgr_da1469x.o
                0x00001ad4                cm_apb_get_clock_divider
 .text.cm_ahb_get_clock_divider
                0x00001b18       0x98 ./sdk/sys_man/sys_clock_mgr_da1469x.o
                0x00001b18                cm_ahb_get_clock_divider
 .text.cm_cpu_clk_get_fromISR
                0x00001bb0       0x18 ./sdk/sys_man/sys_clock_mgr_da1469x.o
                0x00001bb0                cm_cpu_clk_get_fromISR
 .text.PLL_Lock_Handler
                0x00001bc8       0x70 ./sdk/sys_man/sys_clock_mgr_da1469x.o
                0x00001bc8                PLL_Lock_Handler
 .text.cm_lp_clk_init
                0x00001c38       0x7c ./sdk/sys_man/sys_clock_mgr_da1469x.o
                0x00001c38                cm_lp_clk_init
 .text.cm_lp_clk_is_avail
                0x00001cb4       0x2c ./sdk/sys_man/sys_clock_mgr_da1469x.o
                0x00001cb4                cm_lp_clk_is_avail
 .text.cm_lower_all_clocks
                0x00001ce0       0x44 ./sdk/sys_man/sys_clock_mgr_da1469x.o
                0x00001ce0                cm_lower_all_clocks
 .text.cm_restore_all_clocks
                0x00001d24       0xe4 ./sdk/sys_man/sys_clock_mgr_da1469x.o
                0x00001d24                cm_restore_all_clocks
 .text.cm_poll_xtalm_ready
                0x00001e08        0xc ./sdk/sys_man/sys_clock_mgr_da1469x.o
                0x00001e08                cm_poll_xtalm_ready
 .text.cm_sys_clk_init
                0x00001e14      0x1bc ./sdk/sys_man/sys_clock_mgr_da1469x.o
                0x00001e14                cm_sys_clk_init
 .text.cm_halt_until_xtalm_ready
                0x00001fd0      0x12c ./sdk/sys_man/sys_clock_mgr_da1469x.o
                0x00001fd0                cm_halt_until_xtalm_ready
 .text.switch_to_xtal_safe
                0x000020fc       0x34 ./sdk/sys_man/sys_clock_mgr_da1469x.o
 .text.cm_register_xtal_ready_callback
                0x00002130        0xc ./sdk/sys_man/sys_clock_mgr_da1469x.o
                0x00002130                cm_register_xtal_ready_callback
 .text.cm_halt_until_pll_locked
                0x0000213c      0x134 ./sdk/sys_man/sys_clock_mgr_da1469x.o
                0x0000213c                cm_halt_until_pll_locked
 .text.cm_halt_until_sysclk_ready
                0x00002270       0x24 ./sdk/sys_man/sys_clock_mgr_da1469x.o
                0x00002270                cm_halt_until_sysclk_ready
 .text.cm_sys_clk_sleep
                0x00002294      0x26c ./sdk/sys_man/sys_clock_mgr_da1469x.o
                0x00002294                cm_sys_clk_sleep
 .text.XTAL32M_Ready_Handler
                0x00002500       0xa0 ./sdk/sys_man/sys_clock_mgr_da1469x.o
                0x00002500                XTAL32M_Ready_Handler
 .text.cm_sys_clk_wakeup
                0x000025a0       0x70 ./sdk/sys_man/sys_clock_mgr_da1469x.o
                0x000025a0                cm_sys_clk_wakeup
 .text.cm_switch_to_xtalm_if_settled
                0x00002610       0x24 ./sdk/sys_man/sys_clock_mgr_da1469x.o
                0x00002610                cm_switch_to_xtalm_if_settled
 .text.init_component
                0x00002634       0x4c ./sdk/sys_man/sys_power_mgr_da1469x.o
 .text.xtalm_ready_cb
                0x00002680       0x3c ./sdk/sys_man/sys_power_mgr_da1469x.o
 .text.pm_sleep_mode_update
                0x000026bc       0x54 ./sdk/sys_man/sys_power_mgr_da1469x.o
 .text.jtag_wkup_discover_combo_pdc_entry_idx
                0x00002710       0x50 ./sdk/sys_man/sys_power_mgr_da1469x.o
 .text.init_components
                0x00002760       0x36 ./sdk/sys_man/sys_power_mgr_da1469x.o
 *fill*         0x00002796        0x2 
 .text.init_adapters
                0x00002798       0x30 ./sdk/sys_man/sys_power_mgr_da1469x.o
 .text.init_buses
                0x000027c8       0x18 ./sdk/sys_man/sys_power_mgr_da1469x.o
 .text.init_devices
                0x000027e0       0x18 ./sdk/sys_man/sys_power_mgr_da1469x.o
 .text.jtag_wkup_check
                0x000027f8       0x90 ./sdk/sys_man/sys_power_mgr_da1469x.o
 .text.execute_active_wfi
                0x00002888       0x2c ./sdk/sys_man/sys_power_mgr_da1469x.o
 .text.sys_init_wake_up
                0x000028b4       0xb8 ./sdk/sys_man/sys_power_mgr_da1469x.o
 .text.sleep_exit
                0x0000296c       0x3c ./sdk/sys_man/sys_power_mgr_da1469x.o
 .text.system_wake_up
                0x000029a8       0x84 ./sdk/sys_man/sys_power_mgr_da1469x.o
 .text.pm_system_init
                0x00002a2c       0xa8 ./sdk/sys_man/sys_power_mgr_da1469x.o
                0x00002a2c                pm_system_init
 .text.pm_set_wakeup_mode
                0x00002ad4       0x3c ./sdk/sys_man/sys_power_mgr_da1469x.o
                0x00002ad4                pm_set_wakeup_mode
 .text.pm_sleep_mode_set
                0x00002b10       0x40 ./sdk/sys_man/sys_power_mgr_da1469x.o
                0x00002b10                pm_sleep_mode_set
 .text.pm_register_adapter
                0x00002b50       0x7c ./sdk/sys_man/sys_power_mgr_da1469x.o
                0x00002b50                pm_register_adapter
 .text.pm_execute_wfi
                0x00002bcc       0x38 ./sdk/sys_man/sys_power_mgr_da1469x.o
                0x00002bcc                pm_execute_wfi
 .text.pm_get_system_sleep_state
                0x00002c04        0xc ./sdk/sys_man/sys_power_mgr_da1469x.o
                0x00002c04                pm_get_system_sleep_state
 .text.pm_set_sys_wakeup_mode
                0x00002c10       0xb8 ./sdk/sys_man/sys_power_mgr_da1469x.o
                0x00002c10                pm_set_sys_wakeup_mode
 .text.pm_get_sys_wakeup_mode
                0x00002cc8       0x20 ./sdk/sys_man/sys_power_mgr_da1469x.o
                0x00002cc8                pm_get_sys_wakeup_mode
 .text.pm_get_sys_wakeup_cycles
                0x00002ce8       0x68 ./sdk/sys_man/sys_power_mgr_da1469x.o
                0x00002ce8                pm_get_sys_wakeup_cycles
 .text.pm_prepare_sleep
                0x00002d50      0x2c4 ./sdk/sys_man/sys_power_mgr_da1469x.o
                0x00002d50                pm_prepare_sleep
 .text.pm_resume_from_sleep
                0x00003014       0x18 ./sdk/sys_man/sys_power_mgr_da1469x.o
                0x00003014                pm_resume_from_sleep
 .text.apply_wfi
                0x0000302c      0x1cc ./sdk/sys_man/sys_power_mgr_da1469x.o
 .text.pm_sleep_enter
                0x000031f8      0x244 ./sdk/sys_man/sys_power_mgr_da1469x.o
                0x000031f8                pm_sleep_enter
 .text.fetch_tcs_entry
                0x0000343c       0x20 ./sdk/sys_man/sys_tcs_da1469x.o
 .text.sys_tcs_get_size
                0x0000345c       0x28 ./sdk/sys_man/sys_tcs_da1469x.o
                0x0000345c                sys_tcs_get_size
 .text.sys_tcs_get_value_type
                0x00003484       0x24 ./sdk/sys_man/sys_tcs_da1469x.o
                0x00003484                sys_tcs_get_value_type
 .text.get_size_of_cs
                0x000034a8      0x134 ./sdk/sys_man/sys_tcs_da1469x.o
 .text.store_tcs
                0x000035dc       0xa4 ./sdk/sys_man/sys_tcs_da1469x.o
 .text.store_cs_attributes
                0x00003680       0x54 ./sdk/sys_man/sys_tcs_da1469x.o
 .text.sys_tcs_get_trim_values_from_cs
                0x000036d4      0x128 ./sdk/sys_man/sys_tcs_da1469x.o
                0x000036d4                sys_tcs_get_trim_values_from_cs
 .text.sys_tcs_get_custom_values
                0x000037fc       0x70 ./sdk/sys_man/sys_tcs_da1469x.o
                0x000037fc                sys_tcs_get_custom_values
 .text.sys_tcs_apply_custom_values
                0x0000386c       0x30 ./sdk/sys_man/sys_tcs_da1469x.o
                0x0000386c                sys_tcs_apply_custom_values
 .text.sys_tcs_get_reg_pairs
                0x0000389c       0x60 ./sdk/sys_man/sys_tcs_da1469x.o
                0x0000389c                sys_tcs_get_reg_pairs
 .text.sys_tcs_apply_reg_pairs
                0x000038fc       0x64 ./sdk/sys_man/sys_tcs_da1469x.o
                0x000038fc                sys_tcs_apply_reg_pairs
 .text.sys_tcs_custom_values_system_cb
                0x00003960       0x6c ./sdk/sys_man/sys_tcs_da1469x.o
                0x00003960                sys_tcs_custom_values_system_cb
 .text.sys_tcs_reg_pairs_in_cs
                0x000039cc       0x78 ./sdk/sys_man/sys_tcs_da1469x.o
                0x000039cc                sys_tcs_reg_pairs_in_cs
 .text.update_timestamp_values
                0x00003a44       0x34 ./sdk/sys_man/sys_timer.o
 .text.sys_timer_advance_time_compute
                0x00003a78       0xa0 ./sdk/sys_man/sys_timer.o
 .text.sys_timer_start
                0x00003b18       0x4c ./sdk/sys_man/sys_timer.o
                0x00003b18                sys_timer_start
 .text.sys_timer_stop
                0x00003b64       0x18 ./sdk/sys_man/sys_timer.o
                0x00003b64                sys_timer_stop
 .text.sys_timer_set_trigger
                0x00003b7c       0x44 ./sdk/sys_man/sys_timer.o
                0x00003b7c                sys_timer_set_trigger
 .text.sys_timer_advance_time_apply
                0x00003bc0       0x3c ./sdk/sys_man/sys_timer.o
 .text.sys_timer_update_slept_time
                0x00003bfc       0x26 ./sdk/sys_man/sys_timer.o
                0x00003bfc                sys_timer_update_slept_time
 .text.sys_timer_advance_time
                0x00003c22       0x18 ./sdk/sys_man/sys_timer.o
 .text.OS_TICK_Handler
                0x00003c3a       0x3e ./sdk/sys_man/sys_timer.o
                0x00003c3a                OS_TICK_Handler
 .text.sys_timer_get_tick_offset
                0x00003c78       0x20 ./sdk/sys_man/sys_timer.o
                0x00003c78                sys_timer_get_tick_offset
 .text.sys_timer_get_uptime_ticks
                0x00003c98       0x1c ./sdk/sys_man/sys_timer.o
                0x00003c98                sys_timer_get_uptime_ticks
 .text.sys_timer_get_uptime_ticks_fromISR
                0x00003cb4       0x34 ./sdk/sys_man/sys_timer.o
                0x00003cb4                sys_timer_get_uptime_ticks_fromISR
 .text.sys_timer_get_timestamp_fromCPM
                0x00003ce8       0x18 ./sdk/sys_man/sys_timer.o
                0x00003ce8                sys_timer_get_timestamp_fromCPM
 .text.sys_trng_producing_numbers
                0x00003d00       0x10 ./sdk/sys_man/sys_trng.o
                0x00003d00                sys_trng_producing_numbers
 .text.sys_watchdog_set_pos_val
                0x00003d10       0x58 ./sdk/sys_man/sys_watchdog.o
                0x00003d10                sys_watchdog_set_pos_val
 .text.sys_watchdog_get_val
                0x00003d68       0x2c ./sdk/sys_man/sys_watchdog.o
                0x00003d68                sys_watchdog_get_val
 .text.hw_bod_activate_on_wakeup
                0x00003d94       0x88 ./sdk/peripherals/src/hw_bod_da1469x.o
                0x00003d94                hw_bod_activate_on_wakeup
 .text.hw_bod_configure
                0x00003e1c       0x1c ./sdk/peripherals/src/hw_bod_da1469x.o
                0x00003e1c                hw_bod_configure
 .text.MRM_Handler
                0x00003e38       0x10 ./sdk/peripherals/src/hw_cache.o
                0x00003e38                MRM_Handler
 .text.hw_clk_delay_usec
                0x00003e48       0x90 ./sdk/peripherals/src/hw_clk_da1469x.o
                0x00003e48                hw_clk_delay_usec
 .text.hw_clk_xtalm_update_rdy_cnt
                0x00003ed8       0x34 ./sdk/peripherals/src/hw_clk_da1469x.o
                0x00003ed8                hw_clk_xtalm_update_rdy_cnt
 .text.hw_clk_xtalm_compensate_amp
                0x00003f0c        0x2 ./sdk/peripherals/src/hw_clk_da1469x.o
                0x00003f0c                hw_clk_xtalm_compensate_amp
 *fill*         0x00003f0e        0x2 
 .text.hw_clk_xtalm_configure
                0x00003f10       0x38 ./sdk/peripherals/src/hw_clk_da1469x.o
                0x00003f10                hw_clk_xtalm_configure
 .text.hw_cpm_reboot_system
                0x00003f48       0x50 ./sdk/peripherals/src/hw_cpm_da1469x.o
                0x00003f48                hw_cpm_reboot_system
 .text.hw_dma_channel_initialization
                0x00003f98      0x28c ./sdk/peripherals/src/hw_dma.o
                0x00003f98                hw_dma_channel_initialization
 .text.hw_dma_channel_enable
                0x00004224       0x88 ./sdk/peripherals/src/hw_dma.o
                0x00004224                hw_dma_channel_enable
 .text.hw_dma_channel_active
                0x000042ac       0x50 ./sdk/peripherals/src/hw_dma.o
                0x000042ac                hw_dma_channel_active
 .text.DMA_Handler
                0x000042fc       0xb0 ./sdk/peripherals/src/hw_dma.o
                0x000042fc                DMA_Handler
 .text.hw_gpadc_reset
                0x000043ac       0x2c ./sdk/peripherals/src/hw_gpadc.o
                0x000043ac                hw_gpadc_reset
 .text.hw_gpadc_configure
                0x000043d8      0x130 ./sdk/peripherals/src/hw_gpadc.o
                0x000043d8                hw_gpadc_configure
 .text.hw_gpadc_init
                0x00004508       0x30 ./sdk/peripherals/src/hw_gpadc.o
                0x00004508                hw_gpadc_init
 .text.hw_gpadc_adc_measure
                0x00004538       0x20 ./sdk/peripherals/src/hw_gpadc.o
                0x00004538                hw_gpadc_adc_measure
 .text.hw_gpadc_store_se_gain_error
                0x00004558        0xc ./sdk/peripherals/src/hw_gpadc.o
                0x00004558                hw_gpadc_store_se_gain_error
 .text.hw_gpadc_store_diff_gain_error
                0x00004564        0xc ./sdk/peripherals/src/hw_gpadc.o
                0x00004564                hw_gpadc_store_diff_gain_error
 .text.hw_gpadc_store_se_offset_error
                0x00004570        0xc ./sdk/peripherals/src/hw_gpadc.o
                0x00004570                hw_gpadc_store_se_offset_error
 .text.hw_gpadc_store_diff_offset_error
                0x0000457c        0xc ./sdk/peripherals/src/hw_gpadc.o
                0x0000457c                hw_gpadc_store_diff_offset_error
 .text.hw_gpio_set_pin_function
                0x00004588       0x14 ./sdk/peripherals/src/hw_gpio.o
                0x00004588                hw_gpio_set_pin_function
 .text.hw_gpio_configure_pin_power
                0x0000459c       0x38 ./sdk/peripherals/src/hw_gpio.o
                0x0000459c                hw_gpio_configure_pin_power
 .text.HardFault_HandlerC
                0x000045d4       0xb8 ./sdk/peripherals/src/hw_hard_fault.o
                0x000045d4                HardFault_HandlerC
 .text.MemManage_Handler
                0x0000468c       0x2c ./sdk/peripherals/src/hw_hard_fault.o
                0x0000468c                MemManage_Handler
 .text.BusFault_Handler
                0x000046b8       0x2c ./sdk/peripherals/src/hw_hard_fault.o
                0x000046b8                BusFault_Handler
 .text.UsageFault_Handler
                0x000046e4       0x14 ./sdk/peripherals/src/hw_hard_fault.o
                0x000046e4                UsageFault_Handler
 .text.DebugMon_Handler
                0x000046f8        0x2 ./sdk/peripherals/src/hw_hard_fault.o
                0x000046f8                DebugMon_Handler
 *fill*         0x000046fa        0x2 
 .text.intr_slave_handler
                0x000046fc       0x5c ./sdk/peripherals/src/hw_i2c.o
 .text.hw_i2c_register_int
                0x00004758       0x24 ./sdk/peripherals/src/hw_i2c.o
                0x00004758                hw_i2c_register_int
 .text.hw_i2c_unregister_int
                0x0000477c       0x2c ./sdk/peripherals/src/hw_i2c.o
                0x0000477c                hw_i2c_unregister_int
 .text.hw_i2c_setup_master
                0x000047a8       0x8c ./sdk/peripherals/src/hw_i2c.o
                0x000047a8                hw_i2c_setup_master
 .text.hw_i2c_set_slave_callback
                0x00004834       0x38 ./sdk/peripherals/src/hw_i2c.o
                0x00004834                hw_i2c_set_slave_callback
 .text.hw_i2c_setup_slave
                0x0000486c       0x40 ./sdk/peripherals/src/hw_i2c.o
                0x0000486c                hw_i2c_setup_slave
 .text.hw_i2c_configure
                0x000048ac       0xcc ./sdk/peripherals/src/hw_i2c.o
                0x000048ac                hw_i2c_configure
 .text.hw_i2c_init
                0x00004978       0xd8 ./sdk/peripherals/src/hw_i2c.o
                0x00004978                hw_i2c_init
 .text.I2C_Handler
                0x00004a50       0x1c ./sdk/peripherals/src/hw_i2c.o
                0x00004a50                I2C_Handler
 .text.I2C2_Handler
                0x00004a6c       0x1c ./sdk/peripherals/src/hw_i2c.o
                0x00004a6c                I2C2_Handler
 .text.hw_memctrl_reset
                0x00004a88       0x1c ./sdk/peripherals/src/hw_memctrl.o
                0x00004a88                hw_memctrl_reset
 .text.hw_otpc_convert_sys_clk_mhz
                0x00004aa4       0xac ./sdk/peripherals/src/hw_otpc_da1469x.o
                0x00004aa4                hw_otpc_convert_sys_clk_mhz
 .text.hw_otpc_disable
                0x00004b50       0x80 ./sdk/peripherals/src/hw_otpc_da1469x.o
                0x00004b50                hw_otpc_disable
 .text.hw_otpc_set_speed
                0x00004bd0       0x3c ./sdk/peripherals/src/hw_otpc_da1469x.o
                0x00004bd0                hw_otpc_set_speed
 .text.hw_pdc_add_entry
                0x00004c0c       0x38 ./sdk/peripherals/src/hw_pdc.o
                0x00004c0c                hw_pdc_add_entry
 .text.hw_pdc_lut_reset
                0x00004c44       0x3c ./sdk/peripherals/src/hw_pdc.o
                0x00004c44                hw_pdc_lut_reset
 .text.hw_pmu_get_bod_threshold_level_mv
                0x00004c80       0x30 ./sdk/peripherals/src/hw_pmu_da1469x.o
 .text.is_all_dcdc_rails_off
                0x00004cb0       0x78 ./sdk/peripherals/src/hw_pmu_da1469x.o
 .text.check_and_disable_dcdc
                0x00004d28       0x18 ./sdk/peripherals/src/hw_pmu_da1469x.o
 .text.v30_ldo_vbat_ret_disable
                0x00004d40       0x12 ./sdk/peripherals/src/hw_pmu_da1469x.o
 .text.v30_ldo_vbat_vbus_disable
                0x00004d52       0x12 ./sdk/peripherals/src/hw_pmu_da1469x.o
 .text.v30_ldo_vbat_ret_active
                0x00004d64       0x12 ./sdk/peripherals/src/hw_pmu_da1469x.o
 .text.v30_ldo_vbat_vbus_active
                0x00004d76       0x12 ./sdk/peripherals/src/hw_pmu_da1469x.o
 .text.check_3v0_bod_threshold
                0x00004d88       0x38 ./sdk/peripherals/src/hw_pmu_da1469x.o
 .text.v30_ldo_vbat_ret_sleep_disable
                0x00004dc0       0x12 ./sdk/peripherals/src/hw_pmu_da1469x.o
 .text.v30_ldo_vbat_ret_sleep_enable
                0x00004dd2       0x12 ./sdk/peripherals/src/hw_pmu_da1469x.o
 .text.v18_ldo_io_active_enable
                0x00004de4       0x12 ./sdk/peripherals/src/hw_pmu_da1469x.o
 .text.v18_ldo_io_disable
                0x00004df6       0x12 ./sdk/peripherals/src/hw_pmu_da1469x.o
 .text.v18_ldo_io_ret_active_enable
                0x00004e08       0x12 ./sdk/peripherals/src/hw_pmu_da1469x.o
 .text.v18_ldo_io_ret_disable
                0x00004e1a       0x12 ./sdk/peripherals/src/hw_pmu_da1469x.o
 .text.v18_dcdc_disable
                0x00004e2c       0x18 ./sdk/peripherals/src/hw_pmu_da1469x.o
 .text.check_1v8_bod_threshold
                0x00004e44       0x38 ./sdk/peripherals/src/hw_pmu_da1469x.o
 .text.v18_ldo_io_ret_sleep_enable
                0x00004e7c       0x12 ./sdk/peripherals/src/hw_pmu_da1469x.o
 .text.v18p_ldo_io_active_enable
                0x00004e8e       0x12 ./sdk/peripherals/src/hw_pmu_da1469x.o
 .text.v18p_ldo_io_ret_active_enable
                0x00004ea0       0x12 ./sdk/peripherals/src/hw_pmu_da1469x.o
 .text.v18p_ldo_io_disable
                0x00004eb2       0x12 ./sdk/peripherals/src/hw_pmu_da1469x.o
 .text.v18p_ldo_io_ret_disable
                0x00004ec4       0x12 ./sdk/peripherals/src/hw_pmu_da1469x.o
 *fill*         0x00004ed6        0x2 
 .text.v18p_dcdc_disable
                0x00004ed8       0x18 ./sdk/peripherals/src/hw_pmu_da1469x.o
 .text.v18p_ldo_io_ret_sleep_enable
                0x00004ef0       0x12 ./sdk/peripherals/src/hw_pmu_da1469x.o
 *fill*         0x00004f02        0x2 
 .text.v14_dcdc_disable
                0x00004f04       0x18 ./sdk/peripherals/src/hw_pmu_da1469x.o
 .text.v14_ldo_radio_enable
                0x00004f1c       0x14 ./sdk/peripherals/src/hw_pmu_da1469x.o
 .text.v14_ldo_radio_disable
                0x00004f30       0x12 ./sdk/peripherals/src/hw_pmu_da1469x.o
 *fill*         0x00004f42        0x2 
 .text.check_1v4_bod_threshold
                0x00004f44       0x38 ./sdk/peripherals/src/hw_pmu_da1469x.o
 .text.v14_check_active_dependants
                0x00004f7c       0x34 ./sdk/peripherals/src/hw_pmu_da1469x.o
 .text.v12_dcdc_disable
                0x00004fb0       0x18 ./sdk/peripherals/src/hw_pmu_da1469x.o
 .text.v12_ldo_core_enable
                0x00004fc8       0x12 ./sdk/peripherals/src/hw_pmu_da1469x.o
 .text.v12_ldo_core_disable
                0x00004fda       0x12 ./sdk/peripherals/src/hw_pmu_da1469x.o
 .text.v12_set_core_ret_voltage
                0x00004fec       0x20 ./sdk/peripherals/src/hw_pmu_da1469x.o
 .text.v12_ldo_core_ret_enable
                0x0000500c       0x12 ./sdk/peripherals/src/hw_pmu_da1469x.o
 .text.v12_ldo_core_ret_disable
                0x0000501e       0x12 ./sdk/peripherals/src/hw_pmu_da1469x.o
 .text.check_1v2_bod_threshold
                0x00005030       0x38 ./sdk/peripherals/src/hw_pmu_da1469x.o
 .text.check_1v2_bod_threshold_sleep
                0x00005068       0x38 ./sdk/peripherals/src/hw_pmu_da1469x.o
 .text.check_1v2_bod_threshold_clamp
                0x000050a0       0x38 ./sdk/peripherals/src/hw_pmu_da1469x.o
 .text.get_1v2_ldo_core_ret_voltage
                0x000050d8        0xc ./sdk/peripherals/src/hw_pmu_da1469x.o
 .text.get_ldo_radio_voltage
                0x000050e4        0xe ./sdk/peripherals/src/hw_pmu_da1469x.o
 *fill*         0x000050f2        0x2 
 .text.get_ldo_vbat_vbus_voltage
                0x000050f4       0x38 ./sdk/peripherals/src/hw_pmu_da1469x.o
 .text.get_1v2_active_voltage
                0x0000512c       0x3c ./sdk/peripherals/src/hw_pmu_da1469x.o
 .text.hw_pmu_dcdc_config
                0x00005168       0x10 ./sdk/peripherals/src/hw_pmu_da1469x.o
                0x00005168                hw_pmu_dcdc_config
 .text.hw_pmu_3v0_clamp_enable
                0x00005178       0x12 ./sdk/peripherals/src/hw_pmu_da1469x.o
                0x00005178                hw_pmu_3v0_clamp_enable
 .text.hw_pmu_3v0_clamp_disable
                0x0000518a       0x12 ./sdk/peripherals/src/hw_pmu_da1469x.o
                0x0000518a                hw_pmu_3v0_clamp_disable
 .text.hw_pmu_3v0_set_voltage
                0x0000519c       0x80 ./sdk/peripherals/src/hw_pmu_da1469x.o
                0x0000519c                hw_pmu_3v0_set_voltage
 .text.hw_pmu_3v0_onwakeup_config
                0x0000521c      0x15c ./sdk/peripherals/src/hw_pmu_da1469x.o
                0x0000521c                hw_pmu_3v0_onwakeup_config
 .text.hw_pmu_3v0_onsleep_config
                0x00005378      0x138 ./sdk/peripherals/src/hw_pmu_da1469x.o
                0x00005378                hw_pmu_3v0_onsleep_config
 .text.hw_pmu_1v8_set_voltage
                0x000054b0       0x36 ./sdk/peripherals/src/hw_pmu_da1469x.o
                0x000054b0                hw_pmu_1v8_set_voltage
 *fill*         0x000054e6        0x2 
 .text.hw_pmu_1v8_configure_high_efficiency_dcdc
                0x000054e8       0x1c ./sdk/peripherals/src/hw_pmu_da1469x.o
                0x000054e8                hw_pmu_1v8_configure_high_efficiency_dcdc
 .text.hw_pmu_1v8_disable_high_efficiency_dcdc
                0x00005504       0x38 ./sdk/peripherals/src/hw_pmu_da1469x.o
                0x00005504                hw_pmu_1v8_disable_high_efficiency_dcdc
 .text.hw_pmu_1v8_onwakeup_enable
                0x0000553c       0x64 ./sdk/peripherals/src/hw_pmu_da1469x.o
                0x0000553c                hw_pmu_1v8_onwakeup_enable
 .text.hw_pmu_1v8_onwakeup_disable
                0x000055a0       0x30 ./sdk/peripherals/src/hw_pmu_da1469x.o
                0x000055a0                hw_pmu_1v8_onwakeup_disable
 .text.hw_pmu_1v8_onsleep_enable
                0x000055d0       0x1c ./sdk/peripherals/src/hw_pmu_da1469x.o
                0x000055d0                hw_pmu_1v8_onsleep_enable
 .text.hw_pmu_1v8_onsleep_disable
                0x000055ec       0x12 ./sdk/peripherals/src/hw_pmu_da1469x.o
                0x000055ec                hw_pmu_1v8_onsleep_disable
 *fill*         0x000055fe        0x2 
 .text.hw_pmu_1v8p_configure_high_efficiency_dcdc
                0x00005600       0x1c ./sdk/peripherals/src/hw_pmu_da1469x.o
                0x00005600                hw_pmu_1v8p_configure_high_efficiency_dcdc
 .text.hw_pmu_1v8p_disable_high_efficiency_dcdc
                0x0000561c       0x68 ./sdk/peripherals/src/hw_pmu_da1469x.o
                0x0000561c                hw_pmu_1v8p_disable_high_efficiency_dcdc
 .text.hw_pmu_1v8p_onwakeup_enable
                0x00005684       0x64 ./sdk/peripherals/src/hw_pmu_da1469x.o
                0x00005684                hw_pmu_1v8p_onwakeup_enable
 .text.hw_pmu_1v8p_onwakeup_disable
                0x000056e8       0x54 ./sdk/peripherals/src/hw_pmu_da1469x.o
                0x000056e8                hw_pmu_1v8p_onwakeup_disable
 .text.hw_pmu_1v8p_onsleep_enable
                0x0000573c       0x1c ./sdk/peripherals/src/hw_pmu_da1469x.o
                0x0000573c                hw_pmu_1v8p_onsleep_enable
 .text.hw_pmu_1v8p_onsleep_disable
                0x00005758       0x38 ./sdk/peripherals/src/hw_pmu_da1469x.o
                0x00005758                hw_pmu_1v8p_onsleep_disable
 .text.hw_pmu_1v4_configure_high_efficiency_dcdc
                0x00005790       0x18 ./sdk/peripherals/src/hw_pmu_da1469x.o
                0x00005790                hw_pmu_1v4_configure_high_efficiency_dcdc
 .text.hw_pmu_1v4_set_voltage
                0x000057a8       0x40 ./sdk/peripherals/src/hw_pmu_da1469x.o
                0x000057a8                hw_pmu_1v4_set_voltage
 .text.hw_pmu_1v4_disable_high_efficiency_dcdc
                0x000057e8       0x50 ./sdk/peripherals/src/hw_pmu_da1469x.o
                0x000057e8                hw_pmu_1v4_disable_high_efficiency_dcdc
 .text.hw_pmu_1v4_onwakeup_enable
                0x00005838       0x26 ./sdk/peripherals/src/hw_pmu_da1469x.o
                0x00005838                hw_pmu_1v4_onwakeup_enable
 .text.hw_pmu_1v4_onwakeup_disable
                0x0000585e       0x22 ./sdk/peripherals/src/hw_pmu_da1469x.o
                0x0000585e                hw_pmu_1v4_onwakeup_disable
 .text.hw_pmu_1v2_onwakeup_set_voltage
                0x00005880       0xac ./sdk/peripherals/src/hw_pmu_da1469x.o
                0x00005880                hw_pmu_1v2_onwakeup_set_voltage
 .text.hw_pmu_1v2_configure_high_efficiency_dcdc
                0x0000592c       0x18 ./sdk/peripherals/src/hw_pmu_da1469x.o
                0x0000592c                hw_pmu_1v2_configure_high_efficiency_dcdc
 .text.hw_pmu_1v2_disable_high_efficiency_dcdc
                0x00005944       0xa4 ./sdk/peripherals/src/hw_pmu_da1469x.o
                0x00005944                hw_pmu_1v2_disable_high_efficiency_dcdc
 .text.hw_pmu_set_vdd_clamp
                0x000059e8       0x40 ./sdk/peripherals/src/hw_pmu_da1469x.o
                0x000059e8                hw_pmu_set_vdd_clamp
 .text.hw_pmu_1v2_onwakeup_enable
                0x00005a28      0x11c ./sdk/peripherals/src/hw_pmu_da1469x.o
                0x00005a28                hw_pmu_1v2_onwakeup_enable
 .text.hw_pmu_1v2_onwakeup_disable
                0x00005b44       0x50 ./sdk/peripherals/src/hw_pmu_da1469x.o
                0x00005b44                hw_pmu_1v2_onwakeup_disable
 .text.hw_pmu_1v2_onsleep_enable
                0x00005b94       0x76 ./sdk/peripherals/src/hw_pmu_da1469x.o
                0x00005b94                hw_pmu_1v2_onsleep_enable
 .text.hw_pmu_1v2_onsleep_disable
                0x00005c0a       0x3a ./sdk/peripherals/src/hw_pmu_da1469x.o
                0x00005c0a                hw_pmu_1v2_onsleep_disable
 .text.hw_pmu_get_1v8_onwakeup_config
                0x00005c44       0x54 ./sdk/peripherals/src/hw_pmu_da1469x.o
                0x00005c44                hw_pmu_get_1v8_onwakeup_config
 .text.hw_pmu_get_1v8_onsleep_config
                0x00005c98       0x3a ./sdk/peripherals/src/hw_pmu_da1469x.o
                0x00005c98                hw_pmu_get_1v8_onsleep_config
 .text.hw_pmu_get_1v8p_onwakeup_config
                0x00005cd2       0x40 ./sdk/peripherals/src/hw_pmu_da1469x.o
                0x00005cd2                hw_pmu_get_1v8p_onwakeup_config
 .text.hw_pmu_get_1v8p_onsleep_config
                0x00005d12       0x26 ./sdk/peripherals/src/hw_pmu_da1469x.o
                0x00005d12                hw_pmu_get_1v8p_onsleep_config
 .text.hw_pmu_get_1v4_onwakeup_config
                0x00005d38       0x28 ./sdk/peripherals/src/hw_pmu_da1469x.o
                0x00005d38                hw_pmu_get_1v4_onwakeup_config
 .text.hw_pmu_get_1v2_active_config
                0x00005d60       0xa0 ./sdk/peripherals/src/hw_pmu_da1469x.o
                0x00005d60                hw_pmu_get_1v2_active_config
 .text.hw_pmu_get_1v2_onwakeup_config
                0x00005e00       0x70 ./sdk/peripherals/src/hw_pmu_da1469x.o
                0x00005e00                hw_pmu_get_1v2_onwakeup_config
 .text.hw_pmu_get_1v2_onsleep_config
                0x00005e70       0x24 ./sdk/peripherals/src/hw_pmu_da1469x.o
                0x00005e70                hw_pmu_get_1v2_onsleep_config
 .text.hw_qspi_set_bus_mode
                0x00005e94       0x44 ./sdk/peripherals/src/hw_qspi.o
                0x00005e94                hw_qspi_set_bus_mode
 .text.hw_qspi_set_access_mode
                0x00005ed8       0xb0 ./sdk/peripherals/src/hw_qspi.o
                0x00005ed8                hw_qspi_set_access_mode
 .text.hw_qspi_init
                0x00005f88       0xb4 ./sdk/peripherals/src/hw_qspi.o
                0x00005f88                hw_qspi_init
 .text.hw_qspi_set_instructions
                0x0000603c      0x1fc ./sdk/peripherals/src/hw_qspi.o
                0x0000603c                hw_qspi_set_instructions
 .text.RTC_Handler
                0x00006238       0x1c ./sdk/peripherals/src/hw_rtc.o
                0x00006238                RTC_Handler
 .text.SDADC_Handler
                0x00006254       0x1c ./sdk/peripherals/src/hw_sdadc.o
                0x00006254                SDADC_Handler
 .text.hw_spi_transfer_write
                0x00006270       0x98 ./sdk/peripherals/src/hw_spi.o
 .text.hw_spi_get_fifo_mode
                0x00006308        0x8 ./sdk/peripherals/src/hw_spi.o
                0x00006308                hw_spi_get_fifo_mode
 .text.hw_spi_transfer
                0x00006310      0x11c ./sdk/peripherals/src/hw_spi.o
 .text.hw_spi_transfer_read
                0x0000642c       0xf4 ./sdk/peripherals/src/hw_spi.o
 .text.SPI_Interrupt_Handler
                0x00006520       0xa8 ./sdk/peripherals/src/hw_spi.o
 .text.SPI_Handler
                0x000065c8       0x10 ./sdk/peripherals/src/hw_spi.o
                0x000065c8                SPI_Handler
 .text.SPI2_Handler
                0x000065d8       0x10 ./sdk/peripherals/src/hw_spi.o
                0x000065d8                SPI2_Handler
 .text.hw_sys_assert_trigger_gpio
                0x000065e8        0x2 ./sdk/peripherals/src/hw_sys_da1469x.o
                0x000065e8                hw_sys_assert_trigger_gpio
 *fill*         0x000065ea        0x2 
 .text.hw_sys_set_preferred_values
                0x000065ec       0xf0 ./sdk/peripherals/src/hw_sys_da1469x.o
                0x000065ec                hw_sys_set_preferred_values
 .text.hw_sys_hw_bsr_try_lock
                0x000066dc       0x54 ./sdk/peripherals/src/hw_sys_da1469x.o
                0x000066dc                hw_sys_hw_bsr_try_lock
 .text.hw_sys_hw_bsr_unlock
                0x00006730       0x58 ./sdk/peripherals/src/hw_sys_da1469x.o
                0x00006730                hw_sys_hw_bsr_unlock
 .text.hw_sys_sw_bsr_init
                0x00006788       0x2c ./sdk/peripherals/src/hw_sys_da1469x.o
                0x00006788                hw_sys_sw_bsr_init
 .text.hw_sys_pd_com_enable
                0x000067b4       0xa0 ./sdk/peripherals/src/hw_sys_da1469x.o
                0x000067b4                hw_sys_pd_com_enable
 .text.hw_sys_pd_com_disable
                0x00006854       0x70 ./sdk/peripherals/src/hw_sys_da1469x.o
                0x00006854                hw_sys_pd_com_disable
 .text.hw_sys_setup_sw_cursor
                0x000068c4       0x24 ./sdk/peripherals/src/hw_sys_da1469x.o
                0x000068c4                hw_sys_setup_sw_cursor
 .text.hw_sys_pll_locktime_tune
                0x000068e8      0x1c8 ./sdk/peripherals/src/hw_sys_da1469x.o
 .text.hw_sys_pd_periph_enable
                0x00006ab0       0x6c ./sdk/peripherals/src/hw_sys_da1469x.o
                0x00006ab0                hw_sys_pd_periph_enable
 .text.hw_sys_pd_periph_disable
                0x00006b1c       0x70 ./sdk/peripherals/src/hw_sys_da1469x.o
                0x00006b1c                hw_sys_pd_periph_disable
 .text.hw_sys_reg_add_config
                0x00006b8c       0x4c ./sdk/peripherals/src/hw_sys_da1469x.o
                0x00006b8c                hw_sys_reg_add_config
 .text.hw_sys_reg_apply_config
                0x00006bd8       0x28 ./sdk/peripherals/src/hw_sys_da1469x.o
                0x00006bd8                hw_sys_reg_apply_config
 .text.hw_sys_apply_default_values
                0x00006c00       0x58 ./sdk/peripherals/src/hw_sys_da1469x.o
                0x00006c00                hw_sys_apply_default_values
 .text.hw_sys_pll_calculate_min_current
                0x00006c58       0x58 ./sdk/peripherals/src/hw_sys_da1469x.o
                0x00006c58                hw_sys_pll_calculate_min_current
 .text.hw_sys_pll_set_min_current
                0x00006cb0       0x2c ./sdk/peripherals/src/hw_sys_da1469x.o
                0x00006cb0                hw_sys_pll_set_min_current
 .text.hw_timer_configure_timer
                0x00006cdc       0xb4 ./sdk/peripherals/src/hw_timer.o
                0x00006cdc                hw_timer_configure_timer
 .text.hw_timer_configure_oneshot
                0x00006d90       0x5c ./sdk/peripherals/src/hw_timer.o
                0x00006d90                hw_timer_configure_oneshot
 .text.hw_timer_register_int
                0x00006dec       0xa8 ./sdk/peripherals/src/hw_timer.o
                0x00006dec                hw_timer_register_int
 .text.hw_timer_unregister_int
                0x00006e94       0xd8 ./sdk/peripherals/src/hw_timer.o
                0x00006e94                hw_timer_unregister_int
 .text.Timer_Handler
                0x00006f6c       0x1c ./sdk/peripherals/src/hw_timer.o
                0x00006f6c                Timer_Handler
 .text.Timer2_Handler
                0x00006f88       0x1c ./sdk/peripherals/src/hw_timer.o
                0x00006f88                Timer2_Handler
 .text.Timer3_Handler
                0x00006fa4       0x1c ./sdk/peripherals/src/hw_timer.o
                0x00006fa4                Timer3_Handler
 .text.Timer4_Handler
                0x00006fc0       0x1c ./sdk/peripherals/src/hw_timer.o
                0x00006fc0                Timer4_Handler
 .text.CAPTIMER_Handler
                0x00006fdc       0x24 ./sdk/peripherals/src/hw_timer.o
                0x00006fdc                CAPTIMER_Handler
 .text.hw_timer_configure_pwm
                0x00007000      0x188 ./sdk/peripherals/src/hw_timer.o
                0x00007000                hw_timer_configure_pwm
 .text.hw_timer_configure
                0x00007188       0x7c ./sdk/peripherals/src/hw_timer.o
                0x00007188                hw_timer_configure
 .text.hw_timer_init
                0x00007204       0xfc ./sdk/peripherals/src/hw_timer.o
                0x00007204                hw_timer_init
 .text.TRNG_Handler
                0x00007300       0x18 ./sdk/peripherals/src/hw_trng.o
                0x00007300                TRNG_Handler
 .text.hw_uart_fire_callback
                0x00007318       0x70 ./sdk/peripherals/src/hw_uart.o
 .text.hw_uart_irq_stop_receive
                0x00007388       0x94 ./sdk/peripherals/src/hw_uart.o
 .text.hw_uart_rx_dma_callback
                0x0000741c       0x78 ./sdk/peripherals/src/hw_uart.o
 .text.hw_uart_tx_dma_callback
                0x00007494       0x14 ./sdk/peripherals/src/hw_uart.o
 .text.hw_uart_read
                0x000074a8        0xe ./sdk/peripherals/src/hw_uart.o
                0x000074a8                hw_uart_read
 .text.hw_uart_write
                0x000074b6        0xc ./sdk/peripherals/src/hw_uart.o
                0x000074b6                hw_uart_write
 .text.hw_uart_write_buffer
                0x000074c2       0x1e ./sdk/peripherals/src/hw_uart.o
                0x000074c2                hw_uart_write_buffer
 .text.hw_uart_send
                0x000074e0       0xfc ./sdk/peripherals/src/hw_uart.o
                0x000074e0                hw_uart_send
 .text.hw_uart_set_dma_channels_ex
                0x000075dc      0x230 ./sdk/peripherals/src/hw_uart.o
                0x000075dc                hw_uart_set_dma_channels_ex
 .text.hw_uart_init
                0x0000780c      0x1ac ./sdk/peripherals/src/hw_uart.o
                0x0000780c                hw_uart_init
 .text.hw_uart_error_getf
                0x000079b8       0x38 ./sdk/peripherals/src/hw_uart.o
                0x000079b8                hw_uart_error_getf
 .text.hw_uart_thr_empty_getf
                0x000079f0        0x8 ./sdk/peripherals/src/hw_uart.o
                0x000079f0                hw_uart_thr_empty_getf
 .text.UART_Interrupt_Handler
                0x000079f8      0x214 ./sdk/peripherals/src/hw_uart.o
                0x000079f8                UART_Interrupt_Handler
 .text.UART_Handler
                0x00007c0c       0x1c ./sdk/peripherals/src/hw_uart.o
                0x00007c0c                UART_Handler
 .text.UART2_Handler
                0x00007c28       0x20 ./sdk/peripherals/src/hw_uart.o
                0x00007c28                UART2_Handler
 .text.UART3_Handler
                0x00007c48       0x20 ./sdk/peripherals/src/hw_uart.o
                0x00007c48                UART3_Handler
 .text.VBUS_Handler
                0x00007c68       0x1c ./sdk/peripherals/src/hw_usb_da1469x.o
                0x00007c68                VBUS_Handler
 .text.USB_Handler
                0x00007c84       0x18 ./sdk/peripherals/src/hw_usb_da1469x.o
                0x00007c84                USB_Handler
 .text.hw_watchdog_freeze
                0x00007c9c       0x30 ./sdk/peripherals/src/hw_watchdog.o
                0x00007c9c                hw_watchdog_freeze
 .text.hw_watchdog_unfreeze
                0x00007ccc       0x30 ./sdk/peripherals/src/hw_watchdog.o
                0x00007ccc                hw_watchdog_unfreeze
 .text.hw_watchdog_handle_int
                0x00007cfc       0xd4 ./sdk/peripherals/src/hw_watchdog.o
                0x00007cfc                hw_watchdog_handle_int
 .text.NMI_HandlerC
                0x00007dd0       0x18 ./sdk/peripherals/src/hw_watchdog.o
                0x00007dd0                NMI_HandlerC
 .text.hw_wkup_configure
                0x00007de8       0x5c ./sdk/peripherals/src/hw_wkup_da1469x.o
                0x00007de8                hw_wkup_configure
 .text.hw_wkup_init
                0x00007e44       0x84 ./sdk/peripherals/src/hw_wkup_da1469x.o
                0x00007e44                hw_wkup_init
 .text.hw_wkup_key_handler
                0x00007ec8       0x10 ./sdk/peripherals/src/hw_wkup_da1469x.o
                0x00007ec8                hw_wkup_key_handler
 .text.hw_wkup_p0_handler
                0x00007ed8       0x20 ./sdk/peripherals/src/hw_wkup_da1469x.o
                0x00007ed8                hw_wkup_p0_handler
 .text.hw_wkup_p1_handler
                0x00007ef8       0x24 ./sdk/peripherals/src/hw_wkup_da1469x.o
                0x00007ef8                hw_wkup_p1_handler
 .text.Key_Wkup_GPIO_Handler
                0x00007f1c       0x20 ./sdk/peripherals/src/hw_wkup_da1469x.o
                0x00007f1c                Key_Wkup_GPIO_Handler
 .text.GPIO_P0_Handler
                0x00007f3c       0x14 ./sdk/peripherals/src/hw_wkup_da1469x.o
                0x00007f3c                GPIO_P0_Handler
 .text.GPIO_P1_Handler
                0x00007f50       0x14 ./sdk/peripherals/src/hw_wkup_da1469x.o
                0x00007f50                GPIO_P1_Handler
 .text.resource_init
                0x00007f64       0x4c ./sdk/osal/resmgmt.o
                0x00007f64                resource_init
 .text.flash_mx25u3235_get_dummy_bytes
                0x00007fb0        0x4 ./sdk/memory/src/qspi_automode.o
 .text.flash_write
                0x00007fb4       0x26 ./sdk/memory/src/qspi_automode.o
 .text.flash_transact
                0x00007fda       0x2c ./sdk/memory/src/qspi_automode.o
 .text.flash_mx_is_suspended
                0x00008006       0x2c ./sdk/memory/src/qspi_automode.o
 .text.flash_erase_program_in_progress
                0x00008032       0x28 ./sdk/memory/src/qspi_automode.o
 .text.flash_reset_continuous_mode
                0x0000805a       0x16 ./sdk/memory/src/qspi_automode.o
 .text.flash_read_status_register
                0x00008070       0x22 ./sdk/memory/src/qspi_automode.o
 .text.flash_write_enable
                0x00008092       0x2c ./sdk/memory/src/qspi_automode.o
 .text.flash_is_busy
                0x000080be        0xc ./sdk/memory/src/qspi_automode.o
 .text.flash_write_status_register
                0x000080ca       0x26 ./sdk/memory/src/qspi_automode.o
 .text.flash_mx25u3235_initialize
                0x000080f0       0x26 ./sdk/memory/src/qspi_automode.o
 *fill*         0x00008116        0x2 
 .text.init_hw_qspi
                0x00008118       0xa4 ./sdk/memory/src/qspi_automode.o
 .text.qspi_is_valid_addr
                0x000081bc       0x24 ./sdk/memory/src/qspi_automode.o
                0x000081bc                qspi_is_valid_addr
 .text.flash_write_page
                0x000081e0       0xd8 ./sdk/memory/src/qspi_automode.o
 .text.qspi_operations_init
                0x000082b8       0x28 ./sdk/memory/src/qspi_automode.o
                0x000082b8                qspi_operations_init
 .text.qspi_process_completed_operations
                0x000082e0       0x48 ./sdk/memory/src/qspi_automode.o
                0x000082e0                qspi_process_completed_operations
 .text.qspi_is_op_pending
                0x00008328       0x10 ./sdk/memory/src/qspi_automode.o
                0x00008328                qspi_is_op_pending
 .text.qspi_int_activate_command_entry_mode
                0x00008338       0x38 ./sdk/memory/src/qspi_automode.o
                0x00008338                qspi_int_activate_command_entry_mode
 .text.qspi_int_deactivate_command_entry_mode
                0x00008370       0x30 ./sdk/memory/src/qspi_automode.o
                0x00008370                qspi_int_deactivate_command_entry_mode
 .text.qspi_int_erase_sector_manual_mode
                0x000083a0       0x5c ./sdk/memory/src/qspi_automode.o
                0x000083a0                qspi_int_erase_sector_manual_mode
 .text.qspi_int_program_page_manual_mode
                0x000083fc        0x8 ./sdk/memory/src/qspi_automode.o
                0x000083fc                qspi_int_program_page_manual_mode
 .text.qspi_check_program_erase_in_progress
                0x00008404       0x24 ./sdk/memory/src/qspi_automode.o
                0x00008404                qspi_check_program_erase_in_progress
 .text.process_qspi_program_finish
                0x00008428       0x7c ./sdk/memory/src/qspi_automode.o
 .text.process_qspi_program
                0x000084a4       0x50 ./sdk/memory/src/qspi_automode.o
 .text.qspi_resume
                0x000084f4       0x50 ./sdk/memory/src/qspi_automode.o
                0x000084f4                qspi_resume
 .text.qspi_process_operations
                0x00008544       0xc4 ./sdk/memory/src/qspi_automode.o
                0x00008544                qspi_process_operations
 .text.qspi_check_and_suspend_operations
                0x00008608       0xb0 ./sdk/memory/src/qspi_automode.o
                0x00008608                qspi_check_and_suspend_operations
 .text.qspi_automode_flash_power_up
                0x000086b8       0x74 ./sdk/memory/src/qspi_automode.o
                0x000086b8                qspi_automode_flash_power_up
 .text.qspi_automode_flash_power_down
                0x0000872c       0x34 ./sdk/memory/src/qspi_automode.o
                0x0000872c                qspi_automode_flash_power_down
 .text.qspi_int_configure
                0x00008760      0x108 ./sdk/memory/src/qspi_automode.o
                0x00008760                qspi_int_configure
 .text.qspi_automode_init
                0x00008868       0x64 ./sdk/memory/src/qspi_automode.o
                0x00008868                qspi_automode_init
 .text.qspi_automode_sys_clock_cfg
                0x000088cc       0x60 ./sdk/memory/src/qspi_automode.o
                0x000088cc                qspi_automode_sys_clock_cfg
 .text.ad_crypto_init
                0x0000892c       0x10 ./sdk/adapters/src/ad_crypto.o
                0x0000892c                ad_crypto_init
 .text.ad_gpadc_init
                0x0000893c       0x20 ./sdk/adapters/src/ad_gpadc.o
                0x0000893c                ad_gpadc_init
 .text.ad_i2c_init
                0x0000895c       0x34 ./sdk/adapters/src/ad_i2c.o
                0x0000895c                ad_i2c_init
 .text.configure_power_rail
                0x00008990      0x3b4 ./sdk/adapters/src/ad_pmu.o
 .text.update_1v2_voltage
                0x00008d44       0xa8 ./sdk/adapters/src/ad_pmu.o
 .text.ad_pmu_init
                0x00008dec      0x174 ./sdk/adapters/src/ad_pmu.o
 .text.ad_pmu_1v2_force_max_voltage_request
                0x00008f60       0x34 ./sdk/adapters/src/ad_pmu.o
                0x00008f60                ad_pmu_1v2_force_max_voltage_request
 .text.ad_pmu_1v2_force_max_voltage_release
                0x00008f94       0x30 ./sdk/adapters/src/ad_pmu.o
                0x00008f94                ad_pmu_1v2_force_max_voltage_release
 .text.ad_pmu_prepare_for_sleep
                0x00008fc4       0x30 ./sdk/adapters/src/ad_pmu.o
                0x00008fc4                ad_pmu_prepare_for_sleep
 .text.ad_pmu_restore_for_wake_up
                0x00008ff4        0x8 ./sdk/adapters/src/ad_pmu.o
                0x00008ff4                ad_pmu_restore_for_wake_up
 .text.ad_sdadc_init
                0x00008ffc       0x18 ./sdk/adapters/src/ad_sdadc.o
                0x00008ffc                ad_sdadc_init
 .text.ad_spi_init
                0x00009014       0x34 ./sdk/adapters/src/ad_spi.o
                0x00009014                ad_spi_init
 .text.prvHeapInit
                0x00009048       0x50 ./sdk/FreeRTOS/portable/MemMang/heap_4.o
 .text.prvInsertBlockIntoFreeList
                0x00009098       0x54 ./sdk/FreeRTOS/portable/MemMang/heap_4.o
 .text.pvPortMalloc
                0x000090ec      0x124 ./sdk/FreeRTOS/portable/MemMang/heap_4.o
                0x000090ec                pvPortMalloc
 .text.vPortFree
                0x00009210       0x7c ./sdk/FreeRTOS/portable/MemMang/heap_4.o
                0x00009210                vPortFree
 .text.prvPortStartFirstTask
                0x0000928c       0x28 ./sdk/FreeRTOS/portable/GCC/DA1469x/port.o
 .text.vPortEnableVFP
                0x000092b4       0x14 ./sdk/FreeRTOS/portable/GCC/DA1469x/port.o
 .text.prvTaskExitError
                0x000092c8       0x40 ./sdk/FreeRTOS/portable/GCC/DA1469x/port.o
 .text.vGetRunTimeCounterValue
                0x00009308       0x1c ./sdk/FreeRTOS/portable/GCC/DA1469x/port.o
                0x00009308                vGetRunTimeCounterValue
 .text.pxPortInitialiseStack
                0x00009324       0x2c ./sdk/FreeRTOS/portable/GCC/DA1469x/port.o
                0x00009324                pxPortInitialiseStack
 .text.SVC_Handler
                0x00009350       0x24 ./sdk/FreeRTOS/portable/GCC/DA1469x/port.o
                0x00009350                SVC_Handler
 .text.vPortEnterCritical
                0x00009374       0x50 ./sdk/FreeRTOS/portable/GCC/DA1469x/port.o
                0x00009374                vPortEnterCritical
 .text.vPortExitCritical
                0x000093c4       0x38 ./sdk/FreeRTOS/portable/GCC/DA1469x/port.o
                0x000093c4                vPortExitCritical
 *fill*         0x000093fc        0x4 
 .text.PendSV_Handler
                0x00009400       0x64 ./sdk/FreeRTOS/portable/GCC/DA1469x/port.o
                0x00009400                PendSV_Handler
 .text.xPortTickAdvance
                0x00009464       0x18 ./sdk/FreeRTOS/portable/GCC/DA1469x/port.o
                0x00009464                xPortTickAdvance
 .text.vPortSetupTimerInterrupt
                0x0000947c        0xa ./sdk/FreeRTOS/portable/GCC/DA1469x/port.o
                0x0000947c                vPortSetupTimerInterrupt
 *fill*         0x00009486        0x2 
 .text.xPortStartScheduler
                0x00009488       0xec ./sdk/FreeRTOS/portable/GCC/DA1469x/port.o
                0x00009488                xPortStartScheduler
 .text.prvSystemSleep
                0x00009574       0x3c ./sdk/FreeRTOS/portable/GCC/DA1469x/port.o
                0x00009574                prvSystemSleep
 .text.vPortValidateInterruptPriority
                0x000095b0       0x6c ./sdk/FreeRTOS/portable/GCC/DA1469x/port.o
                0x000095b0                vPortValidateInterruptPriority
 .text.xEventGroupCreate
                0x0000961c       0x1a ./sdk/FreeRTOS/event_groups.o
                0x0000961c                xEventGroupCreate
 .text.xEventGroupClearBits
                0x00009636       0x56 ./sdk/FreeRTOS/event_groups.o
                0x00009636                xEventGroupClearBits
 .text.vEventGroupClearBitsCallback
                0x0000968c        0x8 ./sdk/FreeRTOS/event_groups.o
                0x0000968c                vEventGroupClearBitsCallback
 .text.xEventGroupClearBitsFromISR
                0x00009694       0x14 ./sdk/FreeRTOS/event_groups.o
                0x00009694                xEventGroupClearBitsFromISR
 .text.xEventGroupSetBits
                0x000096a8       0x9c ./sdk/FreeRTOS/event_groups.o
                0x000096a8                xEventGroupSetBits
 .text.vEventGroupSetBitsCallback
                0x00009744        0x8 ./sdk/FreeRTOS/event_groups.o
                0x00009744                vEventGroupSetBitsCallback
 .text.xEventGroupSetBitsFromISR
                0x0000974c       0x14 ./sdk/FreeRTOS/event_groups.o
                0x0000974c                xEventGroupSetBitsFromISR
 .text.vListInitialise
                0x00009760       0x16 ./sdk/FreeRTOS/list.o
                0x00009760                vListInitialise
 .text.vListInitialiseItem
                0x00009776        0x6 ./sdk/FreeRTOS/list.o
                0x00009776                vListInitialiseItem
 .text.vListInsertEnd
                0x0000977c       0x18 ./sdk/FreeRTOS/list.o
                0x0000977c                vListInsertEnd
 .text.vListInsert
                0x00009794       0x34 ./sdk/FreeRTOS/list.o
                0x00009794                vListInsert
 .text.uxListRemove
                0x000097c8       0x28 ./sdk/FreeRTOS/list.o
                0x000097c8                uxListRemove
 .text.prvGetDisinheritPriorityAfterTimeout
                0x000097f0       0x12 ./sdk/FreeRTOS/queue.o
 .text.prvIsQueueFull
                0x00009802       0x1e ./sdk/FreeRTOS/queue.o
 .text.prvIsQueueEmpty
                0x00009820       0x1a ./sdk/FreeRTOS/queue.o
 .text.prvCopyDataToQueue
                0x0000983a       0x76 ./sdk/FreeRTOS/queue.o
 .text.prvNotifyQueueSetContainer
                0x000098b0       0x88 ./sdk/FreeRTOS/queue.o
 .text.prvCopyDataFromQueue
                0x00009938       0x24 ./sdk/FreeRTOS/queue.o
 .text.prvUnlockQueue
                0x0000995c       0x84 ./sdk/FreeRTOS/queue.o
 .text.xQueueGenericReset
                0x000099e0       0x88 ./sdk/FreeRTOS/queue.o
                0x000099e0                xQueueGenericReset
 .text.prvInitialiseNewQueue
                0x00009a68       0x26 ./sdk/FreeRTOS/queue.o
 .text.xQueueGenericCreate
                0x00009a8e       0x50 ./sdk/FreeRTOS/queue.o
                0x00009a8e                xQueueGenericCreate
 *fill*         0x00009ade        0x2 
 .text.xQueueGenericSend
                0x00009ae0      0x1c4 ./sdk/FreeRTOS/queue.o
                0x00009ae0                xQueueGenericSend
 .text.prvInitialiseMutex
                0x00009ca4       0x18 ./sdk/FreeRTOS/queue.o
 .text.xQueueCreateMutex
                0x00009cbc       0x16 ./sdk/FreeRTOS/queue.o
                0x00009cbc                xQueueCreateMutex
 .text.xQueueGenericSendFromISR
                0x00009cd2      0x10a ./sdk/FreeRTOS/queue.o
                0x00009cd2                xQueueGenericSendFromISR
 .text.xQueueReceive
                0x00009ddc      0x174 ./sdk/FreeRTOS/queue.o
                0x00009ddc                xQueueReceive
 .text.xQueueSemaphoreTake
                0x00009f50      0x1bc ./sdk/FreeRTOS/queue.o
                0x00009f50                xQueueSemaphoreTake
 .text.vQueueAddToRegistry
                0x0000a10c       0x28 ./sdk/FreeRTOS/queue.o
                0x0000a10c                vQueueAddToRegistry
 .text.vQueueWaitForMessageRestricted
                0x0000a134       0x52 ./sdk/FreeRTOS/queue.o
                0x0000a134                vQueueWaitForMessageRestricted
 *fill*         0x0000a186        0x2 
 .text.prvGetExpectedIdleTime
                0x0000a188       0x40 ./sdk/FreeRTOS/tasks.o
 .text.prvResetNextTaskUnblockTime
                0x0000a1c8       0x2c ./sdk/FreeRTOS/tasks.o
 .text.prvDeleteTCB
                0x0000a1f4       0x12 ./sdk/FreeRTOS/tasks.o
 *fill*         0x0000a206        0x2 
 .text.prvTaskIsTaskSuspended
                0x0000a208       0x44 ./sdk/FreeRTOS/tasks.o
 .text.prvInitialiseNewTask
                0x0000a24c       0x94 ./sdk/FreeRTOS/tasks.o
 .text.prvInitialiseTaskLists
                0x0000a2e0       0x5c ./sdk/FreeRTOS/tasks.o
 .text.prvAddNewTaskToReadyList
                0x0000a33c       0xa0 ./sdk/FreeRTOS/tasks.o
 .text.prvCheckTasksWaitingTermination
                0x0000a3dc       0x44 ./sdk/FreeRTOS/tasks.o
 .text.prvAddCurrentTaskToDelayedList
                0x0000a420       0x80 ./sdk/FreeRTOS/tasks.o
 .text.freertos_tasks_c_additions_init
                0x0000a4a0       0x20 ./sdk/FreeRTOS/tasks.o
 .text.xTaskCreate
                0x0000a4c0       0x62 ./sdk/FreeRTOS/tasks.o
                0x0000a4c0                xTaskCreate
 *fill*         0x0000a522        0x2 
 .text.vTaskDelete
                0x0000a524       0xdc ./sdk/FreeRTOS/tasks.o
                0x0000a524                vTaskDelete
 .text.vTaskResume
                0x0000a600       0x88 ./sdk/FreeRTOS/tasks.o
                0x0000a600                vTaskResume
 .text.vTaskStartScheduler
                0x0000a688       0x90 ./sdk/FreeRTOS/tasks.o
                0x0000a688                vTaskStartScheduler
 .text.vTaskSuspendAll
                0x0000a718       0x14 ./sdk/FreeRTOS/tasks.o
                0x0000a718                vTaskSuspendAll
 .text.xTaskGetTickCount
                0x0000a72c        0xc ./sdk/FreeRTOS/tasks.o
                0x0000a72c                xTaskGetTickCount
 .text.vTaskStepTick
                0x0000a738       0x40 ./sdk/FreeRTOS/tasks.o
                0x0000a738                vTaskStepTick
 .text.xTaskIncrementTick
                0x0000a778      0x130 ./sdk/FreeRTOS/tasks.o
                0x0000a778                xTaskIncrementTick
 .text.xTaskResumeAll
                0x0000a8a8       0xfc ./sdk/FreeRTOS/tasks.o
                0x0000a8a8                xTaskResumeAll
 .text.vTaskDelay
                0x0000a9a4       0x54 ./sdk/FreeRTOS/tasks.o
                0x0000a9a4                vTaskDelay
 .text.prvIdleTask
                0x0000a9f8       0x70 ./sdk/FreeRTOS/tasks.o
 .text.vTaskSwitchContext
                0x0000aa68       0xe0 ./sdk/FreeRTOS/tasks.o
                0x0000aa68                vTaskSwitchContext
 .text.vTaskPlaceOnEventList
                0x0000ab48       0x38 ./sdk/FreeRTOS/tasks.o
                0x0000ab48                vTaskPlaceOnEventList
 .text.vTaskPlaceOnEventListRestricted
                0x0000ab80       0x40 ./sdk/FreeRTOS/tasks.o
                0x0000ab80                vTaskPlaceOnEventListRestricted
 .text.xTaskRemoveFromEventList
                0x0000abc0       0x8c ./sdk/FreeRTOS/tasks.o
                0x0000abc0                xTaskRemoveFromEventList
 .text.vTaskRemoveFromUnorderedEventList
                0x0000ac4c       0x8c ./sdk/FreeRTOS/tasks.o
                0x0000ac4c                vTaskRemoveFromUnorderedEventList
 .text.vTaskInternalSetTimeOutState
                0x0000acd8       0x14 ./sdk/FreeRTOS/tasks.o
                0x0000acd8                vTaskInternalSetTimeOutState
 .text.xTaskCheckForTimeOut
                0x0000acec       0x90 ./sdk/FreeRTOS/tasks.o
                0x0000acec                xTaskCheckForTimeOut
 .text.vTaskMissedYield
                0x0000ad7c       0x10 ./sdk/FreeRTOS/tasks.o
                0x0000ad7c                vTaskMissedYield
 .text.eTaskConfirmSleepModeStatus
                0x0000ad8c       0x34 ./sdk/FreeRTOS/tasks.o
                0x0000ad8c                eTaskConfirmSleepModeStatus
 .text.xTaskGetSchedulerState
                0x0000adc0       0x20 ./sdk/FreeRTOS/tasks.o
                0x0000adc0                xTaskGetSchedulerState
 .text.xTaskPriorityInherit
                0x0000ade0       0xb4 ./sdk/FreeRTOS/tasks.o
                0x0000ade0                xTaskPriorityInherit
 .text.xTaskPriorityDisinherit
                0x0000ae94       0xb8 ./sdk/FreeRTOS/tasks.o
                0x0000ae94                xTaskPriorityDisinherit
 .text.vTaskPriorityDisinheritAfterTimeout
                0x0000af4c       0xc8 ./sdk/FreeRTOS/tasks.o
                0x0000af4c                vTaskPriorityDisinheritAfterTimeout
 .text.pvTaskIncrementMutexHeldCount
                0x0000b014       0x1c ./sdk/FreeRTOS/tasks.o
                0x0000b014                pvTaskIncrementMutexHeldCount
 .text.prvGetNextExpireTime
                0x0000b030       0x20 ./sdk/FreeRTOS/timers.o
 .text.prvInsertTimerInActiveList
                0x0000b050       0x44 ./sdk/FreeRTOS/timers.o
 .text.prvCheckForValidListAndQueue
                0x0000b094       0x4c ./sdk/FreeRTOS/timers.o
 .text.prvInitialiseNewTimer
                0x0000b0e0       0x48 ./sdk/FreeRTOS/timers.o
 .text.xTimerCreateTimerTask
                0x0000b128       0x54 ./sdk/FreeRTOS/timers.o
                0x0000b128                xTimerCreateTimerTask
 .text.xTimerCreate
                0x0000b17c       0x32 ./sdk/FreeRTOS/timers.o
                0x0000b17c                xTimerCreate
 *fill*         0x0000b1ae        0x2 
 .text.xTimerGenericCommand
                0x0000b1b0       0x74 ./sdk/FreeRTOS/timers.o
                0x0000b1b0                xTimerGenericCommand
 .text.prvSwitchTimerLists
                0x0000b224       0x90 ./sdk/FreeRTOS/timers.o
 .text.prvSampleTimeNow
                0x0000b2b4       0x2c ./sdk/FreeRTOS/timers.o
 .text.prvProcessExpiredTimer
                0x0000b2e0       0x68 ./sdk/FreeRTOS/timers.o
 .text.prvProcessTimerOrBlockTask
                0x0000b348       0x70 ./sdk/FreeRTOS/timers.o
 .text.prvProcessReceivedCommands
                0x0000b3b8      0x104 ./sdk/FreeRTOS/timers.o
 .text.prvTimerTask
                0x0000b4bc       0x16 ./sdk/FreeRTOS/timers.o
 *fill*         0x0000b4d2        0x2 
 .text.xTimerPendFunctionCallFromISR
                0x0000b4d4       0x28 ./sdk/FreeRTOS/timers.o
                0x0000b4d4                xTimerPendFunctionCallFromISR
 .text.Send_Command
                0x0000b4fc       0x10 ./I2C_Interface/I2CAdapter.o
                0x0000b4fc                Send_Command
 .text.ConfiguredCheck
                0x0000b50c        0xc ./I2C_Interface/I2CAdapter.o
                0x0000b50c                ConfiguredCheck
 .text.Change_Slave_address
                0x0000b518       0x3c ./I2C_Interface/I2CAdapter.o
                0x0000b518                Change_Slave_address
 .text.I2C_Configure
                0x0000b554       0xdc ./I2C_Interface/I2CAdapter.o
                0x0000b554                I2C_Configure
 .text.I2C_IO_Setup
                0x0000b630       0x50 ./I2C_Interface/I2CAdapter.o
                0x0000b630                I2C_IO_Setup
 .text.Pressure_Setup
                0x0000b680       0x16 ./I2C_Interface/Pressure.o
                0x0000b680                Pressure_Setup
 *fill*         0x0000b696        0x2 
 .text.Pressure_Setup_State
                0x0000b698       0x48 ./I2C_Interface/Pressure.o
                0x0000b698                Pressure_Setup_State
 .text.Pressure_Timer1
                0x0000b6e0       0x28 ./I2C_Interface/Pressure.o
                0x0000b6e0                Pressure_Timer1
 .text.ADC_Handler
                0x0000b708       0x1c ./ADC_Interface/GPADCAdapter.o
                0x0000b708                ADC_Handler
 .text.periph_init
                0x0000b724        0x2 ./main.o
 *fill*         0x0000b726        0x2 
 .text.prvTemplateTask
                0x0000b728       0x14 ./main.o
 .text.main     0x0000b73c       0x48 ./main.o
                0x0000b73c                main
 .text.wkup_init
                0x0000b784       0x24 ./main.o
                0x0000b784                wkup_init
 .text.prvSetupHardware
                0x0000b7a8       0x38 ./main.o
 .text.system_init
                0x0000b7e0       0x98 ./main.o
 .text.vApplicationMallocFailedHook
                0x0000b878       0x14 ./main.o
                0x0000b878                vApplicationMallocFailedHook
 .text.vApplicationStackOverflowHook
                0x0000b88c       0x14 ./main.o
                0x0000b88c                vApplicationStackOverflowHook
 .text.vApplicationTickHook
                0x0000b8a0        0x8 ./main.o
                0x0000b8a0                vApplicationTickHook
 .text.exit     0x0000b8a8       0x28 c:/diasemi/smartsnippetsstudio2.0.10/gcc/7-2018-q2/bin/../lib/gcc/arm-none-eabi/7.3.1/../../../../arm-none-eabi/lib/thumb/v8-m.main/fpv5-sp/hard\libg_nano.a(lib_a-exit.o)
                0x0000b8a8                exit
 .text.__sflush_r
                0x0000b8d0      0x108 c:/diasemi/smartsnippetsstudio2.0.10/gcc/7-2018-q2/bin/../lib/gcc/arm-none-eabi/7.3.1/../../../../arm-none-eabi/lib/thumb/v8-m.main/fpv5-sp/hard\libg_nano.a(lib_a-fflush.o)
                0x0000b8d0                __sflush_r
 .text._fflush_r
                0x0000b9d8       0x54 c:/diasemi/smartsnippetsstudio2.0.10/gcc/7-2018-q2/bin/../lib/gcc/arm-none-eabi/7.3.1/../../../../arm-none-eabi/lib/thumb/v8-m.main/fpv5-sp/hard\libg_nano.a(lib_a-fflush.o)
                0x0000b9d8                _fflush_r
 .text.std      0x0000ba2c       0x48 c:/diasemi/smartsnippetsstudio2.0.10/gcc/7-2018-q2/bin/../lib/gcc/arm-none-eabi/7.3.1/../../../../arm-none-eabi/lib/thumb/v8-m.main/fpv5-sp/hard\libg_nano.a(lib_a-findfp.o)
 .text._cleanup_r
                0x0000ba74        0xc c:/diasemi/smartsnippetsstudio2.0.10/gcc/7-2018-q2/bin/../lib/gcc/arm-none-eabi/7.3.1/../../../../arm-none-eabi/lib/thumb/v8-m.main/fpv5-sp/hard\libg_nano.a(lib_a-findfp.o)
                0x0000ba74                _cleanup_r
 .text.__sfmoreglue
                0x0000ba80       0x2c c:/diasemi/smartsnippetsstudio2.0.10/gcc/7-2018-q2/bin/../lib/gcc/arm-none-eabi/7.3.1/../../../../arm-none-eabi/lib/thumb/v8-m.main/fpv5-sp/hard\libg_nano.a(lib_a-findfp.o)
                0x0000ba80                __sfmoreglue
 .text.__sinit  0x0000baac       0x60 c:/diasemi/smartsnippetsstudio2.0.10/gcc/7-2018-q2/bin/../lib/gcc/arm-none-eabi/7.3.1/../../../../arm-none-eabi/lib/thumb/v8-m.main/fpv5-sp/hard\libg_nano.a(lib_a-findfp.o)
                0x0000baac                __sinit
 .text.__sfp    0x0000bb0c       0x78 c:/diasemi/smartsnippetsstudio2.0.10/gcc/7-2018-q2/bin/../lib/gcc/arm-none-eabi/7.3.1/../../../../arm-none-eabi/lib/thumb/v8-m.main/fpv5-sp/hard\libg_nano.a(lib_a-findfp.o)
                0x0000bb0c                __sfp
 .text._fwalk_reent
                0x0000bb84       0x3c c:/diasemi/smartsnippetsstudio2.0.10/gcc/7-2018-q2/bin/../lib/gcc/arm-none-eabi/7.3.1/../../../../arm-none-eabi/lib/thumb/v8-m.main/fpv5-sp/hard\libg_nano.a(lib_a-fwalk.o)
                0x0000bb84                _fwalk_reent
 .text.__libc_init_array
                0x0000bbc0       0x48 c:/diasemi/smartsnippetsstudio2.0.10/gcc/7-2018-q2/bin/../lib/gcc/arm-none-eabi/7.3.1/../../../../arm-none-eabi/lib/thumb/v8-m.main/fpv5-sp/hard\libg_nano.a(lib_a-init.o)
                0x0000bbc0                __libc_init_array
 .text.memcpy   0x0000bc08       0x16 c:/diasemi/smartsnippetsstudio2.0.10/gcc/7-2018-q2/bin/../lib/gcc/arm-none-eabi/7.3.1/../../../../arm-none-eabi/lib/thumb/v8-m.main/fpv5-sp/hard\libg_nano.a(lib_a-memcpy-stub.o)
                0x0000bc08                memcpy
 .text.memset   0x0000bc1e       0x10 c:/diasemi/smartsnippetsstudio2.0.10/gcc/7-2018-q2/bin/../lib/gcc/arm-none-eabi/7.3.1/../../../../arm-none-eabi/lib/thumb/v8-m.main/fpv5-sp/hard\libg_nano.a(lib_a-memset.o)
                0x0000bc1e                memset
 *fill*         0x0000bc2e        0x2 
 .text._free_r  0x0000bc30       0x9c c:/diasemi/smartsnippetsstudio2.0.10/gcc/7-2018-q2/bin/../lib/gcc/arm-none-eabi/7.3.1/../../../../arm-none-eabi/lib/thumb/v8-m.main/fpv5-sp/hard\libg_nano.a(lib_a-nano-freer.o)
                0x0000bc30                _free_r
 .text._malloc_r
                0x0000bccc       0xb4 c:/diasemi/smartsnippetsstudio2.0.10/gcc/7-2018-q2/bin/../lib/gcc/arm-none-eabi/7.3.1/../../../../arm-none-eabi/lib/thumb/v8-m.main/fpv5-sp/hard\libg_nano.a(lib_a-nano-mallocr.o)
                0x0000bccc                _malloc_r
 .text._sbrk_r  0x0000bd80       0x20 c:/diasemi/smartsnippetsstudio2.0.10/gcc/7-2018-q2/bin/../lib/gcc/arm-none-eabi/7.3.1/../../../../arm-none-eabi/lib/thumb/v8-m.main/fpv5-sp/hard\libg_nano.a(lib_a-sbrkr.o)
                0x0000bd80                _sbrk_r
 .text.setvbuf  0x0000bda0      0x158 c:/diasemi/smartsnippetsstudio2.0.10/gcc/7-2018-q2/bin/../lib/gcc/arm-none-eabi/7.3.1/../../../../arm-none-eabi/lib/thumb/v8-m.main/fpv5-sp/hard\libg_nano.a(lib_a-setvbuf.o)
                0x0000bda0                setvbuf
 .text.__sread  0x0000bef8       0x22 c:/diasemi/smartsnippetsstudio2.0.10/gcc/7-2018-q2/bin/../lib/gcc/arm-none-eabi/7.3.1/../../../../arm-none-eabi/lib/thumb/v8-m.main/fpv5-sp/hard\libg_nano.a(lib_a-stdio.o)
                0x0000bef8                __sread
 .text.__swrite
                0x0000bf1a       0x38 c:/diasemi/smartsnippetsstudio2.0.10/gcc/7-2018-q2/bin/../lib/gcc/arm-none-eabi/7.3.1/../../../../arm-none-eabi/lib/thumb/v8-m.main/fpv5-sp/hard\libg_nano.a(lib_a-stdio.o)
                0x0000bf1a                __swrite
 .text.__sseek  0x0000bf52       0x24 c:/diasemi/smartsnippetsstudio2.0.10/gcc/7-2018-q2/bin/../lib/gcc/arm-none-eabi/7.3.1/../../../../arm-none-eabi/lib/thumb/v8-m.main/fpv5-sp/hard\libg_nano.a(lib_a-stdio.o)
                0x0000bf52                __sseek
 .text.__sclose
                0x0000bf76        0x8 c:/diasemi/smartsnippetsstudio2.0.10/gcc/7-2018-q2/bin/../lib/gcc/arm-none-eabi/7.3.1/../../../../arm-none-eabi/lib/thumb/v8-m.main/fpv5-sp/hard\libg_nano.a(lib_a-stdio.o)
                0x0000bf76                __sclose
 *fill*         0x0000bf7e        0x2 
 .text._write_r
                0x0000bf80       0x24 c:/diasemi/smartsnippetsstudio2.0.10/gcc/7-2018-q2/bin/../lib/gcc/arm-none-eabi/7.3.1/../../../../arm-none-eabi/lib/thumb/v8-m.main/fpv5-sp/hard\libg_nano.a(lib_a-writer.o)
                0x0000bf80                _write_r
 .text._close_r
                0x0000bfa4       0x20 c:/diasemi/smartsnippetsstudio2.0.10/gcc/7-2018-q2/bin/../lib/gcc/arm-none-eabi/7.3.1/../../../../arm-none-eabi/lib/thumb/v8-m.main/fpv5-sp/hard\libg_nano.a(lib_a-closer.o)
                0x0000bfa4                _close_r
 .text._lseek_r
                0x0000bfc4       0x24 c:/diasemi/smartsnippetsstudio2.0.10/gcc/7-2018-q2/bin/../lib/gcc/arm-none-eabi/7.3.1/../../../../arm-none-eabi/lib/thumb/v8-m.main/fpv5-sp/hard\libg_nano.a(lib_a-lseekr.o)
                0x0000bfc4                _lseek_r
 .text.__swhatbuf_r
                0x0000bfe8       0x48 c:/diasemi/smartsnippetsstudio2.0.10/gcc/7-2018-q2/bin/../lib/gcc/arm-none-eabi/7.3.1/../../../../arm-none-eabi/lib/thumb/v8-m.main/fpv5-sp/hard\libg_nano.a(lib_a-makebuf.o)
                0x0000bfe8                __swhatbuf_r
 .text.malloc   0x0000c030       0x10 c:/diasemi/smartsnippetsstudio2.0.10/gcc/7-2018-q2/bin/../lib/gcc/arm-none-eabi/7.3.1/../../../../arm-none-eabi/lib/thumb/v8-m.main/fpv5-sp/hard\libg_nano.a(lib_a-malloc.o)
                0x0000c030                malloc
 .text.__malloc_lock
                0x0000c040        0x2 c:/diasemi/smartsnippetsstudio2.0.10/gcc/7-2018-q2/bin/../lib/gcc/arm-none-eabi/7.3.1/../../../../arm-none-eabi/lib/thumb/v8-m.main/fpv5-sp/hard\libg_nano.a(lib_a-mlock.o)
                0x0000c040                __malloc_lock
 .text.__malloc_unlock
                0x0000c042        0x2 c:/diasemi/smartsnippetsstudio2.0.10/gcc/7-2018-q2/bin/../lib/gcc/arm-none-eabi/7.3.1/../../../../arm-none-eabi/lib/thumb/v8-m.main/fpv5-sp/hard\libg_nano.a(lib_a-mlock.o)
                0x0000c042                __malloc_unlock
 .text._read_r  0x0000c044       0x24 c:/diasemi/smartsnippetsstudio2.0.10/gcc/7-2018-q2/bin/../lib/gcc/arm-none-eabi/7.3.1/../../../../arm-none-eabi/lib/thumb/v8-m.main/fpv5-sp/hard\libg_nano.a(lib_a-readr.o)
                0x0000c044                _read_r
 .text._fstat_r
                0x0000c068       0x24 c:/diasemi/smartsnippetsstudio2.0.10/gcc/7-2018-q2/bin/../lib/gcc/arm-none-eabi/7.3.1/../../../../arm-none-eabi/lib/thumb/v8-m.main/fpv5-sp/hard\libg_nano.a(lib_a-fstatr.o)
                0x0000c068                _fstat_r
 .text._close   0x0000c08c       0x10 c:/diasemi/smartsnippetsstudio2.0.10/gcc/7-2018-q2/bin/../lib/gcc/arm-none-eabi/7.3.1/../../../../arm-none-eabi/lib/thumb/v8-m.main/fpv5-sp/hard\libnosys.a(close.o)
                0x0000c08c                _close
 .text._fstat   0x0000c09c       0x10 c:/diasemi/smartsnippetsstudio2.0.10/gcc/7-2018-q2/bin/../lib/gcc/arm-none-eabi/7.3.1/../../../../arm-none-eabi/lib/thumb/v8-m.main/fpv5-sp/hard\libnosys.a(fstat.o)
                0x0000c09c                _fstat
 .text._lseek   0x0000c0ac       0x10 c:/diasemi/smartsnippetsstudio2.0.10/gcc/7-2018-q2/bin/../lib/gcc/arm-none-eabi/7.3.1/../../../../arm-none-eabi/lib/thumb/v8-m.main/fpv5-sp/hard\libnosys.a(lseek.o)
                0x0000c0ac                _lseek
 .text._exit    0x0000c0bc        0x4 c:/diasemi/smartsnippetsstudio2.0.10/gcc/7-2018-q2/bin/../lib/gcc/arm-none-eabi/7.3.1/../../../../arm-none-eabi/lib/thumb/v8-m.main/fpv5-sp/hard\libnosys.a(_exit.o)
                0x0000c0bc                _exit
                0x0000c0c0                . = ALIGN (0x4)
                0x0000c0c0                __start_adapter_init_section = .
 *(adapter_init_section)
 adapter_init_section
                0x0000c0c0        0x0 ./sdk/sys_man/sys_power_mgr_da1469x.o
 adapter_init_section
                0x0000c0c0        0x4 ./sdk/adapters/src/ad_crypto.o
                0x0000c0c0                crypto_adapter_ptr
 adapter_init_section
                0x0000c0c4        0x4 ./sdk/adapters/src/ad_gpadc.o
                0x0000c0c4                ad_gpadc_adapter_ptr
 adapter_init_section
                0x0000c0c8        0x4 ./sdk/adapters/src/ad_i2c.o
                0x0000c0c8                ad_i2c_adapter_ptr
 adapter_init_section
                0x0000c0cc        0x4 ./sdk/adapters/src/ad_pmu.o
                0x0000c0cc                ad_pmu_adapter_ptr
 adapter_init_section
                0x0000c0d0        0x4 ./sdk/adapters/src/ad_sdadc.o
                0x0000c0d0                ad_sdadc_adapter_ptr
 adapter_init_section
                0x0000c0d4        0x4 ./sdk/adapters/src/ad_spi.o
                0x0000c0d4                ad_spi_adapter_ptr
                0x0000c0d8                __stop_adapter_init_section = .
                0x0000c0d8                __start_bus_init_section = .
 *(bus_init_section)
 bus_init_section
                0x0000c0d8        0x0 ./sdk/sys_man/sys_power_mgr_da1469x.o
                0x0000c0d8                __stop_bus_init_section = .
                0x0000c0d8                __start_device_init_section = .
 *(device_init_section)
 device_init_section
                0x0000c0d8        0x0 ./sdk/sys_man/sys_power_mgr_da1469x.o
                0x0000c0d8                __stop_device_init_section = .
 *(.init)
 .init          0x0000c0d8        0x4 c:/diasemi/smartsnippetsstudio2.0.10/gcc/7-2018-q2/bin/../lib/gcc/arm-none-eabi/7.3.1/thumb/v8-m.main/fpv5-sp/hard/crti.o
                0x0000c0d8                _init
 .init          0x0000c0dc        0x8 c:/diasemi/smartsnippetsstudio2.0.10/gcc/7-2018-q2/bin/../lib/gcc/arm-none-eabi/7.3.1/thumb/v8-m.main/fpv5-sp/hard/crtn.o
 *(.fini)
 .fini          0x0000c0e4        0x4 c:/diasemi/smartsnippetsstudio2.0.10/gcc/7-2018-q2/bin/../lib/gcc/arm-none-eabi/7.3.1/thumb/v8-m.main/fpv5-sp/hard/crti.o
                0x0000c0e4                _fini
 .fini          0x0000c0e8        0x8 c:/diasemi/smartsnippetsstudio2.0.10/gcc/7-2018-q2/bin/../lib/gcc/arm-none-eabi/7.3.1/thumb/v8-m.main/fpv5-sp/hard/crtn.o
 *crtbegin.o(.ctors)
 *crtbegin?.o(.ctors)
 *(EXCLUDE_FILE(*crtend.o *crtend?.o) .ctors)
 *(SORT_BY_NAME(.ctors.*))
 *(.ctors)
 *crtbegin.o(.dtors)
 *crtbegin?.o(.dtors)
 *(EXCLUDE_FILE(*crtend.o *crtend?.o) .dtors)
 *(SORT_BY_NAME(.dtors.*))
 *(.dtors)
                0x0000c0f0                . = ALIGN (0x4)
                0x0000c0f0                PROVIDE (__preinit_array_start = .)
 *(.preinit_array)
                0x0000c0f0                PROVIDE (__preinit_array_end = .)
                0x0000c0f0                . = ALIGN (0x4)
                0x0000c0f0                PROVIDE (__init_array_start = .)
 *(SORT_BY_NAME(.init_array.*))
 *(.init_array)
 .init_array    0x0000c0f0        0x4 c:/diasemi/smartsnippetsstudio2.0.10/gcc/7-2018-q2/bin/../lib/gcc/arm-none-eabi/7.3.1/thumb/v8-m.main/fpv5-sp/hard/crtbegin.o
                0x0000c0f4                PROVIDE (__init_array_end = .)
                0x0000c0f4                . = ALIGN (0x4)
                [!provide]                PROVIDE (__fini_array_start = .)
 *(SORT_BY_NAME(.fini_array.*))
 *(.fini_array)
 .fini_array    0x0000c0f4        0x4 c:/diasemi/smartsnippetsstudio2.0.10/gcc/7-2018-q2/bin/../lib/gcc/arm-none-eabi/7.3.1/thumb/v8-m.main/fpv5-sp/hard/crtbegin.o
                [!provide]                PROVIDE (__fini_array_end = .)
 *(.rodata*)
 .rodata.__dialog_interrupt_priorities
                0x0000c0f8       0x39 ./startup/DA1469x/init_da1469x.o
                0x0000c0f8                __dialog_interrupt_priorities
 *fill*         0x0000c131        0x3 
 .rodata.flash_region_sizes.10798
                0x0000c134       0x20 ./startup/DA1469x/init_da1469x.o
 .rodata.remap.10797
                0x0000c154       0x20 ./startup/DA1469x/init_da1469x.o
 .rodata.cm_lp_clk_init.str1.4
                0x0000c174        0x6 ./sdk/sys_man/sys_clock_mgr_da1469x.o
 *fill*         0x0000c17a        0x2 
 .rodata.hw_gpio_port_num_pins
                0x0000c17c        0x2 ./sdk/peripherals/src/hw_gpio.o
                0x0000c17c                hw_gpio_port_num_pins
 *fill*         0x0000c17e        0x2 
 .rodata.tim1   0x0000c180       0x10 ./sdk/peripherals/src/hw_otpc_da1469x.o
 .rodata.chk_1v2_deps_wakeup
                0x0000c190        0x4 ./sdk/peripherals/src/hw_pmu_da1469x.o
 .rodata.chk_3v0_deps_sleep
                0x0000c194        0x4 ./sdk/peripherals/src/hw_pmu_da1469x.o
 .rodata.chk_3v0_deps_wakeup
                0x0000c198        0x6 ./sdk/peripherals/src/hw_pmu_da1469x.o
 *fill*         0x0000c19e        0x2 
 .rodata.v12_clamp_voltage_mv
                0x0000c1a0       0x3c ./sdk/peripherals/src/hw_pmu_da1469x.o
 .rodata.v12_sleep_voltage_mv
                0x0000c1dc       0x18 ./sdk/peripherals/src/hw_pmu_da1469x.o
 .rodata.v12_srcs_wakeup
                0x0000c1f4        0x2 ./sdk/peripherals/src/hw_pmu_da1469x.o
 *fill*         0x0000c1f6        0x2 
 .rodata.v12_voltage_mv
                0x0000c1f8       0x10 ./sdk/peripherals/src/hw_pmu_da1469x.o
 .rodata.v14_voltage_mv
                0x0000c208       0x20 ./sdk/peripherals/src/hw_pmu_da1469x.o
 .rodata.v18_voltage_mv
                0x0000c228        0x8 ./sdk/peripherals/src/hw_pmu_da1469x.o
 .rodata.v30_srcs_sleep
                0x0000c230        0x2 ./sdk/peripherals/src/hw_pmu_da1469x.o
 *fill*         0x0000c232        0x2 
 .rodata.v30_srcs_wakeup
                0x0000c234        0x3 ./sdk/peripherals/src/hw_pmu_da1469x.o
 *fill*         0x0000c237        0x1 
 .rodata.v30_voltage_mv
                0x0000c238       0x10 ./sdk/peripherals/src/hw_pmu_da1469x.o
 .rodata        0x0000c248        0x8 ./sdk/peripherals/src/hw_sys_da1469x.o
 .rodata.ad_crypto_pm_cbs
                0x0000c250       0x14 ./sdk/adapters/src/ad_crypto.o
                0x0000c250                ad_crypto_pm_cbs
 .rodata.crypto_adapter
                0x0000c264        0xc ./sdk/adapters/src/ad_crypto.o
                0x0000c264                crypto_adapter
 .rodata.ad_gpadc_adapter
                0x0000c270        0xc ./sdk/adapters/src/ad_gpadc.o
                0x0000c270                ad_gpadc_adapter
 .rodata.ad_i2c_adapter
                0x0000c27c        0xc ./sdk/adapters/src/ad_i2c.o
                0x0000c27c                ad_i2c_adapter
 .rodata.ad_pmu_adapter
                0x0000c288        0xc ./sdk/adapters/src/ad_pmu.o
                0x0000c288                ad_pmu_adapter
 .rodata.ad_pmu_pm_call_backs
                0x0000c294       0x14 ./sdk/adapters/src/ad_pmu.o
                0x0000c294                ad_pmu_pm_call_backs
 .rodata.ad_sdadc_adapter
                0x0000c2a8        0xc ./sdk/adapters/src/ad_sdadc.o
                0x0000c2a8                ad_sdadc_adapter
 .rodata.ad_spi_adapter
                0x0000c2b4        0xc ./sdk/adapters/src/ad_spi.o
                0x0000c2b4                ad_spi_adapter
 .rodata.vTaskStartScheduler.str1.4
                0x0000c2c0        0x5 ./sdk/FreeRTOS/tasks.o
 *fill*         0x0000c2c5        0x3 
 .rodata.prvCheckForValidListAndQueue.str1.4
                0x0000c2c8        0x5 ./sdk/FreeRTOS/timers.o
 *fill*         0x0000c2cd        0x3 
 .rodata.xTimerCreateTimerTask.str1.4
                0x0000c2d0        0x8 ./sdk/FreeRTOS/timers.o
 .rodata.drv_EEPROM_24FC256
                0x0000c2d8       0x1c ./I2C_Interface/I2CAdapter.o
                0x0000c2d8                drv_EEPROM_24FC256
 .rodata.main.str1.4
                0x0000c2f4        0x8 ./main.o
 .rodata.system_init.str1.4
                0x0000c2fc        0xc ./main.o
                                  0x9 (size before relaxing)
 .rodata.__sf_fake_stderr
                0x0000c308       0x20 c:/diasemi/smartsnippetsstudio2.0.10/gcc/7-2018-q2/bin/../lib/gcc/arm-none-eabi/7.3.1/../../../../arm-none-eabi/lib/thumb/v8-m.main/fpv5-sp/hard\libg_nano.a(lib_a-findfp.o)
                0x0000c308                __sf_fake_stderr
 .rodata.__sf_fake_stdin
                0x0000c328       0x20 c:/diasemi/smartsnippetsstudio2.0.10/gcc/7-2018-q2/bin/../lib/gcc/arm-none-eabi/7.3.1/../../../../arm-none-eabi/lib/thumb/v8-m.main/fpv5-sp/hard\libg_nano.a(lib_a-findfp.o)
                0x0000c328                __sf_fake_stdin
 .rodata.__sf_fake_stdout
                0x0000c348       0x20 c:/diasemi/smartsnippetsstudio2.0.10/gcc/7-2018-q2/bin/../lib/gcc/arm-none-eabi/7.3.1/../../../../arm-none-eabi/lib/thumb/v8-m.main/fpv5-sp/hard\libg_nano.a(lib_a-findfp.o)
                0x0000c348                __sf_fake_stdout
 .rodata._global_impure_ptr
                0x0000c368        0x4 c:/diasemi/smartsnippetsstudio2.0.10/gcc/7-2018-q2/bin/../lib/gcc/arm-none-eabi/7.3.1/../../../../arm-none-eabi/lib/thumb/v8-m.main/fpv5-sp/hard\libg_nano.a(lib_a-impure.o)
                0x0000c368                _global_impure_ptr
 *(.eh_frame*)
 .eh_frame      0x0000c36c        0x0 c:/diasemi/smartsnippetsstudio2.0.10/gcc/7-2018-q2/bin/../lib/gcc/arm-none-eabi/7.3.1/thumb/v8-m.main/fpv5-sp/hard/crtbegin.o
 .eh_frame      0x0000c36c        0x4 c:/diasemi/smartsnippetsstudio2.0.10/gcc/7-2018-q2/bin/../lib/gcc/arm-none-eabi/7.3.1/thumb/v8-m.main/fpv5-sp/hard/crtend.o

.glue_7         0x0000c370        0x0
 .glue_7        0x0000c370        0x0 linker stubs

.glue_7t        0x0000c370        0x0
 .glue_7t       0x0000c370        0x0 linker stubs

.vfp11_veneer   0x0000c370        0x0
 .vfp11_veneer  0x0000c370        0x0 linker stubs

.v4_bx          0x0000c370        0x0
 .v4_bx         0x0000c370        0x0 linker stubs

.iplt           0x0000c370        0x0
 .iplt          0x0000c370        0x0 c:/diasemi/smartsnippetsstudio2.0.10/gcc/7-2018-q2/bin/../lib/gcc/arm-none-eabi/7.3.1/thumb/v8-m.main/fpv5-sp/hard/crtbegin.o

.ARM.extab
 *(.ARM.extab* .gnu.linkonce.armextab.*)
                0x0000c370                __exidx_start = .

.ARM.exidx      0x0000c370        0x8
 *(.ARM.exidx* .gnu.linkonce.armexidx.*)
 .ARM.exidx     0x0000c370        0x8 c:/diasemi/smartsnippetsstudio2.0.10/gcc/7-2018-q2/bin/../lib/gcc/arm-none-eabi/7.3.1/../../../../arm-none-eabi/lib/thumb/v8-m.main/fpv5-sp/hard/crt0.o
                0x0000c378                __exidx_end = .

.rel.dyn        0x0000c378        0x0
 .rel.iplt      0x0000c378        0x0 c:/diasemi/smartsnippetsstudio2.0.10/gcc/7-2018-q2/bin/../lib/gcc/arm-none-eabi/7.3.1/thumb/v8-m.main/fpv5-sp/hard/crtbegin.o

.copy.table     0x0000c378        0x0
                0x0000c378                . = ALIGN (0x4)
                0x0000c378                __copy_table_start__ = .
                0x0000c378                __copy_table_end__ = .

.zero.table     0x0000c378       0x10
                0x0000c378                . = ALIGN (0x4)
                0x0000c378                __zero_table_start__ = .
                0x0000c378        0x4 LONG 0x11038 __bss_start__
                0x0000c37c        0x4 LONG 0x208 (__bss_end__ - __bss_start__)
                0x0000c380        0x4 LONG 0xc698 __retention_ram_zi_start__
                0x0000c384        0x4 LONG 0x4770 (__retention_ram_zi_end__ - __retention_ram_zi_start__)
                0x0000c388                __zero_table_end__ = .
                0x0000c388                __etext = .

.igot.plt       0x0000c388        0x0
 .igot.plt      0x0000c388        0x0 c:/diasemi/smartsnippetsstudio2.0.10/gcc/7-2018-q2/bin/../lib/gcc/arm-none-eabi/7.3.1/thumb/v8-m.main/fpv5-sp/hard/crtbegin.o

.retention_ram_uninit
                0x0000c388       0x80
                0x0000c388                __retention_ram_uninit_start__ = .
 *(nmi_info)
 nmi_info       0x0000c388       0x24 ./sdk/peripherals/src/hw_watchdog.o
                0x0000c388                nmi_event_data
 *(hard_fault_info)
 hard_fault_info
                0x0000c3ac       0x24 ./sdk/peripherals/src/hw_hard_fault.o
                0x0000c3ac                hardfault_event_data
 *(retention_mem_uninit)
 retention_mem_uninit
                0x0000c3d0        0x4 ./startup/DA1469x/init_da1469x.o
                0x0000c3d0                black_orca_chip_version
 retention_mem_uninit
                0x0000c3d4        0x2 ./sdk/peripherals/src/hw_bod_da1469x.o
                0x0000c3d4                hw_bod_enabled_in_tcs
                0x00000001                ASSERT ((. <= (__retention_ram_uninit_start__ + 0x80)), retention_ram_uninit section overflowed! Increase dg_config_RETAINED_UNINIT_SECTION_SIZE.)
                0x0000c408                . = (__retention_ram_uninit_start__ + 0x80)
 *fill*         0x0000c3d6       0x32 
                0x0000c408                __retention_ram_uninit_end__ = .

.retention_ram_init
                0x0000c408      0x290
                0x0000c408                __retention_ram_init_start__ = .
                0x0000c408                . = ALIGN (0x4)
 *libnosys.a:sbrk.o(.text*)
 *libgcc.a:_aeabi_uldivmod.o(.text*)
 *libgcc.a:_muldi3.o(.text*)
 *libgcc.a:_dvmd_tls.o(.text*)
 *libgcc.a:bpabi.o(.text*)
 *libgcc.a:_udivdi3.o(.text*)
 *libgcc.a:_clzdi2.o(.text*)
 *libgcc.a:_clzsi2.o(.text*)
 *(privileged_data_init)
 *(.retention)
 *(vtable)
 *(retention_mem_init)
 retention_mem_init
                0x0000c408        0x8 ./startup/DA1469x/init_da1469x.o
                0x0000c40c                SystemLPClock
 retention_mem_init
                0x0000c410        0x4 ./startup/DA1469x/system_da1469x.o
                0x0000c410                SystemCoreClock
 retention_mem_init
                0x0000c414        0x1 ./sdk/sys_man/sys_clock_mgr_da1469x.o
 *fill*         0x0000c415        0x3 
 retention_mem_init
                0x0000c418       0x4c ./sdk/sys_man/sys_tcs_da1469x.o
 retention_mem_init
                0x0000c464      0x1a4 ./sdk/peripherals/src/hw_uart.o
 retention_mem_init
                0x0000c608        0x4 ./sdk/adapters/src/ad_pmu.o
 retention_mem_init
                0x0000c60c       0x10 ./sdk/FreeRTOS/tasks.o
                0x0000c60c                FreeRTOSDebugConfig
 *(retention_mem_const)
 retention_mem_const
                0x0000c61c        0x5 ./sdk/sys_man/sys_clock_mgr_da1469x.o
 *fill*         0x0000c621        0x3 
 retention_mem_const
                0x0000c624        0x5 ./sdk/peripherals/src/hw_clk_da1469x.o
 *fill*         0x0000c629        0x3 
 retention_mem_const
                0x0000c62c        0x5 ./sdk/adapters/src/ad_pmu.o
 *libg_nano.a:*(.data*)
 *fill*         0x0000c631        0x3 
 .data._impure_ptr
                0x0000c634        0x4 c:/diasemi/smartsnippetsstudio2.0.10/gcc/7-2018-q2/bin/../lib/gcc/arm-none-eabi/7.3.1/../../../../arm-none-eabi/lib/thumb/v8-m.main/fpv5-sp/hard\libg_nano.a(lib_a-impure.o)
                0x0000c634                _impure_ptr
 .data.impure_data
                0x0000c638       0x60 c:/diasemi/smartsnippetsstudio2.0.10/gcc/7-2018-q2/bin/../lib/gcc/arm-none-eabi/7.3.1/../../../../arm-none-eabi/lib/thumb/v8-m.main/fpv5-sp/hard\libg_nano.a(lib_a-impure.o)
 *libnosys.a:*(.data*)
 *libgcc.a:*(.data*)
 *libble_stack_da1469x.a:*(.data*)
 *crtbegin.o(.data*)
 *(.jcr*)
                0x0000c698                . = ALIGN (0x4)
                0x0000c698                __retention_ram_init_end__ = .

.retention_ram_zi
                0x0000c698     0x4770
                0x0000c698                __retention_ram_zi_start__ = .
 *(privileged_data_zi)
 privileged_data_zi
                0x0000c698       0x18 ./sdk/FreeRTOS/portable/MemMang/heap_4.o
 privileged_data_zi
                0x0000c6b0       0x40 ./sdk/FreeRTOS/queue.o
                0x0000c6b0                xQueueRegistry
 privileged_data_zi
                0x0000c6f0      0x130 ./sdk/FreeRTOS/tasks.o
                0x0000c6f4                pxCurrentTCB
 privileged_data_zi
                0x0000c820       0x3c ./sdk/FreeRTOS/timers.o
 *(retention_mem_zi)
 *fill*         0x0000c85c        0x4 
 retention_mem_zi
                0x0000c860       0xc8 ./startup/DA1469x/GCC/deepsleep.o
                0x0000c8a0                __retained_state
 retention_mem_zi
                0x0000c928        0x4 ./sdk/sys_man/sys_bsr.o
 retention_mem_zi
                0x0000c92c       0x30 ./sdk/sys_man/sys_clock_mgr_da1469x.o
                0x0000c940                rcx_clock_hz_acc
                0x0000c944                rcx_clock_hz
                0x0000c948                rcx_clock_period
                0x0000c94c                rcx_tick_period
                0x0000c94e                rcx_tick_rate_hz
 retention_mem_zi
                0x0000c95c       0x5d ./sdk/sys_man/sys_power_mgr_da1469x.o
 *fill*         0x0000c9b9        0x3 
 retention_mem_zi
                0x0000c9bc      0x409 ./sdk/sys_man/sys_tcs_da1469x.o
 *fill*         0x0000cdc5        0x3 
 retention_mem_zi
                0x0000cdc8       0x14 ./sdk/sys_man/sys_timer.o
                0x0000cdd8                lp_last_trigger
 retention_mem_zi
                0x0000cddc       0x84 ./sdk/sys_man/sys_trng.o
 retention_mem_zi
                0x0000ce60        0x4 ./sdk/peripherals/src/hw_cache.o
 retention_mem_zi
                0x0000ce64        0x8 ./sdk/peripherals/src/hw_gpadc.o
 retention_mem_zi
                0x0000ce6c       0x88 ./sdk/peripherals/src/hw_sys_da1469x.o
                0x0000ce6c                hw_sys_sw_bsr
                0x0000cebc                hw_sys_pd_com_acquire_cnt
                0x0000cec4                hw_sys_pd_periph_acquire_cnt
 retention_mem_zi
                0x0000cef4        0xc ./sdk/peripherals/src/hw_timer.o
 retention_mem_zi
                0x0000cf00        0x8 ./sdk/peripherals/src/hw_usb_da1469x.o
 retention_mem_zi
                0x0000cf08        0x4 ./sdk/peripherals/src/hw_watchdog.o
 retention_mem_zi
                0x0000cf0c        0xc ./sdk/peripherals/src/hw_wkup_da1469x.o
 retention_mem_zi
                0x0000cf18      0x100 ./sdk/osal/resmgmt.o
 retention_mem_zi
                0x0000d018        0x9 ./sdk/memory/src/qspi_automode.o
 *fill*         0x0000d021        0x3 
 retention_mem_zi
                0x0000d024       0x28 ./sdk/adapters/src/ad_gpadc.o
 retention_mem_zi
                0x0000d04c       0x8c ./sdk/adapters/src/ad_i2c.o
 retention_mem_zi
                0x0000d0d8       0x15 ./sdk/adapters/src/ad_pmu.o
 *fill*         0x0000d0ed        0x3 
 retention_mem_zi
                0x0000d0f0       0x18 ./sdk/adapters/src/ad_sdadc.o
 retention_mem_zi
                0x0000d108       0x20 ./sdk/adapters/src/ad_spi.o
 retention_mem_zi
                0x0000d128        0x8 ./sdk/FreeRTOS/portable/GCC/DA1469x/port.o
 retention_mem_zi
                0x0000d130        0x4 ./main.o
 *libg_nano.a:*(.bss*)
 .bss.__malloc_free_list
                0x0000d134        0x4 c:/diasemi/smartsnippetsstudio2.0.10/gcc/7-2018-q2/bin/../lib/gcc/arm-none-eabi/7.3.1/../../../../arm-none-eabi/lib/thumb/v8-m.main/fpv5-sp/hard\libg_nano.a(lib_a-nano-mallocr.o)
                0x0000d134                __malloc_free_list
 .bss.__malloc_sbrk_start
                0x0000d138        0x4 c:/diasemi/smartsnippetsstudio2.0.10/gcc/7-2018-q2/bin/../lib/gcc/arm-none-eabi/7.3.1/../../../../arm-none-eabi/lib/thumb/v8-m.main/fpv5-sp/hard\libg_nano.a(lib_a-nano-mallocr.o)
                0x0000d138                __malloc_sbrk_start
 *libnosys.a:*(.bss*)
 *libgcc.a:*(.bss*)
 *libble_stack_da1469x.a:*(.bss*)
 *crtbegin.o(.bss*)
 .bss           0x0000d13c       0x1c c:/diasemi/smartsnippetsstudio2.0.10/gcc/7-2018-q2/bin/../lib/gcc/arm-none-eabi/7.3.1/thumb/v8-m.main/fpv5-sp/hard/crtbegin.o
 *(os_heap)
 os_heap        0x0000d158     0x36b0 ./sdk/FreeRTOS/portable/MemMang/heap_4.o
                0x00010808                __HeapBase = .
                0x00010808                __end__ = .
                0x00010808                end = __end__
 *(.heap*)
 .heap          0x00010808      0x600 ./startup/DA1469x/GCC/vector_table_da1469x.o
                0x00010e08                __HeapLimit = .
                0x00010e08                __retention_ram_zi_end__ = .

.stack_section  0x00010e08      0x208
                0x00010e09                . = (. + 0x1)
 *fill*         0x00010e08        0x1 
                0x00010e10                . = ALIGN (0x8)
 *fill*         0x00010e09        0x7 
                0x00010e10                __StackLimit = .
 *(.stack*)
 .stack         0x00010e10      0x200 ./startup/DA1469x/GCC/vector_table_da1469x.o
                0x00011010                . = ALIGN (0x8)
                0x00011010                __StackTop = .
                0x00011010                PROVIDE (__stack = __StackTop)

.snc_section    0x00011010        0x0
                0x00011010                __snc_section_start__ = .
                0x00011010                . = ALIGN (0x4)
 *(.snc_region*)
                0x00011010                . = ALIGN (0x4)
                0x00011010                __snc_section_end__ = .
                0x00011010                __non_retention_ram_start__ = .

.non_retention_ram_init
                0x00011010       0x28
                0x00011010                __non_retention_ram_init_start__ = .
                0x00011010                . = ALIGN (0x4)
 *(EXCLUDE_FILE(*crtbegin.o *libble_stack_da1469x.a:* *libgcc.a:* *libnosys.a:* *libg_nano.a:*) .data*)
 .data.sys_freq_table.8172
                0x00011010       0x10 ./sdk/peripherals/src/hw_clk_da1469x.o
 .data.uxCriticalNesting
                0x00011020        0x4 ./sdk/FreeRTOS/portable/GCC/DA1469x/port.o
 .data.Pressure_Data
                0x00011024        0x5 ./I2C_Interface/Pressure.o
                0x00011024                Pressure_Data
 *fill*         0x00011029        0x3 
 .data.Pressure_Reg
                0x0001102c        0x5 ./I2C_Interface/Pressure.o
                0x0001102c                Pressure_Reg
 *fill*         0x00011031        0x3 
 .data.Pressure_Time
                0x00011034        0x4 ./I2C_Interface/Pressure.o
                0x00011034                Pressure_Time
                0x00011038                . = ALIGN (0x4)
                0x00011038                __non_retention_ram_init_end__ = .

.bss            0x00011038      0x208
                0x00011038                . = ALIGN (0x4)
                0x00011038                __bss_start__ = .
 *(EXCLUDE_FILE(*crtbegin.o *libble_stack_da1469x.a:* *libgcc.a:* *libnosys.a:* *libg_nano.a:*) .bss*)
 .bss.ahb_clk_next
                0x00011038        0x1 ./sdk/sys_man/sys_clock_mgr_da1469x.o
 .bss.pll_locked
                0x00011039        0x1 ./sdk/sys_man/sys_clock_mgr_da1469x.o
 .bss.sys_clk_next
                0x0001103a        0x1 ./sdk/sys_man/sys_clock_mgr_da1469x.o
 .bss.xtal32m_settled
                0x0001103b        0x1 ./sdk/sys_man/sys_clock_mgr_da1469x.o
 .bss.xtal32m_settled_notification
                0x0001103c        0x1 ./sdk/sys_man/sys_clock_mgr_da1469x.o
 .bss.adapters_wake_up_ind_called
                0x0001103d        0x1 ./sdk/sys_man/sys_power_mgr_da1469x.o
 .bss.call_adapters_xtal16m_ready_ind
                0x0001103e        0x1 ./sdk/sys_man/sys_power_mgr_da1469x.o
 *fill*         0x0001103f        0x1 
 .bss.jtag_wkup_sleep_blocked_until
                0x00011040        0x8 ./sdk/sys_man/sys_power_mgr_da1469x.o
 .bss.sleep_blocked_until
                0x00011048        0x8 ./sdk/sys_man/sys_power_mgr_da1469x.o
 .bss.dma_callbacks_user_data
                0x00011050       0x40 ./sdk/peripherals/src/hw_dma.o
 .bss.i2c       0x00011090       0x80 ./sdk/peripherals/src/hw_i2c.o
 .bss.rtc_interrupt_cb
                0x00011110        0x4 ./sdk/peripherals/src/hw_rtc.o
 .bss.intr_cb   0x00011114        0x4 ./sdk/peripherals/src/hw_sdadc.o
 .bss.hw_spi_transfer_read_dummy
                0x00011118        0x4 ./sdk/peripherals/src/hw_spi.o
 .bss.spi_data  0x0001111c       0xf8 ./sdk/peripherals/src/hw_spi.o
 .bss.tmr3_intr_cb
                0x00011214        0x4 ./sdk/peripherals/src/hw_timer.o
 .bss.tmr4_intr_cb
                0x00011218        0x4 ./sdk/peripherals/src/hw_timer.o
 .bss.trng_cb   0x0001121c        0x4 ./sdk/peripherals/src/hw_trng.o
 .bss.qspi_active_op
                0x00011220        0x4 ./sdk/memory/src/qspi_automode.o
 .bss.Configured
                0x00011224        0x1 ./I2C_Interface/I2CAdapter.o
 *fill*         0x00011225        0x3 
 .bss.CurrentCommand
                0x00011228        0x4 ./I2C_Interface/Pressure.o
                0x00011228                CurrentCommand
 .bss.Pressure_State
                0x0001122c        0x4 ./I2C_Interface/Pressure.o
                0x0001122c                Pressure_State
 .bss.GP_intr_cb
                0x00011230        0x4 ./ADC_Interface/GPADCAdapter.o
 .bss.SetUP     0x00011234        0x1 ./main.o
                0x00011234                SetUP
 *fill*         0x00011235        0x3 
 .bss.xHandle   0x00011238        0x4 ./main.o
 *(COMMON)
 COMMON         0x0001123c        0x4 c:/diasemi/smartsnippetsstudio2.0.10/gcc/7-2018-q2/bin/../lib/gcc/arm-none-eabi/7.3.1/../../../../arm-none-eabi/lib/thumb/v8-m.main/fpv5-sp/hard\libg_nano.a(lib_a-reent.o)
                0x0001123c                errno
                0x00011240                . = ALIGN (0x4)
                0x00011240                __bss_end__ = .
                0x00011240                __non_retention_ram_end__ = .
                0x00011241                __unused_ram_start__ = (. + 0x1)
OUTPUT(freertos_retarget_Working_Copy.elf elf32-littlearm)

.ARM.attributes
                0x00000000       0x36
 .ARM.attributes
                0x00000000       0x26 c:/diasemi/smartsnippetsstudio2.0.10/gcc/7-2018-q2/bin/../lib/gcc/arm-none-eabi/7.3.1/thumb/v8-m.main/fpv5-sp/hard/crti.o
 .ARM.attributes
                0x00000026       0x38 c:/diasemi/smartsnippetsstudio2.0.10/gcc/7-2018-q2/bin/../lib/gcc/arm-none-eabi/7.3.1/thumb/v8-m.main/fpv5-sp/hard/crtbegin.o
 .ARM.attributes
                0x0000005e       0x24 c:/diasemi/smartsnippetsstudio2.0.10/gcc/7-2018-q2/bin/../lib/gcc/arm-none-eabi/7.3.1/../../../../arm-none-eabi/lib/thumb/v8-m.main/fpv5-sp/hard/crt0.o
 .ARM.attributes
                0x00000082       0x24 ./startup/DA1469x/GCC/deepsleep.o
 .ARM.attributes
                0x000000a6       0x24 ./startup/DA1469x/GCC/exception_handlers.o
 .ARM.attributes
                0x000000ca       0x24 ./startup/DA1469x/GCC/startup_da1469x.o
 .ARM.attributes
                0x000000ee       0x24 ./startup/DA1469x/GCC/vector_table_da1469x.o
 .ARM.attributes
                0x00000112       0x3c ./startup/DA1469x/init_da1469x.o
 .ARM.attributes
                0x0000014e       0x3c ./startup/DA1469x/system_da1469x.o
 .ARM.attributes
                0x0000018a       0x3c ./startup/config.o
 .ARM.attributes
                0x000001c6       0x3c ./sdk/sys_man/sys_bsr.o
 .ARM.attributes
                0x00000202       0x3c ./sdk/sys_man/sys_clock_mgr_da1469x.o
 .ARM.attributes
                0x0000023e       0x3c ./sdk/sys_man/sys_power_mgr_da1469x.o
 .ARM.attributes
                0x0000027a       0x3c ./sdk/sys_man/sys_tcs_da1469x.o
 .ARM.attributes
                0x000002b6       0x3c ./sdk/sys_man/sys_timer.o
 .ARM.attributes
                0x000002f2       0x3c ./sdk/sys_man/sys_trng.o
 .ARM.attributes
                0x0000032e       0x3c ./sdk/sys_man/sys_watchdog.o
 .ARM.attributes
                0x0000036a       0x3c ./sdk/peripherals/src/hw_bod_da1469x.o
 .ARM.attributes
                0x000003a6       0x3c ./sdk/peripherals/src/hw_cache.o
 .ARM.attributes
                0x000003e2       0x3c ./sdk/peripherals/src/hw_clk_da1469x.o
 .ARM.attributes
                0x0000041e       0x3c ./sdk/peripherals/src/hw_cpm_da1469x.o
 .ARM.attributes
                0x0000045a       0x3c ./sdk/peripherals/src/hw_dma.o
 .ARM.attributes
                0x00000496       0x3c ./sdk/peripherals/src/hw_gpadc.o
 .ARM.attributes
                0x000004d2       0x3c ./sdk/peripherals/src/hw_gpio.o
 .ARM.attributes
                0x0000050e       0x3c ./sdk/peripherals/src/hw_hard_fault.o
 .ARM.attributes
                0x0000054a       0x3c ./sdk/peripherals/src/hw_i2c.o
 .ARM.attributes
                0x00000586       0x3c ./sdk/peripherals/src/hw_memctrl.o
 .ARM.attributes
                0x000005c2       0x3c ./sdk/peripherals/src/hw_otpc_da1469x.o
 .ARM.attributes
                0x000005fe       0x3c ./sdk/peripherals/src/hw_pdc.o
 .ARM.attributes
                0x0000063a       0x3c ./sdk/peripherals/src/hw_pmu_da1469x.o
 .ARM.attributes
                0x00000676       0x3c ./sdk/peripherals/src/hw_qspi.o
 .ARM.attributes
                0x000006b2       0x3c ./sdk/peripherals/src/hw_rtc.o
 .ARM.attributes
                0x000006ee       0x3c ./sdk/peripherals/src/hw_sdadc.o
 .ARM.attributes
                0x0000072a       0x3c ./sdk/peripherals/src/hw_spi.o
 .ARM.attributes
                0x00000766       0x3c ./sdk/peripherals/src/hw_sys_da1469x.o
 .ARM.attributes
                0x000007a2       0x3c ./sdk/peripherals/src/hw_timer.o
 .ARM.attributes
                0x000007de       0x3c ./sdk/peripherals/src/hw_trng.o
 .ARM.attributes
                0x0000081a       0x3c ./sdk/peripherals/src/hw_uart.o
 .ARM.attributes
                0x00000856       0x3c ./sdk/peripherals/src/hw_usb_da1469x.o
 .ARM.attributes
                0x00000892       0x3c ./sdk/peripherals/src/hw_watchdog.o
 .ARM.attributes
                0x000008ce       0x3c ./sdk/peripherals/src/hw_wkup_da1469x.o
 .ARM.attributes
                0x0000090a       0x3c ./sdk/osal/resmgmt.o
 .ARM.attributes
                0x00000946       0x3c ./sdk/memory/src/qspi_automode.o
 .ARM.attributes
                0x00000982       0x3c ./sdk/adapters/src/ad_crypto.o
 .ARM.attributes
                0x000009be       0x3c ./sdk/adapters/src/ad_gpadc.o
 .ARM.attributes
                0x000009fa       0x3c ./sdk/adapters/src/ad_i2c.o
 .ARM.attributes
                0x00000a36       0x3c ./sdk/adapters/src/ad_pmu.o
 .ARM.attributes
                0x00000a72       0x3c ./sdk/adapters/src/ad_sdadc.o
 .ARM.attributes
                0x00000aae       0x3c ./sdk/adapters/src/ad_spi.o
 .ARM.attributes
                0x00000aea       0x3c ./sdk/FreeRTOS/portable/MemMang/heap_4.o
 .ARM.attributes
                0x00000b26       0x3c ./sdk/FreeRTOS/portable/GCC/DA1469x/port.o
 .ARM.attributes
                0x00000b62       0x3c ./sdk/FreeRTOS/event_groups.o
 .ARM.attributes
                0x00000b9e       0x3c ./sdk/FreeRTOS/list.o
 .ARM.attributes
                0x00000bda       0x3c ./sdk/FreeRTOS/queue.o
 .ARM.attributes
                0x00000c16       0x3c ./sdk/FreeRTOS/tasks.o
 .ARM.attributes
                0x00000c52       0x3c ./sdk/FreeRTOS/timers.o
 .ARM.attributes
                0x00000c8e       0x3c ./I2C_Interface/I2CAdapter.o
 .ARM.attributes
                0x00000cca       0x3c ./I2C_Interface/Pressure.o
 .ARM.attributes
                0x00000d06       0x3c ./ADC_Interface/GPADCAdapter.o
 .ARM.attributes
                0x00000d42       0x3c ./main.o
 .ARM.attributes
                0x00000d7e       0x38 c:/diasemi/smartsnippetsstudio2.0.10/gcc/7-2018-q2/bin/../lib/gcc/arm-none-eabi/7.3.1/../../../../arm-none-eabi/lib/thumb/v8-m.main/fpv5-sp/hard\libg_nano.a(lib_a-exit.o)
 .ARM.attributes
                0x00000db6       0x38 c:/diasemi/smartsnippetsstudio2.0.10/gcc/7-2018-q2/bin/../lib/gcc/arm-none-eabi/7.3.1/../../../../arm-none-eabi/lib/thumb/v8-m.main/fpv5-sp/hard\libg_nano.a(lib_a-fflush.o)
 .ARM.attributes
                0x00000dee       0x38 c:/diasemi/smartsnippetsstudio2.0.10/gcc/7-2018-q2/bin/../lib/gcc/arm-none-eabi/7.3.1/../../../../arm-none-eabi/lib/thumb/v8-m.main/fpv5-sp/hard\libg_nano.a(lib_a-findfp.o)
 .ARM.attributes
                0x00000e26       0x38 c:/diasemi/smartsnippetsstudio2.0.10/gcc/7-2018-q2/bin/../lib/gcc/arm-none-eabi/7.3.1/../../../../arm-none-eabi/lib/thumb/v8-m.main/fpv5-sp/hard\libg_nano.a(lib_a-fwalk.o)
 .ARM.attributes
                0x00000e5e       0x38 c:/diasemi/smartsnippetsstudio2.0.10/gcc/7-2018-q2/bin/../lib/gcc/arm-none-eabi/7.3.1/../../../../arm-none-eabi/lib/thumb/v8-m.main/fpv5-sp/hard\libg_nano.a(lib_a-impure.o)
 .ARM.attributes
                0x00000e96       0x38 c:/diasemi/smartsnippetsstudio2.0.10/gcc/7-2018-q2/bin/../lib/gcc/arm-none-eabi/7.3.1/../../../../arm-none-eabi/lib/thumb/v8-m.main/fpv5-sp/hard\libg_nano.a(lib_a-init.o)
 .ARM.attributes
                0x00000ece       0x38 c:/diasemi/smartsnippetsstudio2.0.10/gcc/7-2018-q2/bin/../lib/gcc/arm-none-eabi/7.3.1/../../../../arm-none-eabi/lib/thumb/v8-m.main/fpv5-sp/hard\libg_nano.a(lib_a-memcpy-stub.o)
 .ARM.attributes
                0x00000f06       0x38 c:/diasemi/smartsnippetsstudio2.0.10/gcc/7-2018-q2/bin/../lib/gcc/arm-none-eabi/7.3.1/../../../../arm-none-eabi/lib/thumb/v8-m.main/fpv5-sp/hard\libg_nano.a(lib_a-memset.o)
 .ARM.attributes
                0x00000f3e       0x38 c:/diasemi/smartsnippetsstudio2.0.10/gcc/7-2018-q2/bin/../lib/gcc/arm-none-eabi/7.3.1/../../../../arm-none-eabi/lib/thumb/v8-m.main/fpv5-sp/hard\libg_nano.a(lib_a-nano-freer.o)
 .ARM.attributes
                0x00000f76       0x38 c:/diasemi/smartsnippetsstudio2.0.10/gcc/7-2018-q2/bin/../lib/gcc/arm-none-eabi/7.3.1/../../../../arm-none-eabi/lib/thumb/v8-m.main/fpv5-sp/hard\libg_nano.a(lib_a-nano-mallocr.o)
 .ARM.attributes
                0x00000fae       0x38 c:/diasemi/smartsnippetsstudio2.0.10/gcc/7-2018-q2/bin/../lib/gcc/arm-none-eabi/7.3.1/../../../../arm-none-eabi/lib/thumb/v8-m.main/fpv5-sp/hard\libg_nano.a(lib_a-sbrkr.o)
 .ARM.attributes
                0x00000fe6       0x38 c:/diasemi/smartsnippetsstudio2.0.10/gcc/7-2018-q2/bin/../lib/gcc/arm-none-eabi/7.3.1/../../../../arm-none-eabi/lib/thumb/v8-m.main/fpv5-sp/hard\libg_nano.a(lib_a-setvbuf.o)
 .ARM.attributes
                0x0000101e       0x38 c:/diasemi/smartsnippetsstudio2.0.10/gcc/7-2018-q2/bin/../lib/gcc/arm-none-eabi/7.3.1/../../../../arm-none-eabi/lib/thumb/v8-m.main/fpv5-sp/hard\libg_nano.a(lib_a-stdio.o)
 .ARM.attributes
                0x00001056       0x38 c:/diasemi/smartsnippetsstudio2.0.10/gcc/7-2018-q2/bin/../lib/gcc/arm-none-eabi/7.3.1/../../../../arm-none-eabi/lib/thumb/v8-m.main/fpv5-sp/hard\libg_nano.a(lib_a-writer.o)
 .ARM.attributes
                0x0000108e       0x38 c:/diasemi/smartsnippetsstudio2.0.10/gcc/7-2018-q2/bin/../lib/gcc/arm-none-eabi/7.3.1/../../../../arm-none-eabi/lib/thumb/v8-m.main/fpv5-sp/hard\libg_nano.a(lib_a-closer.o)
 .ARM.attributes
                0x000010c6       0x38 c:/diasemi/smartsnippetsstudio2.0.10/gcc/7-2018-q2/bin/../lib/gcc/arm-none-eabi/7.3.1/../../../../arm-none-eabi/lib/thumb/v8-m.main/fpv5-sp/hard\libg_nano.a(lib_a-lseekr.o)
 .ARM.attributes
                0x000010fe       0x38 c:/diasemi/smartsnippetsstudio2.0.10/gcc/7-2018-q2/bin/../lib/gcc/arm-none-eabi/7.3.1/../../../../arm-none-eabi/lib/thumb/v8-m.main/fpv5-sp/hard\libg_nano.a(lib_a-makebuf.o)
 .ARM.attributes
                0x00001136       0x38 c:/diasemi/smartsnippetsstudio2.0.10/gcc/7-2018-q2/bin/../lib/gcc/arm-none-eabi/7.3.1/../../../../arm-none-eabi/lib/thumb/v8-m.main/fpv5-sp/hard\libg_nano.a(lib_a-malloc.o)
 .ARM.attributes
                0x0000116e       0x38 c:/diasemi/smartsnippetsstudio2.0.10/gcc/7-2018-q2/bin/../lib/gcc/arm-none-eabi/7.3.1/../../../../arm-none-eabi/lib/thumb/v8-m.main/fpv5-sp/hard\libg_nano.a(lib_a-mlock.o)
 .ARM.attributes
                0x000011a6       0x38 c:/diasemi/smartsnippetsstudio2.0.10/gcc/7-2018-q2/bin/../lib/gcc/arm-none-eabi/7.3.1/../../../../arm-none-eabi/lib/thumb/v8-m.main/fpv5-sp/hard\libg_nano.a(lib_a-readr.o)
 .ARM.attributes
                0x000011de       0x38 c:/diasemi/smartsnippetsstudio2.0.10/gcc/7-2018-q2/bin/../lib/gcc/arm-none-eabi/7.3.1/../../../../arm-none-eabi/lib/thumb/v8-m.main/fpv5-sp/hard\libg_nano.a(lib_a-reent.o)
 .ARM.attributes
                0x00001216       0x38 c:/diasemi/smartsnippetsstudio2.0.10/gcc/7-2018-q2/bin/../lib/gcc/arm-none-eabi/7.3.1/../../../../arm-none-eabi/lib/thumb/v8-m.main/fpv5-sp/hard\libg_nano.a(lib_a-fstatr.o)
 .ARM.attributes
                0x0000124e       0x38 c:/diasemi/smartsnippetsstudio2.0.10/gcc/7-2018-q2/bin/../lib/gcc/arm-none-eabi/7.3.1/../../../../arm-none-eabi/lib/thumb/v8-m.main/fpv5-sp/hard\libnosys.a(close.o)
 .ARM.attributes
                0x00001286       0x38 c:/diasemi/smartsnippetsstudio2.0.10/gcc/7-2018-q2/bin/../lib/gcc/arm-none-eabi/7.3.1/../../../../arm-none-eabi/lib/thumb/v8-m.main/fpv5-sp/hard\libnosys.a(fstat.o)
 .ARM.attributes
                0x000012be       0x38 c:/diasemi/smartsnippetsstudio2.0.10/gcc/7-2018-q2/bin/../lib/gcc/arm-none-eabi/7.3.1/../../../../arm-none-eabi/lib/thumb/v8-m.main/fpv5-sp/hard\libnosys.a(lseek.o)
 .ARM.attributes
                0x000012f6       0x38 c:/diasemi/smartsnippetsstudio2.0.10/gcc/7-2018-q2/bin/../lib/gcc/arm-none-eabi/7.3.1/../../../../arm-none-eabi/lib/thumb/v8-m.main/fpv5-sp/hard\libnosys.a(_exit.o)
 .ARM.attributes
                0x0000132e       0x38 c:/diasemi/smartsnippetsstudio2.0.10/gcc/7-2018-q2/bin/../lib/gcc/arm-none-eabi/7.3.1/thumb/v8-m.main/fpv5-sp/hard/crtend.o
 .ARM.attributes
                0x00001366       0x26 c:/diasemi/smartsnippetsstudio2.0.10/gcc/7-2018-q2/bin/../lib/gcc/arm-none-eabi/7.3.1/thumb/v8-m.main/fpv5-sp/hard/crtn.o

.comment        0x00000000       0x7f
 .comment       0x00000000       0x7f ./startup/DA1469x/init_da1469x.o
                                 0x80 (size before relaxing)
 .comment       0x0000007f       0x80 ./startup/DA1469x/system_da1469x.o
 .comment       0x0000007f       0x80 ./startup/config.o
 .comment       0x0000007f       0x80 ./sdk/sys_man/sys_bsr.o
 .comment       0x0000007f       0x80 ./sdk/sys_man/sys_clock_mgr_da1469x.o
 .comment       0x0000007f       0x80 ./sdk/sys_man/sys_power_mgr_da1469x.o
 .comment       0x0000007f       0x80 ./sdk/sys_man/sys_tcs_da1469x.o
 .comment       0x0000007f       0x80 ./sdk/sys_man/sys_timer.o
 .comment       0x0000007f       0x80 ./sdk/sys_man/sys_trng.o
 .comment       0x0000007f       0x80 ./sdk/sys_man/sys_watchdog.o
 .comment       0x0000007f       0x80 ./sdk/peripherals/src/hw_bod_da1469x.o
 .comment       0x0000007f       0x80 ./sdk/peripherals/src/hw_cache.o
 .comment       0x0000007f       0x80 ./sdk/peripherals/src/hw_clk_da1469x.o
 .comment       0x0000007f       0x80 ./sdk/peripherals/src/hw_cpm_da1469x.o
 .comment       0x0000007f       0x80 ./sdk/peripherals/src/hw_dma.o
 .comment       0x0000007f       0x80 ./sdk/peripherals/src/hw_gpadc.o
 .comment       0x0000007f       0x80 ./sdk/peripherals/src/hw_gpio.o
 .comment       0x0000007f       0x80 ./sdk/peripherals/src/hw_hard_fault.o
 .comment       0x0000007f       0x80 ./sdk/peripherals/src/hw_i2c.o
 .comment       0x0000007f       0x80 ./sdk/peripherals/src/hw_memctrl.o
 .comment       0x0000007f       0x80 ./sdk/peripherals/src/hw_otpc_da1469x.o
 .comment       0x0000007f       0x80 ./sdk/peripherals/src/hw_pdc.o
 .comment       0x0000007f       0x80 ./sdk/peripherals/src/hw_pmu_da1469x.o
 .comment       0x0000007f       0x80 ./sdk/peripherals/src/hw_qspi.o
 .comment       0x0000007f       0x80 ./sdk/peripherals/src/hw_rtc.o
 .comment       0x0000007f       0x80 ./sdk/peripherals/src/hw_sdadc.o
 .comment       0x0000007f       0x80 ./sdk/peripherals/src/hw_spi.o
 .comment       0x0000007f       0x80 ./sdk/peripherals/src/hw_sys_da1469x.o
 .comment       0x0000007f       0x80 ./sdk/peripherals/src/hw_timer.o
 .comment       0x0000007f       0x80 ./sdk/peripherals/src/hw_trng.o
 .comment       0x0000007f       0x80 ./sdk/peripherals/src/hw_uart.o
 .comment       0x0000007f       0x80 ./sdk/peripherals/src/hw_usb_da1469x.o
 .comment       0x0000007f       0x80 ./sdk/peripherals/src/hw_watchdog.o
 .comment       0x0000007f       0x80 ./sdk/peripherals/src/hw_wkup_da1469x.o
 .comment       0x0000007f       0x80 ./sdk/osal/resmgmt.o
 .comment       0x0000007f       0x80 ./sdk/memory/src/qspi_automode.o
 .comment       0x0000007f       0x80 ./sdk/adapters/src/ad_crypto.o
 .comment       0x0000007f       0x80 ./sdk/adapters/src/ad_gpadc.o
 .comment       0x0000007f       0x80 ./sdk/adapters/src/ad_i2c.o
 .comment       0x0000007f       0x80 ./sdk/adapters/src/ad_pmu.o
 .comment       0x0000007f       0x80 ./sdk/adapters/src/ad_sdadc.o
 .comment       0x0000007f       0x80 ./sdk/adapters/src/ad_spi.o
 .comment       0x0000007f       0x80 ./sdk/FreeRTOS/portable/MemMang/heap_4.o
 .comment       0x0000007f       0x80 ./sdk/FreeRTOS/portable/GCC/DA1469x/port.o
 .comment       0x0000007f       0x80 ./sdk/FreeRTOS/event_groups.o
 .comment       0x0000007f       0x80 ./sdk/FreeRTOS/list.o
 .comment       0x0000007f       0x80 ./sdk/FreeRTOS/queue.o
 .comment       0x0000007f       0x80 ./sdk/FreeRTOS/tasks.o
 .comment       0x0000007f       0x80 ./sdk/FreeRTOS/timers.o
 .comment       0x0000007f       0x80 ./I2C_Interface/I2CAdapter.o
 .comment       0x0000007f       0x80 ./I2C_Interface/Pressure.o
 .comment       0x0000007f       0x80 ./ADC_Interface/GPADCAdapter.o
 .comment       0x0000007f       0x80 ./main.o

.debug_line     0x00000000    0x251f0
 .debug_line    0x00000000      0x10a ./startup/DA1469x/GCC/deepsleep.o
 .debug_line    0x0000010a      0x16b ./startup/DA1469x/GCC/exception_handlers.o
 .debug_line    0x00000275       0x90 ./startup/DA1469x/GCC/startup_da1469x.o
 .debug_line    0x00000305       0x8c ./startup/DA1469x/GCC/vector_table_da1469x.o
 .debug_line    0x00000391      0xbe7 ./startup/DA1469x/init_da1469x.o
 .debug_line    0x00000f78      0x53c ./startup/DA1469x/system_da1469x.o
 .debug_line    0x000014b4      0x9dd ./startup/config.o
 .debug_line    0x00001e91      0x838 ./sdk/sys_man/sys_bsr.o
 .debug_line    0x000026c9     0x1f56 ./sdk/sys_man/sys_clock_mgr_da1469x.o
 .debug_line    0x0000461f     0x15c4 ./sdk/sys_man/sys_power_mgr_da1469x.o
 .debug_line    0x00005be3      0xaf3 ./sdk/sys_man/sys_tcs_da1469x.o
 .debug_line    0x000066d6      0xa66 ./sdk/sys_man/sys_timer.o
 .debug_line    0x0000713c      0x758 ./sdk/sys_man/sys_trng.o
 .debug_line    0x00007894      0x682 ./sdk/sys_man/sys_watchdog.o
 .debug_line    0x00007f16      0x6ca ./sdk/peripherals/src/hw_bod_da1469x.o
 .debug_line    0x000085e0      0x5d1 ./sdk/peripherals/src/hw_cache.o
 .debug_line    0x00008bb1      0x69c ./sdk/peripherals/src/hw_clk_da1469x.o
 .debug_line    0x0000924d      0x5f6 ./sdk/peripherals/src/hw_cpm_da1469x.o
 .debug_line    0x00009843      0x749 ./sdk/peripherals/src/hw_dma.o
 .debug_line    0x00009f8c      0xab8 ./sdk/peripherals/src/hw_gpadc.o
 .debug_line    0x0000aa44      0x6ad ./sdk/peripherals/src/hw_gpio.o
 .debug_line    0x0000b0f1      0x752 ./sdk/peripherals/src/hw_hard_fault.o
 .debug_line    0x0000b843     0x10b3 ./sdk/peripherals/src/hw_i2c.o
 .debug_line    0x0000c8f6      0x605 ./sdk/peripherals/src/hw_memctrl.o
 .debug_line    0x0000cefb      0x860 ./sdk/peripherals/src/hw_otpc_da1469x.o
 .debug_line    0x0000d75b      0x669 ./sdk/peripherals/src/hw_pdc.o
 .debug_line    0x0000ddc4     0x11b8 ./sdk/peripherals/src/hw_pmu_da1469x.o
 .debug_line    0x0000ef7c      0x818 ./sdk/peripherals/src/hw_qspi.o
 .debug_line    0x0000f794      0xaa8 ./sdk/peripherals/src/hw_rtc.o
 .debug_line    0x0001023c      0x7dd ./sdk/peripherals/src/hw_sdadc.o
 .debug_line    0x00010a19      0xe5a ./sdk/peripherals/src/hw_spi.o
 .debug_line    0x00011873      0xa65 ./sdk/peripherals/src/hw_sys_da1469x.o
 .debug_line    0x000122d8      0xb3a ./sdk/peripherals/src/hw_timer.o
 .debug_line    0x00012e12      0x64a ./sdk/peripherals/src/hw_trng.o
 .debug_line    0x0001345c     0x11d1 ./sdk/peripherals/src/hw_uart.o
 .debug_line    0x0001462d      0xb47 ./sdk/peripherals/src/hw_usb_da1469x.o
 .debug_line    0x00015174      0x761 ./sdk/peripherals/src/hw_watchdog.o
 .debug_line    0x000158d5      0x8db ./sdk/peripherals/src/hw_wkup_da1469x.o
 .debug_line    0x000161b0      0xa9a ./sdk/osal/resmgmt.o
 .debug_line    0x00016c4a     0x1340 ./sdk/memory/src/qspi_automode.o
 .debug_line    0x00017f8a      0x886 ./sdk/adapters/src/ad_crypto.o
 .debug_line    0x00018810      0xdad ./sdk/adapters/src/ad_gpadc.o
 .debug_line    0x000195bd     0x1210 ./sdk/adapters/src/ad_i2c.o
 .debug_line    0x0001a7cd      0xd7f ./sdk/adapters/src/ad_pmu.o
 .debug_line    0x0001b54c      0xda2 ./sdk/adapters/src/ad_sdadc.o
 .debug_line    0x0001c2ee      0xf92 ./sdk/adapters/src/ad_spi.o
 .debug_line    0x0001d280      0x8ff ./sdk/FreeRTOS/portable/MemMang/heap_4.o
 .debug_line    0x0001db7f      0xa50 ./sdk/FreeRTOS/portable/GCC/DA1469x/port.o
 .debug_line    0x0001e5cf      0xa1f ./sdk/FreeRTOS/event_groups.o
 .debug_line    0x0001efee      0x81d ./sdk/FreeRTOS/list.o
 .debug_line    0x0001f80b     0x10bb ./sdk/FreeRTOS/queue.o
 .debug_line    0x000208c6     0x1492 ./sdk/FreeRTOS/tasks.o
 .debug_line    0x00021d58      0xb0f ./sdk/FreeRTOS/timers.o
 .debug_line    0x00022867      0x972 ./I2C_Interface/I2CAdapter.o
 .debug_line    0x000231d9      0x85a ./I2C_Interface/Pressure.o
 .debug_line    0x00023a33      0xb66 ./ADC_Interface/GPADCAdapter.o
 .debug_line    0x00024599      0xc57 ./main.o

.debug_info     0x00000000    0x62364
 .debug_info    0x00000000       0x26 ./startup/DA1469x/GCC/deepsleep.o
 .debug_info    0x00000026       0x22 ./startup/DA1469x/GCC/exception_handlers.o
 .debug_info    0x00000048       0x26 ./startup/DA1469x/GCC/startup_da1469x.o
 .debug_info    0x0000006e       0x26 ./startup/DA1469x/GCC/vector_table_da1469x.o
 .debug_info    0x00000094     0x2d45 ./startup/DA1469x/init_da1469x.o
 .debug_info    0x00002dd9      0x120 ./startup/DA1469x/system_da1469x.o
 .debug_info    0x00002ef9     0x1c46 ./startup/config.o
 .debug_info    0x00004b3f      0xc31 ./sdk/sys_man/sys_bsr.o
 .debug_info    0x00005770     0x5f87 ./sdk/sys_man/sys_clock_mgr_da1469x.o
 .debug_info    0x0000b6f7     0x4600 ./sdk/sys_man/sys_power_mgr_da1469x.o
 .debug_info    0x0000fcf7     0x18e6 ./sdk/sys_man/sys_tcs_da1469x.o
 .debug_info    0x000115dd     0x1a5d ./sdk/sys_man/sys_timer.o
 .debug_info    0x0001303a     0x13cc ./sdk/sys_man/sys_trng.o
 .debug_info    0x00014406      0x446 ./sdk/sys_man/sys_watchdog.o
 .debug_info    0x0001484c      0xb57 ./sdk/peripherals/src/hw_bod_da1469x.o
 .debug_info    0x000153a3      0x67b ./sdk/peripherals/src/hw_cache.o
 .debug_info    0x00015a1e      0x9b2 ./sdk/peripherals/src/hw_clk_da1469x.o
 .debug_info    0x000163d0      0x303 ./sdk/peripherals/src/hw_cpm_da1469x.o
 .debug_info    0x000166d3     0x1928 ./sdk/peripherals/src/hw_dma.o
 .debug_info    0x00017ffb     0x1b5c ./sdk/peripherals/src/hw_gpadc.o
 .debug_info    0x00019b57     0x1101 ./sdk/peripherals/src/hw_gpio.o
 .debug_info    0x0001ac58     0x10a0 ./sdk/peripherals/src/hw_hard_fault.o
 .debug_info    0x0001bcf8     0x422c ./sdk/peripherals/src/hw_i2c.o
 .debug_info    0x0001ff24      0x3e6 ./sdk/peripherals/src/hw_memctrl.o
 .debug_info    0x0002030a     0x10ea ./sdk/peripherals/src/hw_otpc_da1469x.o
 .debug_info    0x000213f4      0x7f7 ./sdk/peripherals/src/hw_pdc.o
 .debug_info    0x00021beb     0x349d ./sdk/peripherals/src/hw_pmu_da1469x.o
 .debug_info    0x00025088     0x1aec ./sdk/peripherals/src/hw_qspi.o
 .debug_info    0x00026b74     0x1dc0 ./sdk/peripherals/src/hw_rtc.o
 .debug_info    0x00028934      0xd6f ./sdk/peripherals/src/hw_sdadc.o
 .debug_info    0x000296a3     0x2fee ./sdk/peripherals/src/hw_spi.o
 .debug_info    0x0002c691     0x1e01 ./sdk/peripherals/src/hw_sys_da1469x.o
 .debug_info    0x0002e492     0x28b8 ./sdk/peripherals/src/hw_timer.o
 .debug_info    0x00030d4a      0xd08 ./sdk/peripherals/src/hw_trng.o
 .debug_info    0x00031a52     0x3a76 ./sdk/peripherals/src/hw_uart.o
 .debug_info    0x000354c8     0x1878 ./sdk/peripherals/src/hw_usb_da1469x.o
 .debug_info    0x00036d40      0xed1 ./sdk/peripherals/src/hw_watchdog.o
 .debug_info    0x00037c11     0x1d5f ./sdk/peripherals/src/hw_wkup_da1469x.o
 .debug_info    0x00039970     0x15de ./sdk/osal/resmgmt.o
 .debug_info    0x0003af4e     0x42c9 ./sdk/memory/src/qspi_automode.o
 .debug_info    0x0003f217      0x42b ./sdk/adapters/src/ad_crypto.o
 .debug_info    0x0003f642     0x255d ./sdk/adapters/src/ad_gpadc.o
 .debug_info    0x00041b9f     0x390e ./sdk/adapters/src/ad_i2c.o
 .debug_info    0x000454ad     0x1e37 ./sdk/adapters/src/ad_pmu.o
 .debug_info    0x000472e4     0x2b83 ./sdk/adapters/src/ad_sdadc.o
 .debug_info    0x00049e67     0x2caa ./sdk/adapters/src/ad_spi.o
 .debug_info    0x0004cb11     0x150a ./sdk/FreeRTOS/portable/MemMang/heap_4.o
 .debug_info    0x0004e01b     0x1252 ./sdk/FreeRTOS/portable/GCC/DA1469x/port.o
 .debug_info    0x0004f26d     0x1c90 ./sdk/FreeRTOS/event_groups.o
 .debug_info    0x00050efd      0xba7 ./sdk/FreeRTOS/list.o
 .debug_info    0x00051aa4     0x3486 ./sdk/FreeRTOS/queue.o
 .debug_info    0x00054f2a     0x3d94 ./sdk/FreeRTOS/tasks.o
 .debug_info    0x00058cbe     0x238e ./sdk/FreeRTOS/timers.o
 .debug_info    0x0005b04c     0x19ce ./I2C_Interface/I2CAdapter.o
 .debug_info    0x0005ca1a      0xfbf ./I2C_Interface/Pressure.o
 .debug_info    0x0005d9d9     0x1cf7 ./ADC_Interface/GPADCAdapter.o
 .debug_info    0x0005f6d0     0x2c94 ./main.o

.debug_abbrev   0x00000000     0xb6bd
 .debug_abbrev  0x00000000       0x14 ./startup/DA1469x/GCC/deepsleep.o
 .debug_abbrev  0x00000014       0x12 ./startup/DA1469x/GCC/exception_handlers.o
 .debug_abbrev  0x00000026       0x14 ./startup/DA1469x/GCC/startup_da1469x.o
 .debug_abbrev  0x0000003a       0x14 ./startup/DA1469x/GCC/vector_table_da1469x.o
 .debug_abbrev  0x0000004e      0x589 ./startup/DA1469x/init_da1469x.o
 .debug_abbrev  0x000005d7       0xcf ./startup/DA1469x/system_da1469x.o
 .debug_abbrev  0x000006a6      0x344 ./startup/config.o
 .debug_abbrev  0x000009ea      0x1da ./sdk/sys_man/sys_bsr.o
 .debug_abbrev  0x00000bc4      0x68b ./sdk/sys_man/sys_clock_mgr_da1469x.o
 .debug_abbrev  0x0000124f      0x609 ./sdk/sys_man/sys_power_mgr_da1469x.o
 .debug_abbrev  0x00001858      0x3b7 ./sdk/sys_man/sys_tcs_da1469x.o
 .debug_abbrev  0x00001c0f      0x405 ./sdk/sys_man/sys_timer.o
 .debug_abbrev  0x00002014      0x2ed ./sdk/sys_man/sys_trng.o
 .debug_abbrev  0x00002301      0x23b ./sdk/sys_man/sys_watchdog.o
 .debug_abbrev  0x0000253c      0x23c ./sdk/peripherals/src/hw_bod_da1469x.o
 .debug_abbrev  0x00002778      0x1fb ./sdk/peripherals/src/hw_cache.o
 .debug_abbrev  0x00002973      0x256 ./sdk/peripherals/src/hw_clk_da1469x.o
 .debug_abbrev  0x00002bc9      0x15f ./sdk/peripherals/src/hw_cpm_da1469x.o
 .debug_abbrev  0x00002d28      0x371 ./sdk/peripherals/src/hw_dma.o
 .debug_abbrev  0x00003099      0x410 ./sdk/peripherals/src/hw_gpadc.o
 .debug_abbrev  0x000034a9      0x236 ./sdk/peripherals/src/hw_gpio.o
 .debug_abbrev  0x000036df      0x248 ./sdk/peripherals/src/hw_hard_fault.o
 .debug_abbrev  0x00003927      0x55e ./sdk/peripherals/src/hw_i2c.o
 .debug_abbrev  0x00003e85      0x11c ./sdk/peripherals/src/hw_memctrl.o
 .debug_abbrev  0x00003fa1      0x2ca ./sdk/peripherals/src/hw_otpc_da1469x.o
 .debug_abbrev  0x0000426b      0x265 ./sdk/peripherals/src/hw_pdc.o
 .debug_abbrev  0x000044d0      0x417 ./sdk/peripherals/src/hw_pmu_da1469x.o
 .debug_abbrev  0x000048e7      0x373 ./sdk/peripherals/src/hw_qspi.o
 .debug_abbrev  0x00004c5a      0x426 ./sdk/peripherals/src/hw_rtc.o
 .debug_abbrev  0x00005080      0x35f ./sdk/peripherals/src/hw_sdadc.o
 .debug_abbrev  0x000053df      0x448 ./sdk/peripherals/src/hw_spi.o
 .debug_abbrev  0x00005827      0x411 ./sdk/peripherals/src/hw_sys_da1469x.o
 .debug_abbrev  0x00005c38      0x3f5 ./sdk/peripherals/src/hw_timer.o
 .debug_abbrev  0x0000602d      0x249 ./sdk/peripherals/src/hw_trng.o
 .debug_abbrev  0x00006276      0x538 ./sdk/peripherals/src/hw_uart.o
 .debug_abbrev  0x000067ae      0x341 ./sdk/peripherals/src/hw_usb_da1469x.o
 .debug_abbrev  0x00006aef      0x27b ./sdk/peripherals/src/hw_watchdog.o
 .debug_abbrev  0x00006d6a      0x368 ./sdk/peripherals/src/hw_wkup_da1469x.o
 .debug_abbrev  0x000070d2      0x2ff ./sdk/osal/resmgmt.o
 .debug_abbrev  0x000073d1      0x62c ./sdk/memory/src/qspi_automode.o
 .debug_abbrev  0x000079fd      0x165 ./sdk/adapters/src/ad_crypto.o
 .debug_abbrev  0x00007b62      0x410 ./sdk/adapters/src/ad_gpadc.o
 .debug_abbrev  0x00007f72      0x46d ./sdk/adapters/src/ad_i2c.o
 .debug_abbrev  0x000083df      0x3f9 ./sdk/adapters/src/ad_pmu.o
 .debug_abbrev  0x000087d8      0x4d9 ./sdk/adapters/src/ad_sdadc.o
 .debug_abbrev  0x00008cb1      0x452 ./sdk/adapters/src/ad_spi.o
 .debug_abbrev  0x00009103      0x373 ./sdk/FreeRTOS/portable/MemMang/heap_4.o
 .debug_abbrev  0x00009476      0x337 ./sdk/FreeRTOS/portable/GCC/DA1469x/port.o
 .debug_abbrev  0x000097ad      0x379 ./sdk/FreeRTOS/event_groups.o
 .debug_abbrev  0x00009b26      0x223 ./sdk/FreeRTOS/list.o
 .debug_abbrev  0x00009d49      0x3e8 ./sdk/FreeRTOS/queue.o
 .debug_abbrev  0x0000a131      0x404 ./sdk/FreeRTOS/tasks.o
 .debug_abbrev  0x0000a535      0x35c ./sdk/FreeRTOS/timers.o
 .debug_abbrev  0x0000a891      0x2dc ./I2C_Interface/I2CAdapter.o
 .debug_abbrev  0x0000ab6d      0x3b8 ./I2C_Interface/Pressure.o
 .debug_abbrev  0x0000af25      0x323 ./ADC_Interface/GPADCAdapter.o
 .debug_abbrev  0x0000b248      0x475 ./main.o

.debug_aranges  0x00000000     0x2238
 .debug_aranges
                0x00000000       0x20 ./startup/DA1469x/GCC/deepsleep.o
 .debug_aranges
                0x00000020       0x28 ./startup/DA1469x/GCC/exception_handlers.o
 .debug_aranges
                0x00000048       0x20 ./startup/DA1469x/GCC/startup_da1469x.o
 .debug_aranges
                0x00000068       0x20 ./startup/DA1469x/GCC/vector_table_da1469x.o
 .debug_aranges
                0x00000088       0x60 ./startup/DA1469x/init_da1469x.o
 .debug_aranges
                0x000000e8       0x28 ./startup/DA1469x/system_da1469x.o
 .debug_aranges
                0x00000110       0x40 ./startup/config.o
 .debug_aranges
                0x00000150       0x38 ./sdk/sys_man/sys_bsr.o
 .debug_aranges
                0x00000188      0x228 ./sdk/sys_man/sys_clock_mgr_da1469x.o
 .debug_aranges
                0x000003b0      0x130 ./sdk/sys_man/sys_power_mgr_da1469x.o
 .debug_aranges
                0x000004e0       0xa8 ./sdk/sys_man/sys_tcs_da1469x.o
 .debug_aranges
                0x00000588       0xa0 ./sdk/sys_man/sys_timer.o
 .debug_aranges
                0x00000628       0x68 ./sdk/sys_man/sys_trng.o
 .debug_aranges
                0x00000690       0x78 ./sdk/sys_man/sys_watchdog.o
 .debug_aranges
                0x00000708       0x30 ./sdk/peripherals/src/hw_bod_da1469x.o
 .debug_aranges
                0x00000738       0x30 ./sdk/peripherals/src/hw_cache.o
 .debug_aranges
                0x00000768       0x48 ./sdk/peripherals/src/hw_clk_da1469x.o
 .debug_aranges
                0x000007b0       0x28 ./sdk/peripherals/src/hw_cpm_da1469x.o
 .debug_aranges
                0x000007d8       0x68 ./sdk/peripherals/src/hw_dma.o
 .debug_aranges
                0x00000840       0xa0 ./sdk/peripherals/src/hw_gpadc.o
 .debug_aranges
                0x000008e0       0x80 ./sdk/peripherals/src/hw_gpio.o
 .debug_aranges
                0x00000960       0x40 ./sdk/peripherals/src/hw_hard_fault.o
 .debug_aranges
                0x000009a0      0x140 ./sdk/peripherals/src/hw_i2c.o
 .debug_aranges
                0x00000ae0       0x38 ./sdk/peripherals/src/hw_memctrl.o
 .debug_aranges
                0x00000b18       0x68 ./sdk/peripherals/src/hw_otpc_da1469x.o
 .debug_aranges
                0x00000b80       0x40 ./sdk/peripherals/src/hw_pdc.o
 .debug_aranges
                0x00000bc0      0x2f0 ./sdk/peripherals/src/hw_pmu_da1469x.o
 .debug_aranges
                0x00000eb0       0x58 ./sdk/peripherals/src/hw_qspi.o
 .debug_aranges
                0x00000f08       0x88 ./sdk/peripherals/src/hw_rtc.o
 .debug_aranges
                0x00000f90       0x80 ./sdk/peripherals/src/hw_sdadc.o
 .debug_aranges
                0x00001010       0xe0 ./sdk/peripherals/src/hw_spi.o
 .debug_aranges
                0x000010f0       0xd8 ./sdk/peripherals/src/hw_sys_da1469x.o
 .debug_aranges
                0x000011c8       0x88 ./sdk/peripherals/src/hw_timer.o
 .debug_aranges
                0x00001250       0x58 ./sdk/peripherals/src/hw_trng.o
 .debug_aranges
                0x000012a8      0x1a8 ./sdk/peripherals/src/hw_uart.o
 .debug_aranges
                0x00001450       0x50 ./sdk/peripherals/src/hw_usb_da1469x.o
 .debug_aranges
                0x000014a0       0x50 ./sdk/peripherals/src/hw_watchdog.o
 .debug_aranges
                0x000014f0       0x78 ./sdk/peripherals/src/hw_wkup_da1469x.o
 .debug_aranges
                0x00001568       0x40 ./sdk/osal/resmgmt.o
 .debug_aranges
                0x000015a8      0x188 ./sdk/memory/src/qspi_automode.o
 .debug_aranges
                0x00001730       0x20 ./sdk/adapters/src/ad_crypto.o
 .debug_aranges
                0x00001750       0xb8 ./sdk/adapters/src/ad_gpadc.o
 .debug_aranges
                0x00001808       0xd0 ./sdk/adapters/src/ad_i2c.o
 .debug_aranges
                0x000018d8       0x88 ./sdk/adapters/src/ad_pmu.o
 .debug_aranges
                0x00001960       0x70 ./sdk/adapters/src/ad_sdadc.o
 .debug_aranges
                0x000019d0       0xa8 ./sdk/adapters/src/ad_spi.o
 .debug_aranges
                0x00001a78       0x50 ./sdk/FreeRTOS/portable/MemMang/heap_4.o
 .debug_aranges
                0x00001ac8       0x90 ./sdk/FreeRTOS/portable/GCC/DA1469x/port.o
 .debug_aranges
                0x00001b58       0x88 ./sdk/FreeRTOS/event_groups.o
 .debug_aranges
                0x00001be0       0x40 ./sdk/FreeRTOS/list.o
 .debug_aranges
                0x00001c20      0x160 ./sdk/FreeRTOS/queue.o
 .debug_aranges
                0x00001d80      0x210 ./sdk/FreeRTOS/tasks.o
 .debug_aranges
                0x00001f90       0xd8 ./sdk/FreeRTOS/timers.o
 .debug_aranges
                0x00002068       0x60 ./I2C_Interface/I2CAdapter.o
 .debug_aranges
                0x000020c8       0x88 ./I2C_Interface/Pressure.o
 .debug_aranges
                0x00002150       0x48 ./ADC_Interface/GPADCAdapter.o
 .debug_aranges
                0x00002198       0xa0 ./main.o

.debug_str      0x00000000    0x7ada7
 .debug_str     0x00000000       0xc6 ./startup/DA1469x/GCC/deepsleep.o
 .debug_str     0x000000c6       0x59 ./startup/DA1469x/GCC/exception_handlers.o
                                 0xcf (size before relaxing)
 .debug_str     0x0000011f       0x56 ./startup/DA1469x/GCC/startup_da1469x.o
                                 0xcc (size before relaxing)
 .debug_str     0x00000175       0x5b ./startup/DA1469x/GCC/vector_table_da1469x.o
                                 0xd1 (size before relaxing)
 .debug_str     0x000001d0    0x5b22d ./startup/DA1469x/init_da1469x.o
                              0x5b79e (size before relaxing)
 .debug_str     0x0005b3fd       0xa1 ./startup/DA1469x/system_da1469x.o
                              0x53e88 (size before relaxing)
 .debug_str     0x0005b49e     0x8d02 ./startup/config.o
                              0x615b9 (size before relaxing)
 .debug_str     0x000641a0      0x229 ./sdk/sys_man/sys_bsr.o
                              0x5c2d3 (size before relaxing)
 .debug_str     0x000643c9     0x2548 ./sdk/sys_man/sys_clock_mgr_da1469x.o
                              0x63d6b (size before relaxing)
 .debug_str     0x00066911     0x1fad ./sdk/sys_man/sys_power_mgr_da1469x.o
                              0x6515f (size before relaxing)
 .debug_str     0x000688be      0x80b ./sdk/sys_man/sys_tcs_da1469x.o
                              0x587c0 (size before relaxing)
 .debug_str     0x000690c9      0x879 ./sdk/sys_man/sys_timer.o
                              0x5dee4 (size before relaxing)
 .debug_str     0x00069942      0x270 ./sdk/sys_man/sys_trng.o
                              0x57440 (size before relaxing)
 .debug_str     0x00069bb2      0x1aa ./sdk/sys_man/sys_watchdog.o
                              0x540ca (size before relaxing)
 .debug_str     0x00069d5c      0x248 ./sdk/peripherals/src/hw_bod_da1469x.o
                              0x5516d (size before relaxing)
 .debug_str     0x00069fa4       0xae ./sdk/peripherals/src/hw_cache.o
                              0x54390 (size before relaxing)
 .debug_str     0x0006a052      0x168 ./sdk/peripherals/src/hw_clk_da1469x.o
                              0x54804 (size before relaxing)
 .debug_str     0x0006a1ba       0xa9 ./sdk/peripherals/src/hw_cpm_da1469x.o
                              0x53fe3 (size before relaxing)
 .debug_str     0x0006a263      0x9d2 ./sdk/peripherals/src/hw_dma.o
                              0x55809 (size before relaxing)
 .debug_str     0x0006ac35      0x8de ./sdk/peripherals/src/hw_gpadc.o
                              0x58a80 (size before relaxing)
 .debug_str     0x0006b513      0x55f ./sdk/peripherals/src/hw_gpio.o
                              0x55753 (size before relaxing)
 .debug_str     0x0006ba72      0x1dd ./sdk/peripherals/src/hw_hard_fault.o
                              0x58384 (size before relaxing)
 .debug_str     0x0006bc4f     0x1496 ./sdk/peripherals/src/hw_i2c.o
                              0x5a4cd (size before relaxing)
 .debug_str     0x0006d0e5      0x254 ./sdk/peripherals/src/hw_memctrl.o
                              0x54102 (size before relaxing)
 .debug_str     0x0006d339      0x355 ./sdk/peripherals/src/hw_otpc_da1469x.o
                              0x54e54 (size before relaxing)
 .debug_str     0x0006d68e       0xcb ./sdk/peripherals/src/hw_pdc.o
                              0x548b0 (size before relaxing)
 .debug_str     0x0006d759     0x1183 ./sdk/peripherals/src/hw_pmu_da1469x.o
                              0x59150 (size before relaxing)
 .debug_str     0x0006e8dc      0x8d0 ./sdk/peripherals/src/hw_qspi.o
                              0x5554b (size before relaxing)
 .debug_str     0x0006f1ac      0x660 ./sdk/peripherals/src/hw_rtc.o
                              0x58a67 (size before relaxing)
 .debug_str     0x0006f80c      0x5c1 ./sdk/peripherals/src/hw_sdadc.o
                              0x549c3 (size before relaxing)
 .debug_str     0x0006fdcd      0xb16 ./sdk/peripherals/src/hw_spi.o
                              0x5611c (size before relaxing)
 .debug_str     0x000708e3      0xf5d ./sdk/peripherals/src/hw_sys_da1469x.o
                              0x573f6 (size before relaxing)
 .debug_str     0x00071840      0x5fc ./sdk/peripherals/src/hw_timer.o
                              0x5a0a0 (size before relaxing)
 .debug_str     0x00071e3c       0xa0 ./sdk/peripherals/src/hw_trng.o
                              0x54a14 (size before relaxing)
 .debug_str     0x00071edc      0xae2 ./sdk/peripherals/src/hw_uart.o
                              0x58e75 (size before relaxing)
 .debug_str     0x000729be      0x1d5 ./sdk/peripherals/src/hw_usb_da1469x.o
                              0x612c1 (size before relaxing)
 .debug_str     0x00072b93      0x119 ./sdk/peripherals/src/hw_watchdog.o
                              0x58288 (size before relaxing)
 .debug_str     0x00072cac      0x635 ./sdk/peripherals/src/hw_wkup_da1469x.o
                              0x59269 (size before relaxing)
 .debug_str     0x000732e1      0x361 ./sdk/osal/resmgmt.o
                              0x5c71f (size before relaxing)
 .debug_str     0x00073642     0x143d ./sdk/memory/src/qspi_automode.o
                              0x62489 (size before relaxing)
 .debug_str     0x00074a7f      0x1cb ./sdk/adapters/src/ad_crypto.o
                              0x5c0c5 (size before relaxing)
 .debug_str     0x00074c4a      0x704 ./sdk/adapters/src/ad_gpadc.o
                              0x5e628 (size before relaxing)
 .debug_str     0x0007534e      0x640 ./sdk/adapters/src/ad_i2c.o
                              0x5ed95 (size before relaxing)
 .debug_str     0x0007598e      0x3d4 ./sdk/adapters/src/ad_pmu.o
                              0x5dd46 (size before relaxing)
 .debug_str     0x00075d62      0x4f3 ./sdk/adapters/src/ad_sdadc.o
                              0x6109d (size before relaxing)
 .debug_str     0x00076255      0x492 ./sdk/adapters/src/ad_spi.o
                              0x5e6f0 (size before relaxing)
 .debug_str     0x000766e7      0x2de ./sdk/FreeRTOS/portable/MemMang/heap_4.o
                              0x5b6cc (size before relaxing)
 .debug_str     0x000769c5      0x887 ./sdk/FreeRTOS/portable/GCC/DA1469x/port.o
                              0x5d473 (size before relaxing)
 .debug_str     0x0007724c      0x44f ./sdk/FreeRTOS/event_groups.o
                              0x5c0ed (size before relaxing)
 .debug_str     0x0007769b       0xaf ./sdk/FreeRTOS/list.o
                              0x5a700 (size before relaxing)
 .debug_str     0x0007774a      0x90c ./sdk/FreeRTOS/queue.o
                              0x5c7be (size before relaxing)
 .debug_str     0x00078056     0x1480 ./sdk/FreeRTOS/tasks.o
                              0x5d748 (size before relaxing)
 .debug_str     0x000794d6      0x4dd ./sdk/FreeRTOS/timers.o
                              0x5caee (size before relaxing)
 .debug_str     0x000799b3      0x11e ./I2C_Interface/I2CAdapter.o
                              0x5dea3 (size before relaxing)
 .debug_str     0x00079ad1      0x44e ./I2C_Interface/Pressure.o
                              0x58585 (size before relaxing)
 .debug_str     0x00079f1f      0x844 ./ADC_Interface/GPADCAdapter.o
                              0x62958 (size before relaxing)
 .debug_str     0x0007a763      0x644 ./main.o
                              0x635c1 (size before relaxing)

.debug_ranges   0x00000000     0x3588
 .debug_ranges  0x00000000       0x20 ./startup/DA1469x/GCC/exception_handlers.o
 .debug_ranges  0x00000020       0xc8 ./startup/DA1469x/init_da1469x.o
 .debug_ranges  0x000000e8       0x18 ./startup/DA1469x/system_da1469x.o
 .debug_ranges  0x00000100       0x30 ./startup/config.o
 .debug_ranges  0x00000130       0x28 ./sdk/sys_man/sys_bsr.o
 .debug_ranges  0x00000158      0x578 ./sdk/sys_man/sys_clock_mgr_da1469x.o
 .debug_ranges  0x000006d0      0x290 ./sdk/sys_man/sys_power_mgr_da1469x.o
 .debug_ranges  0x00000960       0xb0 ./sdk/sys_man/sys_tcs_da1469x.o
 .debug_ranges  0x00000a10       0x90 ./sdk/sys_man/sys_timer.o
 .debug_ranges  0x00000aa0       0x70 ./sdk/sys_man/sys_trng.o
 .debug_ranges  0x00000b10       0x80 ./sdk/sys_man/sys_watchdog.o
 .debug_ranges  0x00000b90       0x38 ./sdk/peripherals/src/hw_bod_da1469x.o
 .debug_ranges  0x00000bc8       0x20 ./sdk/peripherals/src/hw_cache.o
 .debug_ranges  0x00000be8       0x58 ./sdk/peripherals/src/hw_clk_da1469x.o
 .debug_ranges  0x00000c40       0x48 ./sdk/peripherals/src/hw_cpm_da1469x.o
 .debug_ranges  0x00000c88       0xa8 ./sdk/peripherals/src/hw_dma.o
 .debug_ranges  0x00000d30      0x120 ./sdk/peripherals/src/hw_gpadc.o
 .debug_ranges  0x00000e50       0xa0 ./sdk/peripherals/src/hw_gpio.o
 .debug_ranges  0x00000ef0       0x30 ./sdk/peripherals/src/hw_hard_fault.o
 .debug_ranges  0x00000f20      0x1d8 ./sdk/peripherals/src/hw_i2c.o
 .debug_ranges  0x000010f8       0x28 ./sdk/peripherals/src/hw_memctrl.o
 .debug_ranges  0x00001120       0x58 ./sdk/peripherals/src/hw_otpc_da1469x.o
 .debug_ranges  0x00001178       0x80 ./sdk/peripherals/src/hw_pdc.o
 .debug_ranges  0x000011f8      0x4e0 ./sdk/peripherals/src/hw_pmu_da1469x.o
 .debug_ranges  0x000016d8       0xf8 ./sdk/peripherals/src/hw_qspi.o
 .debug_ranges  0x000017d0       0xa8 ./sdk/peripherals/src/hw_rtc.o
 .debug_ranges  0x00001878       0xb8 ./sdk/peripherals/src/hw_sdadc.o
 .debug_ranges  0x00001930      0x318 ./sdk/peripherals/src/hw_spi.o
 .debug_ranges  0x00001c48      0x168 ./sdk/peripherals/src/hw_sys_da1469x.o
 .debug_ranges  0x00001db0       0xe8 ./sdk/peripherals/src/hw_timer.o
 .debug_ranges  0x00001e98       0x48 ./sdk/peripherals/src/hw_trng.o
 .debug_ranges  0x00001ee0      0x300 ./sdk/peripherals/src/hw_uart.o
 .debug_ranges  0x000021e0       0x40 ./sdk/peripherals/src/hw_usb_da1469x.o
 .debug_ranges  0x00002220       0x40 ./sdk/peripherals/src/hw_watchdog.o
 .debug_ranges  0x00002260       0x68 ./sdk/peripherals/src/hw_wkup_da1469x.o
 .debug_ranges  0x000022c8       0x30 ./sdk/osal/resmgmt.o
 .debug_ranges  0x000022f8      0x2e8 ./sdk/memory/src/qspi_automode.o
 .debug_ranges  0x000025e0       0x10 ./sdk/adapters/src/ad_crypto.o
 .debug_ranges  0x000025f0      0x118 ./sdk/adapters/src/ad_gpadc.o
 .debug_ranges  0x00002708      0x228 ./sdk/adapters/src/ad_i2c.o
 .debug_ranges  0x00002930       0x98 ./sdk/adapters/src/ad_pmu.o
 .debug_ranges  0x000029c8      0x128 ./sdk/adapters/src/ad_sdadc.o
 .debug_ranges  0x00002af0      0x140 ./sdk/adapters/src/ad_spi.o
 .debug_ranges  0x00002c30       0x40 ./sdk/FreeRTOS/portable/MemMang/heap_4.o
 .debug_ranges  0x00002c70       0x98 ./sdk/FreeRTOS/portable/GCC/DA1469x/port.o
 .debug_ranges  0x00002d08       0x98 ./sdk/FreeRTOS/event_groups.o
 .debug_ranges  0x00002da0       0x30 ./sdk/FreeRTOS/list.o
 .debug_ranges  0x00002dd0      0x230 ./sdk/FreeRTOS/queue.o
 .debug_ranges  0x00003000      0x300 ./sdk/FreeRTOS/tasks.o
 .debug_ranges  0x00003300       0xc8 ./sdk/FreeRTOS/timers.o
 .debug_ranges  0x000033c8       0x50 ./I2C_Interface/I2CAdapter.o
 .debug_ranges  0x00003418       0x90 ./I2C_Interface/Pressure.o
 .debug_ranges  0x000034a8       0x50 ./ADC_Interface/GPADCAdapter.o
 .debug_ranges  0x000034f8       0x90 ./main.o

.debug_loc      0x00000000    0x1fc81
 .debug_loc     0x00000000      0x52d ./startup/DA1469x/init_da1469x.o
 .debug_loc     0x0000052d      0x27b ./startup/config.o
 .debug_loc     0x000007a8      0x11b ./sdk/sys_man/sys_bsr.o
 .debug_loc     0x000008c3     0x19ac ./sdk/sys_man/sys_clock_mgr_da1469x.o
 .debug_loc     0x0000226f     0x125e ./sdk/sys_man/sys_power_mgr_da1469x.o
 .debug_loc     0x000034cd      0xfeb ./sdk/sys_man/sys_tcs_da1469x.o
 .debug_loc     0x000044b8      0x348 ./sdk/sys_man/sys_timer.o
 .debug_loc     0x00004800      0x216 ./sdk/sys_man/sys_trng.o
 .debug_loc     0x00004a16       0xeb ./sdk/sys_man/sys_watchdog.o
 .debug_loc     0x00004b01      0x234 ./sdk/peripherals/src/hw_bod_da1469x.o
 .debug_loc     0x00004d35       0x71 ./sdk/peripherals/src/hw_cache.o
 .debug_loc     0x00004da6      0x298 ./sdk/peripherals/src/hw_clk_da1469x.o
 .debug_loc     0x0000503e       0x88 ./sdk/peripherals/src/hw_cpm_da1469x.o
 .debug_loc     0x000050c6      0x81c ./sdk/peripherals/src/hw_dma.o
 .debug_loc     0x000058e2      0x9b0 ./sdk/peripherals/src/hw_gpadc.o
 .debug_loc     0x00006292      0x507 ./sdk/peripherals/src/hw_gpio.o
 .debug_loc     0x00006799       0x1e ./sdk/peripherals/src/hw_hard_fault.o
 .debug_loc     0x000067b7     0x26d8 ./sdk/peripherals/src/hw_i2c.o
 .debug_loc     0x00008e8f      0x42c ./sdk/peripherals/src/hw_memctrl.o
 .debug_loc     0x000092bb      0x764 ./sdk/peripherals/src/hw_otpc_da1469x.o
 .debug_loc     0x00009a1f      0x227 ./sdk/peripherals/src/hw_pdc.o
 .debug_loc     0x00009c46     0x1703 ./sdk/peripherals/src/hw_pmu_da1469x.o
 .debug_loc     0x0000b349      0xa8a ./sdk/peripherals/src/hw_qspi.o
 .debug_loc     0x0000bdd3      0x935 ./sdk/peripherals/src/hw_rtc.o
 .debug_loc     0x0000c708      0x390 ./sdk/peripherals/src/hw_sdadc.o
 .debug_loc     0x0000ca98     0x1da7 ./sdk/peripherals/src/hw_spi.o
 .debug_loc     0x0000e83f      0x527 ./sdk/peripherals/src/hw_sys_da1469x.o
 .debug_loc     0x0000ed66      0xb61 ./sdk/peripherals/src/hw_timer.o
 .debug_loc     0x0000f8c7       0x9a ./sdk/peripherals/src/hw_trng.o
 .debug_loc     0x0000f961     0x2458 ./sdk/peripherals/src/hw_uart.o
 .debug_loc     0x00011db9       0xfc ./sdk/peripherals/src/hw_usb_da1469x.o
 .debug_loc     0x00011eb5       0x6b ./sdk/peripherals/src/hw_watchdog.o
 .debug_loc     0x00011f20      0x361 ./sdk/peripherals/src/hw_wkup_da1469x.o
 .debug_loc     0x00012281      0x3ed ./sdk/osal/resmgmt.o
 .debug_loc     0x0001266e     0x16f0 ./sdk/memory/src/qspi_automode.o
 .debug_loc     0x00013d5e       0x21 ./sdk/adapters/src/ad_crypto.o
 .debug_loc     0x00013d7f      0xd64 ./sdk/adapters/src/ad_gpadc.o
 .debug_loc     0x00014ae3     0x1ff3 ./sdk/adapters/src/ad_i2c.o
 .debug_loc     0x00016ad6      0x5c3 ./sdk/adapters/src/ad_pmu.o
 .debug_loc     0x00017099      0xeeb ./sdk/adapters/src/ad_sdadc.o
 .debug_loc     0x00017f84     0x160f ./sdk/adapters/src/ad_spi.o
 .debug_loc     0x00019593      0x2d9 ./sdk/FreeRTOS/portable/MemMang/heap_4.o
 .debug_loc     0x0001986c      0x142 ./sdk/FreeRTOS/portable/GCC/DA1469x/port.o
 .debug_loc     0x000199ae      0xb8f ./sdk/FreeRTOS/event_groups.o
 .debug_loc     0x0001a53d       0x70 ./sdk/FreeRTOS/list.o
 .debug_loc     0x0001a5ad     0x1d37 ./sdk/FreeRTOS/queue.o
 .debug_loc     0x0001c2e4     0x21ad ./sdk/FreeRTOS/tasks.o
 .debug_loc     0x0001e491      0xd63 ./sdk/FreeRTOS/timers.o
 .debug_loc     0x0001f1f4      0x3ae ./I2C_Interface/I2CAdapter.o
 .debug_loc     0x0001f5a2      0x1c9 ./I2C_Interface/Pressure.o
 .debug_loc     0x0001f76b       0xb1 ./ADC_Interface/GPADCAdapter.o
 .debug_loc     0x0001f81c      0x465 ./main.o

.debug_macro    0x00000000    0x1975a
 .debug_macro   0x00000000      0x3ca ./startup/DA1469x/init_da1469x.o
 .debug_macro   0x000003ca      0xa5a ./startup/DA1469x/init_da1469x.o
 .debug_macro   0x00000e24      0x181 ./startup/DA1469x/init_da1469x.o
 .debug_macro   0x00000fa5       0xb2 ./startup/DA1469x/init_da1469x.o
 .debug_macro   0x00001057      0x399 ./startup/DA1469x/init_da1469x.o
 .debug_macro   0x000013f0       0xa0 ./startup/DA1469x/init_da1469x.o
 .debug_macro   0x00001490       0x10 ./startup/DA1469x/init_da1469x.o
 .debug_macro   0x000014a0      0x402 ./startup/DA1469x/init_da1469x.o
 .debug_macro   0x000018a2       0x10 ./startup/DA1469x/init_da1469x.o
 .debug_macro   0x000018b2       0x64 ./startup/DA1469x/init_da1469x.o
 .debug_macro   0x00001916       0x38 ./startup/DA1469x/init_da1469x.o
 .debug_macro   0x0000194e       0x9c ./startup/DA1469x/init_da1469x.o
 .debug_macro   0x000019ea       0x28 ./startup/DA1469x/init_da1469x.o
 .debug_macro   0x00001a12       0x22 ./startup/DA1469x/init_da1469x.o
 .debug_macro   0x00001a34       0x58 ./startup/DA1469x/init_da1469x.o
 .debug_macro   0x00001a8c       0x18 ./startup/DA1469x/init_da1469x.o
 .debug_macro   0x00001aa4       0x94 ./startup/DA1469x/init_da1469x.o
 .debug_macro   0x00001b38       0x35 ./startup/DA1469x/init_da1469x.o
 .debug_macro   0x00001b6d       0x34 ./startup/DA1469x/init_da1469x.o
 .debug_macro   0x00001ba1       0x16 ./startup/DA1469x/init_da1469x.o
 .debug_macro   0x00001bb7       0x57 ./startup/DA1469x/init_da1469x.o
 .debug_macro   0x00001c0e       0x97 ./startup/DA1469x/init_da1469x.o
 .debug_macro   0x00001ca5      0x330 ./startup/DA1469x/init_da1469x.o
 .debug_macro   0x00001fd5       0xfd ./startup/DA1469x/init_da1469x.o
 .debug_macro   0x000020d2       0x10 ./startup/DA1469x/init_da1469x.o
 .debug_macro   0x000020e2       0x58 ./startup/DA1469x/init_da1469x.o
 .debug_macro   0x0000213a       0x1f ./startup/DA1469x/init_da1469x.o
 .debug_macro   0x00002159       0x43 ./startup/DA1469x/init_da1469x.o
 .debug_macro   0x0000219c       0x20 ./startup/DA1469x/init_da1469x.o
 .debug_macro   0x000021bc      0x18e ./startup/DA1469x/init_da1469x.o
 .debug_macro   0x0000234a       0x10 ./startup/DA1469x/init_da1469x.o
 .debug_macro   0x0000235a       0x6a ./startup/DA1469x/init_da1469x.o
 .debug_macro   0x000023c4       0x1c ./startup/DA1469x/init_da1469x.o
 .debug_macro   0x000023e0       0x52 ./startup/DA1469x/init_da1469x.o
 .debug_macro   0x00002432       0x40 ./startup/DA1469x/init_da1469x.o
 .debug_macro   0x00002472       0x10 ./startup/DA1469x/init_da1469x.o
 .debug_macro   0x00002482       0x40 ./startup/DA1469x/init_da1469x.o
 .debug_macro   0x000024c2       0xd7 ./startup/DA1469x/init_da1469x.o
 .debug_macro   0x00002599       0x1c ./startup/DA1469x/init_da1469x.o
 .debug_macro   0x000025b5       0x3d ./startup/DA1469x/init_da1469x.o
 .debug_macro   0x000025f2       0x16 ./startup/DA1469x/init_da1469x.o
 .debug_macro   0x00002608      0x16f ./startup/DA1469x/init_da1469x.o
 .debug_macro   0x00002777       0xef ./startup/DA1469x/init_da1469x.o
 .debug_macro   0x00002866      0x1df ./startup/DA1469x/init_da1469x.o
 .debug_macro   0x00002a45       0x22 ./startup/DA1469x/init_da1469x.o
 .debug_macro   0x00002a67      0x241 ./startup/DA1469x/init_da1469x.o
 .debug_macro   0x00002ca8       0x49 ./startup/DA1469x/init_da1469x.o
 .debug_macro   0x00002cf1       0x1c ./startup/DA1469x/init_da1469x.o
 .debug_macro   0x00002d0d       0x29 ./startup/DA1469x/init_da1469x.o
 .debug_macro   0x00002d36       0xd2 ./startup/DA1469x/init_da1469x.o
 .debug_macro   0x00002e08     0x1336 ./startup/DA1469x/init_da1469x.o
 .debug_macro   0x0000413e       0x5e ./startup/DA1469x/init_da1469x.o
 .debug_macro   0x0000419c     0x9cb2 ./startup/DA1469x/init_da1469x.o
 .debug_macro   0x0000de4e      0x34e ./startup/DA1469x/init_da1469x.o
 .debug_macro   0x0000e19c       0x82 ./startup/DA1469x/init_da1469x.o
 .debug_macro   0x0000e21e       0x1c ./startup/DA1469x/init_da1469x.o
 .debug_macro   0x0000e23a       0x68 ./startup/DA1469x/init_da1469x.o
 .debug_macro   0x0000e2a2       0x48 ./startup/DA1469x/init_da1469x.o
 .debug_macro   0x0000e2ea       0x50 ./startup/DA1469x/init_da1469x.o
 .debug_macro   0x0000e33a       0x33 ./startup/DA1469x/init_da1469x.o
 .debug_macro   0x0000e36d       0x16 ./startup/DA1469x/init_da1469x.o
 .debug_macro   0x0000e383       0x35 ./startup/DA1469x/init_da1469x.o
 .debug_macro   0x0000e3b8       0x1c ./startup/DA1469x/init_da1469x.o
 .debug_macro   0x0000e3d4       0x1c ./startup/DA1469x/init_da1469x.o
 .debug_macro   0x0000e3f0       0x10 ./startup/DA1469x/init_da1469x.o
 .debug_macro   0x0000e400      0x163 ./startup/DA1469x/system_da1469x.o
 .debug_macro   0x0000e563       0x8e ./startup/DA1469x/system_da1469x.o
 .debug_macro   0x0000e5f1       0x51 ./startup/DA1469x/system_da1469x.o
 .debug_macro   0x0000e642      0x174 ./startup/DA1469x/system_da1469x.o
 .debug_macro   0x0000e7b6       0xd8 ./startup/DA1469x/system_da1469x.o
 .debug_macro   0x0000e88e      0x443 ./startup/config.o
 .debug_macro   0x0000ecd1       0x10 ./startup/config.o
 .debug_macro   0x0000ece1      0x183 ./startup/config.o
 .debug_macro   0x0000ee64      0x15a ./startup/config.o
 .debug_macro   0x0000efbe       0xfe ./startup/config.o
 .debug_macro   0x0000f0bc       0x10 ./startup/config.o
 .debug_macro   0x0000f0cc       0x18 ./startup/config.o
 .debug_macro   0x0000f0e4      0x478 ./startup/config.o
 .debug_macro   0x0000f55c       0xb5 ./startup/config.o
 .debug_macro   0x0000f611       0x8c ./startup/config.o
 .debug_macro   0x0000f69d       0x91 ./startup/config.o
 .debug_macro   0x0000f72e       0x86 ./startup/config.o
 .debug_macro   0x0000f7b4       0x7e ./startup/config.o
 .debug_macro   0x0000f832      0x385 ./startup/config.o
 .debug_macro   0x0000fbb7       0x3a ./startup/config.o
 .debug_macro   0x0000fbf1      0x283 ./sdk/sys_man/sys_bsr.o
 .debug_macro   0x0000fe74      0x51c ./sdk/sys_man/sys_clock_mgr_da1469x.o
 .debug_macro   0x00010390       0x31 ./sdk/sys_man/sys_clock_mgr_da1469x.o
 .debug_macro   0x000103c1       0x5e ./sdk/sys_man/sys_clock_mgr_da1469x.o
 .debug_macro   0x0001041f      0x32a ./sdk/sys_man/sys_clock_mgr_da1469x.o
 .debug_macro   0x00010749       0x28 ./sdk/sys_man/sys_clock_mgr_da1469x.o
 .debug_macro   0x00010771       0x16 ./sdk/sys_man/sys_clock_mgr_da1469x.o
 .debug_macro   0x00010787       0xca ./sdk/sys_man/sys_clock_mgr_da1469x.o
 .debug_macro   0x00010851      0x5bd ./sdk/sys_man/sys_power_mgr_da1469x.o
 .debug_macro   0x00010e0e       0x34 ./sdk/sys_man/sys_power_mgr_da1469x.o
 .debug_macro   0x00010e42       0x10 ./sdk/sys_man/sys_power_mgr_da1469x.o
 .debug_macro   0x00010e52       0x4c ./sdk/sys_man/sys_power_mgr_da1469x.o
 .debug_macro   0x00010e9e       0x22 ./sdk/sys_man/sys_power_mgr_da1469x.o
 .debug_macro   0x00010ec0       0x10 ./sdk/sys_man/sys_power_mgr_da1469x.o
 .debug_macro   0x00010ed0      0x35f ./sdk/sys_man/sys_tcs_da1469x.o
 .debug_macro   0x0001122f       0x16 ./sdk/sys_man/sys_tcs_da1469x.o
 .debug_macro   0x00011245       0x16 ./sdk/sys_man/sys_tcs_da1469x.o
 .debug_macro   0x0001125b       0x16 ./sdk/sys_man/sys_tcs_da1469x.o
 .debug_macro   0x00011271       0x29 ./sdk/sys_man/sys_tcs_da1469x.o
 .debug_macro   0x0001129a       0x10 ./sdk/sys_man/sys_tcs_da1469x.o
 .debug_macro   0x000112aa      0x2bf ./sdk/sys_man/sys_timer.o
 .debug_macro   0x00011569       0x10 ./sdk/sys_man/sys_timer.o
 .debug_macro   0x00011579      0x25f ./sdk/sys_man/sys_trng.o
 .debug_macro   0x000117d8       0x10 ./sdk/sys_man/sys_trng.o
 .debug_macro   0x000117e8      0x162 ./sdk/sys_man/sys_watchdog.o
 .debug_macro   0x0001194a      0x1a3 ./sdk/peripherals/src/hw_bod_da1469x.o
 .debug_macro   0x00011aed      0x163 ./sdk/peripherals/src/hw_cache.o
 .debug_macro   0x00011c50      0x1a2 ./sdk/peripherals/src/hw_clk_da1469x.o
 .debug_macro   0x00011df2      0x176 ./sdk/peripherals/src/hw_cpm_da1469x.o
 .debug_macro   0x00011f68      0x184 ./sdk/peripherals/src/hw_dma.o
 .debug_macro   0x000120ec       0x62 ./sdk/peripherals/src/hw_dma.o
 .debug_macro   0x0001214e      0x2f0 ./sdk/peripherals/src/hw_gpadc.o
 .debug_macro   0x0001243e      0x1a4 ./sdk/peripherals/src/hw_gpio.o
 .debug_macro   0x000125e2      0x311 ./sdk/peripherals/src/hw_hard_fault.o
 .debug_macro   0x000128f3       0x10 ./sdk/peripherals/src/hw_hard_fault.o
 .debug_macro   0x00012903      0x342 ./sdk/peripherals/src/hw_i2c.o
 .debug_macro   0x00012c45       0x54 ./sdk/peripherals/src/hw_i2c.o
 .debug_macro   0x00012c99      0x163 ./sdk/peripherals/src/hw_memctrl.o
 .debug_macro   0x00012dfc      0x178 ./sdk/peripherals/src/hw_otpc_da1469x.o
 .debug_macro   0x00012f74      0x168 ./sdk/peripherals/src/hw_pdc.o
 .debug_macro   0x000130dc       0x4a ./sdk/peripherals/src/hw_pdc.o
 .debug_macro   0x00013126      0x2be ./sdk/peripherals/src/hw_pmu_da1469x.o
 .debug_macro   0x000133e4      0x16e ./sdk/peripherals/src/hw_qspi.o
 .debug_macro   0x00013552       0x2d ./sdk/peripherals/src/hw_qspi.o
 .debug_macro   0x0001357f      0x2be ./sdk/peripherals/src/hw_rtc.o
 .debug_macro   0x0001383d      0x175 ./sdk/peripherals/src/hw_sdadc.o
 .debug_macro   0x000139b2      0x19f ./sdk/peripherals/src/hw_spi.o
 .debug_macro   0x00013b51       0x3d ./sdk/peripherals/src/hw_spi.o
 .debug_macro   0x00013b8e      0x205 ./sdk/peripherals/src/hw_sys_da1469x.o
 .debug_macro   0x00013d93      0x2cd ./sdk/peripherals/src/hw_timer.o
 .debug_macro   0x00014060      0x175 ./sdk/peripherals/src/hw_trng.o
 .debug_macro   0x000141d5      0x279 ./sdk/peripherals/src/hw_uart.o
 .debug_macro   0x0001444e      0x44c ./sdk/peripherals/src/hw_usb_da1469x.o
 .debug_macro   0x0001489a      0x2e3 ./sdk/peripherals/src/hw_watchdog.o
 .debug_macro   0x00014b7d      0x2f8 ./sdk/peripherals/src/hw_wkup_da1469x.o
 .debug_macro   0x00014e75       0x34 ./sdk/peripherals/src/hw_wkup_da1469x.o
 .debug_macro   0x00014ea9      0x28b ./sdk/osal/resmgmt.o
 .debug_macro   0x00015134      0x470 ./sdk/memory/src/qspi_automode.o
 .debug_macro   0x000155a4       0x37 ./sdk/memory/src/qspi_automode.o
 .debug_macro   0x000155db       0x22 ./sdk/memory/src/qspi_automode.o
 .debug_macro   0x000155fd       0xd6 ./sdk/memory/src/qspi_automode.o
 .debug_macro   0x000156d3       0x1c ./sdk/memory/src/qspi_automode.o
 .debug_macro   0x000156ef       0x1c ./sdk/memory/src/qspi_automode.o
 .debug_macro   0x0001570b       0x94 ./sdk/memory/src/qspi_automode.o
 .debug_macro   0x0001579f       0x16 ./sdk/memory/src/qspi_automode.o
 .debug_macro   0x000157b5      0x2b0 ./sdk/adapters/src/ad_crypto.o
 .debug_macro   0x00015a65       0x1e ./sdk/adapters/src/ad_crypto.o
 .debug_macro   0x00015a83      0x2dd ./sdk/adapters/src/ad_gpadc.o
 .debug_macro   0x00015d60       0x58 ./sdk/adapters/src/ad_gpadc.o
 .debug_macro   0x00015db8      0x2fa ./sdk/adapters/src/ad_i2c.o
 .debug_macro   0x000160b2       0x5a ./sdk/adapters/src/ad_i2c.o
 .debug_macro   0x0001610c       0x1c ./sdk/adapters/src/ad_i2c.o
 .debug_macro   0x00016128      0x2fe ./sdk/adapters/src/ad_pmu.o
 .debug_macro   0x00016426      0x3a6 ./sdk/adapters/src/ad_sdadc.o
 .debug_macro   0x000167cc      0x2fd ./sdk/adapters/src/ad_spi.o
 .debug_macro   0x00016ac9       0x10 ./sdk/adapters/src/ad_spi.o
 .debug_macro   0x00016ad9      0x2f5 ./sdk/FreeRTOS/portable/MemMang/heap_4.o
 .debug_macro   0x00016dce      0x10e ./sdk/FreeRTOS/portable/MemMang/heap_4.o
 .debug_macro   0x00016edc       0x8d ./sdk/FreeRTOS/portable/MemMang/heap_4.o
 .debug_macro   0x00016f69      0x391 ./sdk/FreeRTOS/portable/GCC/DA1469x/port.o
 .debug_macro   0x000172fa      0x478 ./sdk/FreeRTOS/portable/GCC/DA1469x/port.o
 .debug_macro   0x00017772      0x329 ./sdk/FreeRTOS/event_groups.o
 .debug_macro   0x00017a9b      0x2ce ./sdk/FreeRTOS/list.o
 .debug_macro   0x00017d69      0x354 ./sdk/FreeRTOS/queue.o
 .debug_macro   0x000180bd      0x3cc ./sdk/FreeRTOS/tasks.o
 .debug_macro   0x00018489       0x10 ./sdk/FreeRTOS/tasks.o
 .debug_macro   0x00018499       0x1c ./sdk/FreeRTOS/tasks.o
 .debug_macro   0x000184b5      0x311 ./sdk/FreeRTOS/timers.o
 .debug_macro   0x000187c6      0x2d0 ./I2C_Interface/I2CAdapter.o
 .debug_macro   0x00018a96      0x345 ./I2C_Interface/Pressure.o
 .debug_macro   0x00018ddb      0x4bf ./ADC_Interface/GPADCAdapter.o
 .debug_macro   0x0001929a      0x4c0 ./main.o

.debug_frame    0x00000000     0x63f0
 .debug_frame   0x00000000       0xf4 ./startup/DA1469x/init_da1469x.o
 .debug_frame   0x000000f4       0x38 ./startup/DA1469x/system_da1469x.o
 .debug_frame   0x0000012c       0x9c ./startup/config.o
 .debug_frame   0x000001c8       0x7c ./sdk/sys_man/sys_bsr.o
 .debug_frame   0x00000244      0x68c ./sdk/sys_man/sys_clock_mgr_da1469x.o
 .debug_frame   0x000008d0      0x3ac ./sdk/sys_man/sys_power_mgr_da1469x.o
 .debug_frame   0x00000c7c      0x230 ./sdk/sys_man/sys_tcs_da1469x.o
 .debug_frame   0x00000eac      0x1bc ./sdk/sys_man/sys_timer.o
 .debug_frame   0x00001068      0x11c ./sdk/sys_man/sys_trng.o
 .debug_frame   0x00001184       0xe0 ./sdk/sys_man/sys_watchdog.o
 .debug_frame   0x00001264       0x68 ./sdk/peripherals/src/hw_bod_da1469x.o
 .debug_frame   0x000012cc       0x50 ./sdk/peripherals/src/hw_cache.o
 .debug_frame   0x0000131c       0x84 ./sdk/peripherals/src/hw_clk_da1469x.o
 .debug_frame   0x000013a0       0x40 ./sdk/peripherals/src/hw_cpm_da1469x.o
 .debug_frame   0x000013e0      0x10c ./sdk/peripherals/src/hw_dma.o
 .debug_frame   0x000014ec      0x184 ./sdk/peripherals/src/hw_gpadc.o
 .debug_frame   0x00001670      0x160 ./sdk/peripherals/src/hw_gpio.o
 .debug_frame   0x000017d0       0x78 ./sdk/peripherals/src/hw_hard_fault.o
 .debug_frame   0x00001848      0x410 ./sdk/peripherals/src/hw_i2c.o
 .debug_frame   0x00001c58       0x70 ./sdk/peripherals/src/hw_memctrl.o
 .debug_frame   0x00001cc8      0x12c ./sdk/peripherals/src/hw_otpc_da1469x.o
 .debug_frame   0x00001df4       0x8c ./sdk/peripherals/src/hw_pdc.o
 .debug_frame   0x00001e80      0x768 ./sdk/peripherals/src/hw_pmu_da1469x.o
 .debug_frame   0x000025e8       0xf8 ./sdk/peripherals/src/hw_qspi.o
 .debug_frame   0x000026e0      0x194 ./sdk/peripherals/src/hw_rtc.o
 .debug_frame   0x00002874      0x138 ./sdk/peripherals/src/hw_sdadc.o
 .debug_frame   0x000029ac      0x2c4 ./sdk/peripherals/src/hw_spi.o
 .debug_frame   0x00002c70      0x244 ./sdk/peripherals/src/hw_sys_da1469x.o
 .debug_frame   0x00002eb4      0x164 ./sdk/peripherals/src/hw_timer.o
 .debug_frame   0x00003018       0xa8 ./sdk/peripherals/src/hw_trng.o
 .debug_frame   0x000030c0      0x480 ./sdk/peripherals/src/hw_uart.o
 .debug_frame   0x00003540       0xa0 ./sdk/peripherals/src/hw_usb_da1469x.o
 .debug_frame   0x000035e0       0x94 ./sdk/peripherals/src/hw_watchdog.o
 .debug_frame   0x00003674      0x114 ./sdk/peripherals/src/hw_wkup_da1469x.o
 .debug_frame   0x00003788       0xb0 ./sdk/osal/resmgmt.o
 .debug_frame   0x00003838      0x4e4 ./sdk/memory/src/qspi_automode.o
 .debug_frame   0x00003d1c       0x28 ./sdk/adapters/src/ad_crypto.o
 .debug_frame   0x00003d44      0x230 ./sdk/adapters/src/ad_gpadc.o
 .debug_frame   0x00003f74      0x2ec ./sdk/adapters/src/ad_i2c.o
 .debug_frame   0x00004260      0x184 ./sdk/adapters/src/ad_pmu.o
 .debug_frame   0x000043e4      0x15c ./sdk/adapters/src/ad_sdadc.o
 .debug_frame   0x00004540      0x26c ./sdk/adapters/src/ad_spi.o
 .debug_frame   0x000047ac       0xac ./sdk/FreeRTOS/portable/MemMang/heap_4.o
 .debug_frame   0x00004858      0x150 ./sdk/FreeRTOS/portable/GCC/DA1469x/port.o
 .debug_frame   0x000049a8      0x160 ./sdk/FreeRTOS/event_groups.o
 .debug_frame   0x00004b08       0x6c ./sdk/FreeRTOS/list.o
 .debug_frame   0x00004b74      0x464 ./sdk/FreeRTOS/queue.o
 .debug_frame   0x00004fd8      0x66c ./sdk/FreeRTOS/tasks.o
 .debug_frame   0x00005644      0x2b0 ./sdk/FreeRTOS/timers.o
 .debug_frame   0x000058f4       0xdc ./I2C_Interface/I2CAdapter.o
 .debug_frame   0x000059d0      0x168 ./I2C_Interface/Pressure.o
 .debug_frame   0x00005b38       0xd4 ./ADC_Interface/GPADCAdapter.o
 .debug_frame   0x00005c0c      0x1b0 ./main.o
 .debug_frame   0x00005dbc       0x28 c:/diasemi/smartsnippetsstudio2.0.10/gcc/7-2018-q2/bin/../lib/gcc/arm-none-eabi/7.3.1/../../../../arm-none-eabi/lib/thumb/v8-m.main/fpv5-sp/hard\libg_nano.a(lib_a-exit.o)
 .debug_frame   0x00005de4       0x68 c:/diasemi/smartsnippetsstudio2.0.10/gcc/7-2018-q2/bin/../lib/gcc/arm-none-eabi/7.3.1/../../../../arm-none-eabi/lib/thumb/v8-m.main/fpv5-sp/hard\libg_nano.a(lib_a-fflush.o)
 .debug_frame   0x00005e4c      0x11c c:/diasemi/smartsnippetsstudio2.0.10/gcc/7-2018-q2/bin/../lib/gcc/arm-none-eabi/7.3.1/../../../../arm-none-eabi/lib/thumb/v8-m.main/fpv5-sp/hard\libg_nano.a(lib_a-findfp.o)
 .debug_frame   0x00005f68       0x54 c:/diasemi/smartsnippetsstudio2.0.10/gcc/7-2018-q2/bin/../lib/gcc/arm-none-eabi/7.3.1/../../../../arm-none-eabi/lib/thumb/v8-m.main/fpv5-sp/hard\libg_nano.a(lib_a-fwalk.o)
 .debug_frame   0x00005fbc       0x2c c:/diasemi/smartsnippetsstudio2.0.10/gcc/7-2018-q2/bin/../lib/gcc/arm-none-eabi/7.3.1/../../../../arm-none-eabi/lib/thumb/v8-m.main/fpv5-sp/hard\libg_nano.a(lib_a-init.o)
 .debug_frame   0x00005fe8       0x28 c:/diasemi/smartsnippetsstudio2.0.10/gcc/7-2018-q2/bin/../lib/gcc/arm-none-eabi/7.3.1/../../../../arm-none-eabi/lib/thumb/v8-m.main/fpv5-sp/hard\libg_nano.a(lib_a-memcpy-stub.o)
 .debug_frame   0x00006010       0x20 c:/diasemi/smartsnippetsstudio2.0.10/gcc/7-2018-q2/bin/../lib/gcc/arm-none-eabi/7.3.1/../../../../arm-none-eabi/lib/thumb/v8-m.main/fpv5-sp/hard\libg_nano.a(lib_a-memset.o)
 .debug_frame   0x00006030       0x38 c:/diasemi/smartsnippetsstudio2.0.10/gcc/7-2018-q2/bin/../lib/gcc/arm-none-eabi/7.3.1/../../../../arm-none-eabi/lib/thumb/v8-m.main/fpv5-sp/hard\libg_nano.a(lib_a-nano-freer.o)
 .debug_frame   0x00006068       0x2c c:/diasemi/smartsnippetsstudio2.0.10/gcc/7-2018-q2/bin/../lib/gcc/arm-none-eabi/7.3.1/../../../../arm-none-eabi/lib/thumb/v8-m.main/fpv5-sp/hard\libg_nano.a(lib_a-nano-mallocr.o)
 .debug_frame   0x00006094       0x2c c:/diasemi/smartsnippetsstudio2.0.10/gcc/7-2018-q2/bin/../lib/gcc/arm-none-eabi/7.3.1/../../../../arm-none-eabi/lib/thumb/v8-m.main/fpv5-sp/hard\libg_nano.a(lib_a-sbrkr.o)
 .debug_frame   0x000060c0       0x38 c:/diasemi/smartsnippetsstudio2.0.10/gcc/7-2018-q2/bin/../lib/gcc/arm-none-eabi/7.3.1/../../../../arm-none-eabi/lib/thumb/v8-m.main/fpv5-sp/hard\libg_nano.a(lib_a-setvbuf.o)
 .debug_frame   0x000060f8       0x88 c:/diasemi/smartsnippetsstudio2.0.10/gcc/7-2018-q2/bin/../lib/gcc/arm-none-eabi/7.3.1/../../../../arm-none-eabi/lib/thumb/v8-m.main/fpv5-sp/hard\libg_nano.a(lib_a-stdio.o)
 .debug_frame   0x00006180       0x2c c:/diasemi/smartsnippetsstudio2.0.10/gcc/7-2018-q2/bin/../lib/gcc/arm-none-eabi/7.3.1/../../../../arm-none-eabi/lib/thumb/v8-m.main/fpv5-sp/hard\libg_nano.a(lib_a-writer.o)
 .debug_frame   0x000061ac       0x2c c:/diasemi/smartsnippetsstudio2.0.10/gcc/7-2018-q2/bin/../lib/gcc/arm-none-eabi/7.3.1/../../../../arm-none-eabi/lib/thumb/v8-m.main/fpv5-sp/hard\libg_nano.a(lib_a-closer.o)
 .debug_frame   0x000061d8       0x2c c:/diasemi/smartsnippetsstudio2.0.10/gcc/7-2018-q2/bin/../lib/gcc/arm-none-eabi/7.3.1/../../../../arm-none-eabi/lib/thumb/v8-m.main/fpv5-sp/hard\libg_nano.a(lib_a-lseekr.o)
 .debug_frame   0x00006204       0x58 c:/diasemi/smartsnippetsstudio2.0.10/gcc/7-2018-q2/bin/../lib/gcc/arm-none-eabi/7.3.1/../../../../arm-none-eabi/lib/thumb/v8-m.main/fpv5-sp/hard\libg_nano.a(lib_a-makebuf.o)
 .debug_frame   0x0000625c       0x30 c:/diasemi/smartsnippetsstudio2.0.10/gcc/7-2018-q2/bin/../lib/gcc/arm-none-eabi/7.3.1/../../../../arm-none-eabi/lib/thumb/v8-m.main/fpv5-sp/hard\libg_nano.a(lib_a-malloc.o)
 .debug_frame   0x0000628c       0x30 c:/diasemi/smartsnippetsstudio2.0.10/gcc/7-2018-q2/bin/../lib/gcc/arm-none-eabi/7.3.1/../../../../arm-none-eabi/lib/thumb/v8-m.main/fpv5-sp/hard\libg_nano.a(lib_a-mlock.o)
 .debug_frame   0x000062bc       0x2c c:/diasemi/smartsnippetsstudio2.0.10/gcc/7-2018-q2/bin/../lib/gcc/arm-none-eabi/7.3.1/../../../../arm-none-eabi/lib/thumb/v8-m.main/fpv5-sp/hard\libg_nano.a(lib_a-readr.o)
 .debug_frame   0x000062e8       0x5c c:/diasemi/smartsnippetsstudio2.0.10/gcc/7-2018-q2/bin/../lib/gcc/arm-none-eabi/7.3.1/../../../../arm-none-eabi/lib/thumb/v8-m.main/fpv5-sp/hard\libg_nano.a(lib_a-reent.o)
 .debug_frame   0x00006344       0x2c c:/diasemi/smartsnippetsstudio2.0.10/gcc/7-2018-q2/bin/../lib/gcc/arm-none-eabi/7.3.1/../../../../arm-none-eabi/lib/thumb/v8-m.main/fpv5-sp/hard\libg_nano.a(lib_a-fstatr.o)
 .debug_frame   0x00006370       0x20 c:/diasemi/smartsnippetsstudio2.0.10/gcc/7-2018-q2/bin/../lib/gcc/arm-none-eabi/7.3.1/../../../../arm-none-eabi/lib/thumb/v8-m.main/fpv5-sp/hard\libnosys.a(close.o)
